S01400004C6F52614D61632D6E6F64652E73726563BE
S214000000203D0020A15C0000355D0000355D00004D
S21400001000000000000000000000000000000000DB
S214000020000000000000000000000000355D000039
S2140000300000000000000000355D0000355D000097
S214000040355D0000355D000035420000652C00007F
S214000050355D0000355D0000355D0000355D000053
S214000060355D0000355D0000355D0000355D000043
S214000070355D0000355D0000355D0000355D000033
S214000080355D0000355D0000355D0000355D000023
S214000090355D0000355D0000355D0000355D000013
S2140000A0355D0000355D0000355D0000355D000003
S2140000B00000000010B5064C2378002B07D1054B36
S2140000C0002B02D0044800E000BF0123237010BDBF
S2140000D0C80A00200000000094000200084B10B57B
S2140000E0002B03D00749084800E000BF0748036814
S2140000F0002B00D110BD064B002BFBD09847F9E72C
S21400010000000000CC0A00209400020094000200C8
S2140001100000000080B584B000AF78600A00FB1CC9
S2140001201A700F23FB1800221A700E23FB180022E9
S2140001301A702BE00F23FB181B78002B07D01B4BE5
S21400014018001B4B98470F23FB1800221A700E232B
S214000150FB181B787A68D3181B781A00154B110009
S2140001601800154B98470E23FB181B7801331A000E
S2140001700F23134003D10F23FB1801221A700E23FE
S214000180FB181A780E23FB1801321A700E23FA1881
S214000190FB1C12781B789A42CCD3044B1800044BF5
S2140001A09847C046BD4604B080BDC04688EB0100F7
S2140001B0419D01008CEB01007D9C010090B587B04D
S2140001C000AF3B1D00221A703B1D194A5A603B1DAA
S2140001D0184A9A603B1D00221A731723FC183B1D11
S2140001E01800154B984703002370144B1800144B47
S2140001F098471723FB181A78124B9200D258124BC6
S21400020011001800114B98471723FB181B78002B7A
S21400021007D10F4B18000A4B98470E4B05221A7051
S21400022002E00C4B04221A70C046BD4607B090BDD3
S2140002300000002008000020A1B8000094EB010098
S214000240419D010034000020CCEB01007D9C0100A4
S214000250E0EB01001D0C002080B582B000AF02006C
S214000260FB1D1A70FB1D1B78022B02D0E02B0DD055
S21400027041E0234B01221A70214B1A78214B1A7049
S214000280214B1B781A00214B1A7034E0204B9B7BC5
S214000290002B14D01E4B00229A73194B03221A709F
S2140002A01A4B05221A701A4BDA7B184B5A70184BE9
S2140002B01A7C164B9A70164B01225A701AE0144B91
S2140002C05B78012B06D0042B00D013E0104B0122E4
S2140002D05A700FE00A4B02221A700D4B9B891B0ABC
S2140002E09BB2DAB2094B1A70094B9B89DAB2074BFC
S2140002F05A70C046C046C046BD4602B080BDC04625
S2140003003100002032000020F00B0020E40A00201C
S214000310041B002090B587B000AF3C4B1B783A001A
S214000320110018003A4B9847031E0CD03B1D0022C4
S2140003301A703B1D00229A603B1D00229A813B1DCD
S21400034000229A7328E0334B1B78002B12D13B1DFA
S21400035000221A70304B1A783B1D1A713B1D2F4A2B
S2140003609A602A4B1B789AB23B1D9A813B1D00224D
S2140003709A7311E03B1D01221A70274B1A783B1D19
S2140003801A713B1D254A9A60204B1B789AB23B1D7A
S2140003909A813B1D00229A733B1D1B78013B5A42F3
S2140003A05341DBB21A001E4B1A703B1D1A791C4BC8
S2140003B05A703B1D9A681A4B5A603B1D9B89DAB2ED
S2140003C0174B9A701723FC183B1D1800154B9847BF
S2140003D003002370144B1800144B98471723FB1880
S2140003E01A78134B9200D258124B11001800124B79
S2140003F098471723FB181B78002B01D1002300E039
S21400040001231800BD4607B090BDC046310000204D
S214000410B9AA0000D60B002030000020E40A002015
S214000420200C002079BD000004EC0100419D010075
S21400043034000020CCEB01007D9C010090B589B013
S21400044000AF124B1800124B98473B1D01221A7042
S2140004501F23FC183B1D18000E4B98470300237003
S2140004601F23FB181B78002B0CD13B1D1B79002B80
S21400047002D1094B984705E0084B03221A70084B37
S21400048001221A70C046BD4609B090BDDC0B0020A4
S214000490E56F010039AC0000BD0100001D0C002016
S2140004A03300002080B500AF054B1800054B984779
S2140004B0054B00211800054B9847C046BD4680BD39
S2140004C0F40B0020E56F0100501B0020796A010044
S2140004D080B500AF054B1800054B9847054B00212B
S2140004E01800054B9847C046BD4680BD080C002046
S2140004F0E56F0100501B0020796A010080B590B0BE
S21400050000AF7860724B1800724B98477B685B7838
S2140005101A00714B9200D258704B11001800704BA5
S21400052098477B685B78002B16D17B681B78012B7D
S21400053004D0032B04D0002B04D004E0C04602E015
S214000540C04600E0C046674B00211800664B98473F
S214000550664B1800664B98470C23FB1800221A704F
S2140005600C23FB181800634B98477B68DA68624BCD
S214000570110018005A4B9847604B1800554B984787
S2140005800C23FB181B791A005D4B9B5C1A005D4B15
S21400059011001800524B9847584B18004D4B98477F
S2140005A0594B5B781A00594B110018004C4B984772
S2140005B0554B9B78002B20D0554B1800484B98473E
S2140005C0514B1B78012B0CD17B681B79002B01D07B
S2140005D0504B00E0504B514A19001000404B9847D2
S2140005E003E04F4B18003B4B9847474B5A68464B27
S2140005F09B78190010004B4B9847404B1800354B22
S21400060098477B689B781A00474B11001800344BBC
S21400061098472423FB181C221A702423FB18180062
S214000620344B9847031E0FD12423FB1859687B6868
S2140006301A6913005B009B189B00CB181A683B4B8B
S21400064011001800264B98477B68DB785BB21A00CF
S214000650374B11001800224B98472423FB181F2203
S2140006601A702423FB181800224B9847031E27D124
S214000670304B18001A4B98473F23FB1800221A707D
S21400068015E02423FB185A683F23FB181B785B00F1
S214000690D3181B881A00284B11001800104B9847D7
S2140006A03F23FB181A783F23FB1801321A703F23AA
S2140006B0FB181B78002BE4D0104B1800054B98470E
S2140006C00E4B1800034B9847C046BD4610B080BD81
S2140006D030EC0100419D010090000020CCEB0100B1
S2140006E07D9C0100501B0020796A0100F40B00205D
S2140006F08D6D010039AC00005CEC010088EB010058
S2140007004CED01008CEC0100200C0020A0EC010058
S214000710B4EC0100C4EC0100C8EC0100D0EC010010
S214000720E4EC010015010000F4EC01000CED010002
S21400073020ED010034ED010044ED010090B5A9B0B4
S21400074000AF7860C84B1800C84B98477B685B784A
S2140007501A00C74B9200D258C64B11001800C64B61
S21400076098477B685B78002B00D07DE27B681B781F
S214000770012B08D002DC002B07D00BE0022B06D0A2
S214000780032B06D006E0C04604E0C04602E0C046A2
S21400079000E0C0467B685B79012B01D1B74B9847D8
S2140007A0B74B1B78002B05D0B54B9B8901339AB20B
S2140007B0B34B9A817B685B7B002B00D1D6E17B68CC
S2140007C0DB78012B00DACCE1022B02DDE02B11D026
S2140007D0C7E17B681B7B012B00D0C4E17B689B686C
S2140007E01B781A00012313405A1E9341DAB2A54B18
S2140007F01A70B8E1A24B1B7801225340DBB2002BE3
S2140008004FD07B681B7B042B00D0AEE17B689B68D7
S2140008101B78012B00D0A8E17B689B6801331B780E
S214000820012B00D0A1E17B689B6802331B78012B6B
S21400083000D09AE17B689B6803331B78012B00D0BD
S21400084093E1914B00221A70904BE0221A70904B65
S2140008501A78904B1A708E4B02221A70884B002220
S2140008609A81874B00229A73854B0022DA73844B59
S21400087000221A74824B01221A70814B01225A7090
S2140008806823FB1802221A706823FB1801221A71CB
S2140008906823FB181800804B984700207F4B98472A
S2140008A063E17B689B681A78754B5A70744B5B786B
S2140008B0072B00D953E19A00794BD3181B689F4643
S2140008C0714B00221A70714B02221A70714B1A7803
S2140008D06F4B1A706A4B00229A81694B00221A707D
S2140008E05023FB1802221A705023FB1801221A719B
S2140008F05023FB181800684B98470020674B984712
S2140009002EE1634B02221A702AE15F4B01221A7015
S2140009105B4B01225A7023E15B4B00221A70584B46
S21400092001225A701CE17B681A7B594B1A705D4B8A
S21400093004221A709F23FB1801221A7014E09F23CA
S214000940FB181A787B6899689F23FB181B78CB18CE
S2140009501B780133D9B2534B99549F23FB181A784E
S2140009609F23FB1801321A709F23FB181B78484AF6
S2140009701278F12A02D8464A127800E0F222934210
S214000980DDDBEDE04023FB1803221A709723FC18EA
S2140009904023FB181800444B984703002370434B32
S2140009A01800324B98479723FB181A78404B920052
S2140009B0D258304B110018002F4B9847D0E0324BDE
S2140009C000221A70314B02221A70324B1A78304BC2
S2140009D01A702B4B00229A81294B00221A7028236A
S2140009E0FB1802221A702823FB1801221A712823EA
S2140009F0FB181800284B98470020284B98472D4B8B
S214000A009847ADE07B681B7B032B57D11823FB1858
S214000A1004221A707B689B6801331B781B021AB28B
S214000A207B689B6802331B781BB213431BB29AB2D7
S214000A301823FB189A809623FC181823FB18180016
S214000A40194B9847030023701B4B1800074B984719
S214000A509623FB181A78164B9200D258054B1100B5
S214000A601800054B984776E050ED0100419D0100C7
S214000A7090000020CCEB01007D9C01003D040000AE
S214000A80041B0020F00B0020D60B002030000020B6
S214000A903100002032000020EDAE0000FDC1000055
S214000AA0F8EE0100E40A0020A1B800007CED010089
S214000AB034000020BD010000B8ED01007B681B7B00
S214000AC0072B48D10823FB1805221A707B689B6801
S214000AD001331B781B021AB27B689B6802331B78B3
S214000AE01BB213431BB29AB20823FB189A807B688A
S214000AF09B6803331B781A047B689B6804331B7857
S214000B001B021A437B689B6805331B7813431A0045
S214000B1064235A430823FB189A607B689B689A797B
S214000B200823FB181A739523FC180823FB181800D3
S214000B304F4B9847030023704E4B18004E4B984778
S214000B409523FB181A784D4B9200D2584C4B110047
S214000B5018004C4B98474C4B01225A7000E0C04698
S214000B6003E0C04602E0C04600E0C046474B012115
S214000B701800474B9847474B1800474B9847802329
S214000B80FB18464A13CA13C303CA03C3002398229A
S214000B90BA1813607B681B7C5BB2002B10DA7B688C
S214000BA01B7C5B429B103F2213409822BA181360AE
S214000BB09823FB181B685B429822BA18136006E05D
S214000BC07B681B7C9B08DBB29822BA1813607B6894
S214000BD05A69334B110018002A4B98477B685B7C98
S214000BE01A008023FB189200D2582E4B11001800D2
S214000BF0244B98477B68DB781A002B4B11001800B3
S214000C00204B98477B681B7B002B0BD0274B18008C
S214000C10194B98477B689A687B681B7B1900100005
S214000C20234B9847234B1800134B98477B681B7938
S214000C301A00214B11001800124B98477B680E22B1
S214000C409B5E1A001D4B110018000E4B9847982308
S214000C50FB181A681A4B110018000A4B9847154BD8
S214000C601800054B984700E0C046BD4629B090BD29
S214000C70A1B80000F0ED0100419D01003400002005
S214000C80CCEB01007D9C0100041B0020501B0020C3
S214000C90796A0100080C00208D6D0100E4EE010069
S214000CA028EE010058EE01006CEE010080EE010017
S214000CB01501000088EB0100F4EC010090EE010045
S214000CC0A4EE010080B588B000AF7860364B1800FF
S214000CD0364B98477B685B781A00354B9200D258A3
S214000CE0344B11001800344B98477B681B78002B58
S214000CF002D0032B3FD052E07B685B78002B37D1C5
S214000D002E4B1800294B98472D4B1800274B984719
S214000D100823FB1804221A700823FB181800294B16
S214000D2098470823FB185A68274B11001800224BD7
S214000D309847264B18001D4B98470823FB18282277
S214000D401A700823FB1818001E4B98470823FB1838
S214000D501B795BB21A001E4B11001800164B984701
S214000D601C4B1800114B98471B4B03221A7016E0B9
S214000D701A4B984713E07B685B78002B0ED1184B14
S214000D801B78002B0AD0164B01229A737B681A7ABE
S214000D90134BDA737B685A7A114B1A74C046C046F6
S214000DA0BD4608B080BDC04618EF0100419D010059
S214000DB090000020CCEB01007D9C010044EF010078
S214000DC068EF010039AC000074EF01008CEF010001
S214000DD0F4EC010088EB01001D0C0020BD010000B2
S214000DE0041B002080B582B000AF78607B685B781B
S214000DF00E2B0ED00D4B18000D4B98477B685B787A
S214000E001A000C4B9200D2580B4B110018000B4BDB
S214000E1098477B681B78062B00D002E0084B984763
S214000E20C046C046BD4602B080BDC04690EF010039
S214000E30419D010090000020CCEB01007D9C01004C
S214000E403D04000080B500AF024B01221A70C04678
S214000E50BD4680BD1C0C002090B595B000AFE24B9F
S214000E609847E24B9847E24B1800E24B98473023EE
S214000E70FB18E14A1A603023FB18E04A5A60302318
S214000E80FB18DF4A9A603023FB18DE4ADA6020231C
S214000E90FB18DD4A1A602023FB1800225A60202324
S214000EA0FB18DA4A9A602023FB18D94ADA60202316
S214000EB0F9183023FB1805221800D64B9847D64B56
S214000EC000221A70D54B1800CA4B9847D44B984747
S214000ED0D44B1B6E002B02D0D24B1B6E9847D24BC6
S214000EE09847CD4B1B78052B00D90BE29A00CF4BC9
S214000EF0D3181B689F46CE4B9847031E04D1CD4B94
S214000F001800BC4B98473DE00823FB1805221A70D2
S214000F100823FB18C84A5A600823FB181800C74B5A
S214000F2098470823FB1806221A700823FB18C44AA1
S214000F305A600823FB181800C04B9847C14B1B7813
S214000F40002B1FD1BF4B5B78002B1BD1BD4B9B7872
S214000F50002B17D1BB4BDB78002B13D1B94B1B7979
S214000F60002B0FD1B74B5B79002B0BD1B54B9B7980
S214000F70002B07D1B34BDB79002B03D1B14B180004
S214000F80B14B9847A44B01221A70C0E1AF4AB04B50
S214000F9011001800AF4B9847AF4AB04B110018002D
S214000FA0AC4B9847AD4B19211800AD4B9847AD4A4E
S214000FB0AD4B11001800A74B9847AB4B19211800F2
S214000FC0A74B98470823FB181A221A700823FB1809
S214000FD001221A710823FB181800984B984708231B
S214000FE0FB1802221A700823FB1801221A71082324
S214000FF0FB181800914B984700209C4B98470823F5
S214001000FB181E221A700823FB18994A043303CAD9
S21400101003C30823FB181800884B98470823FB18BF
S2140010201D221A700823FB18914A043303CA03C30F
S2140010300823FB181800814B98470823FB182B221F
S2140010401A700823FB1814225A600823FB1818008D
S2140010507A4B98470823FB1800221A700823FB18BF
S21400106002221A710823FB181800744B9847814B0C
S21400107098470823FB1801221A704323FC180823FC
S214001080FB1818007C4B9847030023704323FB187B
S2140010901B78002B00D039E10823FB181B79002BA6
S2140010A003D15D4B02221A7006E05B4B03221A70D6
S2140010B0724B01221A702AE1624B1B781A00704BA1
S2140010C0110018006F4B98470123FB640CE05D4A43
S2140010D0FB6CD3181B781A006B4B11001800694B79
S2140010E09847FB6C0133FB64FB6C072BEFDD674B0B
S2140010F01800404B9847664B1B781A00654B11004A
S2140011001800604B98470123BB640CE0604ABB6C38
S214001110D3181B781A005C4B11001800594B9847DF
S214001120BB6C0133BB64BB6C072BEFDD574B180061
S214001130304B9847424B1B781A00574B110018004B
S214001140504B984701237B640CE03D4A7B6CD318D8
S2140011501B781A00514B110018004A4B98477B6CBD
S21400116001337B647B6C0F2BEFDD4D4B1800214B5E
S21400117098474C4B9847CAE0404B1B78002B0AD048
S214001180494B1B781800494B9847494B9847030032
S2140011901A003A4B1A70204B04221A70B7E01E4B06
S2140011A005221A70434B1B78002B03D0424B434A50
S2140011B01A600DE0FA239B00414A19001000414BCB
S2140011C0984703003D4A944663441A003A4B1A6017
S2140011D0394B1A681E4B11001800214B98471C4BC0
S2140011E01800394B984792E021140000F5130000D0
S2140011F0BCEF0100419D0100FD0400003D0700001A
S214001200C50C0000E50D0000E514000031130000D9
S214001210450E000051A200001D0C0020C8EF010082
S2140012202D720100A4F2010029700000B0F0010048
S2140012305113000008F0010010000020EDAE000081
S2140012402000002000000020D51400003D0400000F
S214001250DC0B00205D6D0100A5040000F40B0020EF
S21400126019710100D1040000080C0020FDC1000027
S214001270A8F001009DAA000039AC00003300002051
S21400128034F001007D9C010048F0010088EB01006D
S2140012900800002050F0010064F0010078F0010022
S2140012A08CEF0100BD010000300000205902000054
S2140012B015030000041B0020D80B00208813000034
S2140012C018FCFFFF054300008D6D0100104B98478A
S2140012D0031E03D10F4B18000F4B98473B1D1800F9
S2140012E00E4B98470E4B1B78012B03D10C4B00225C
S2140012F01A7001E00B4B98473B1D18000A4B9847A5
S214001300C04604E0094B01221A7000E0C046DDE545
S2140013104513000080F00100419D0100B913000054
S2140013201C0C0020F1140000D71300001D0C002038
S21400133080B582B000AF0200FB1D1A70C046BD46E5
S21400134002B080BD80B500AF01231800BD4680BD49
S21400135080B500AF01231800BD4680BD80B584B0BF
S21400136000AFF8607A600B23FB180A1C1A700B2378
S214001370FB181A78FB68203292007968D150C04674
S214001380BD4604B080BD80B582B000AF78607B6893
S2140013905B69802292001A437B685A61C046BD464C
S2140013A002B080BD80B500AF024B9847C046BD4630
S2140013B080BDC0467926000080B584B000AF786056
S2140013C0EFF31083FB60FA687B681A6072B6C0465B
S2140013D0BD4604B080BD80B584B000AF78607B6841
S2140013E01B68FB60FB6883F31088C046BD4604B0EC
S2140013F080BD000090B583B002AF0748002301937C
S21400140000230093002301222A21044CA047C04653
S214001410BD4601B090BDC046501B0020296A0100A1
S21400142090B585B004AF1C4B98471C4B18001C4B5E
S21400143098471C4B4022032118001B4B98471B4B18
S21400144018001B4B98471B4B98471B481723162220
S21400145000211A4CA047E1231A03174800230293E1
S214001460002301930023009300230221144CA0477D
S214001470144801235B42019337230093302336221E
S2140014800021114CA047114B9847114B01221A70AE
S214001490C046BD4601B090BDA513000010E000E0B8
S2140014A0691B0000001800405D13000000040040A7
S2140014B087130000ED430000181B00204172010056
S2140014C0997201004C1C0020B94F00002D540000FA
S2140014D0280C002080B582B000AF7860C046BD46BC
S2140014E002B080BD80B500AF00231800BD4680BDA9
S2140014F080B500AF72B662B6C046BD4680BD00007D
S21400150080B584B000AFF860B9607A60C0467B688A
S2140015109AB2B968054B1800054B9847031EF6D1DA
S2140015207B681800BD4604B080BDC046181B00206E
S214001530F172010090B587B000AFF860B9607A60CC
S21400154000237B61C0467B689AB21423FB18B968F7
S21400155009480A4CA047031EF5D1C0467B699AB2DB
S214001560B968054B1800064B9847031EF6D17B69F1
S2140015701800BD4607B090BD181B00201D73010063
S214001580F172010080B582B000AF78607B689BB2D4
S2140015901800034B9847C046BD4602B080BDC04603
S2140015A0911B000080B584B000AFF8607A600B2312
S2140015B0FB180A1C1A700B23FB181B78FA68DB0151
S2140015C0D31808337A681A60C046BD4604B080BD9A
S2140015D080B584B000AFF8607A600B23FB180A1C55
S2140015E01A700B23FB181B78FA68DB01D318043338
S2140015F07A681A60C046BD4604B080BD80B584B027
S21400160000AFF8607A600B23FB180A1C1A700B23D5
S214001610FB181B78FA68DB01D31818337A681A604F
S214001620C046BD4604B080BD80B584B000AFF8604B
S2140016307A600B23FB180A1C1A700B23FB181B7806
S214001640FA68DB01D31814337A681A60C046BD46C0
S21400165004B080BD80B584B000AFF8607A600B231C
S214001660FB180A1C1A700B23FB181B78FA68DB01A0
S214001670D31828337A681A60C046BD4604B080BDC9
S214001680B0B582B000AF786008001100FB1C021CE9
S2140016901A70BB1C0A1C1A70FB1C1A78BB1C1B7821
S2140016A0F91C0878B91C09787C684025C001201808
S2140016B0411849190978C9B204200143CCB27968A7
S2140016C04020D2018A18D3181B18221C1A70C04654
S2140016D0BD4602B0B0BDB0B582B000AF78600800BD
S2140016E01100FB1C021C1A70BB1C0A1C1A70FB1C87
S2140016F01A78BB1C1B78F91C0878B91C09787C681A
S2140017004025C0012018411849190978C9B204209B
S2140017108143CCB279684020D2018A18D3181B18AE
S214001720221C1A70C046BD4602B0B0BD80B582B05D
S21400173000AF39601100FB1D021C1A70BB1D0A1C8D
S2140017401A70BB1D1B78012B23D0022B3FD0002B19
S2140017505DD13A68FB1D1978C023DB051800314BB4
S21400176098473B681B041B0C8022D2051A43FB1DBE
S2140017701B782D4819002D4B98473B681B0CC02240
S21400178012061A43FB1D1B7827481900274B98475B
S21400179043E03A68FB1D1978C023DB051800214B8F
S2140017A098473B681B041B0C214A1A43FB1D1B78F9
S2140017B01D4819001D4B98473B681B0C1D4A1A43D1
S2140017C0FB1D1B7818481900184B984725E03A6807
S2140017D0FB1D1978C023DB051800174B98473B689C
S2140017E01B041B0C8022D2051A43FB1D1B780E48D7
S2140017F019000E4B98473B681B0CC02212061A4372
S214001800FB1D1B7808481900084B984705E00B4B52
S2140018104E22190000200A4B9847C046BD4602B02B
S21400182080BDC046D11500000028004055160000B7
S21400183000000240000002C0A5150000C8F001002C
S2140018407923000080B582B000AF39601100FB1D1F
S214001850021C1A70BB1D0A1C1A70BB1D1B78002BBD
S21400186008D03A68FB1D1978C023DB051800074B23
S214001870984707E03A68FB1D1978C023DB05180077
S214001880034B9847C046BD4602B080BDFD1500001C
S2140018902916000090B583B000AF040008001100C0
S2140018A0FB1D221C1A70BB1D021C1A707B1D0A1C15
S2140018B01A707B1D1B78012B0CD0022B29D0002B15
S2140018C046D1BB1D1A78FB1D1B7827481900274BED
S2140018D0984744E0BB1D1B7801229A40FB1D1978EF
S2140018E0C023DB051800224B9847BB1D1A78FB1D4A
S2140018F01B781D4819001F4B9847BB1D1B780122FB
S2140019009A40FB1D1978C023DB0518001A4B984730
S21400191025E0BB1D1B7801229A40FB1D1978C023C9
S214001920DB051800124B9847BB1D1A78FB1D1B7869
S2140019300D4819000F4B9847BB1D1B7801229A4093
S214001940FB1D1978C023DB0518000C4B984706E0F2
S2140019500B4B9122190000200A4B9847C046C04600
S214001960BD4603B090BDC04600280040D716000014
S214001970D115000081160000FD1500002916000094
S214001980C8F001007923000080B582B000AF0200E5
S214001990FB1D1A70BB1D0A1C1A70FB1D1B785B0909
S2140019A0D8B2FB1D1B781F221340D9B2BB1D1B7873
S2140019B01A00034B9847C046BD4602B080BDC046DD
S2140019C09518000080B582B000AF0200FB1D1A70AB
S2140019D0BB1D0A1C1A70FB1D1B785B09D8B2FB1DC9
S2140019E01B781F22134001229A401100BB1D1B7852
S2140019F01A00034B9847C046BD4602B080BDC0469D
S214001A002D17000080B582B000AF0200FB1D1A70D3
S214001A10BB1D0A1C1A70FB1D1B785B09D8B2FB1D88
S214001A201B781F22134001229A401100BB1D1B7811
S214001A301A00034B9847C046BD4602B080BDC0465C
S214001A404518000090B583B000AF78600C00100019
S214001A501900FB1C221C1A70BB1C021C1A707B1C73
S214001A600A1C1A707B68FA1C12781A70FB1C1B780A
S214001A705BB201332AD0BB1C1B78002B13D17B68CA
S214001A801B785BB2DBB201211800124B98477B68CB
S214001A901B785BB2DBB21822BA1812781100180055
S214001AA00D4B984707E07B681B785BB2DBB20221E0
S214001AB01800084B9847BB1C1B78012B07D1FA6906
S214001AC07B6811001800054B984700E0C046BD46ED
S214001AD003B090BDC519000089190000E11A000086
S214001AE080B582B000AF786039607B68002B00D18B
S214001AF0FEE77B681B785BB201330CD07B681B78F3
S214001B005BB2DAB23B68591E8B41DBB2190010009B
S214001B10034B984700E0C046BD4602B080BDC046B5
S214001B20051A000080B584B000AF7860EFF310832C
S214001B30FB60FA687B681A6072B6BFF35F8FC046B8
S214001B40BD4604B080BD80B584B000AF7860BFF3FA
S214001B505F8F7B681B68FB60FB6883F31088C0465A
S214001B60BD4604B080BD000080B582B000AF78608E
S214001B70054B7A681A60044B1B681800034B98479D
S214001B80C046BD4602B080BD2C0C0020913E000031
S214001B9090B583B000AF0200BB1D1A80074B1C68CF
S214001BA0BB1D1B881800064B984703001900200031
S214001BB0044B9847C046BD4603B090BD2C0C002091
S214001BC029260000AD3E000080B582B000AFBB1DE8
S214001BD000221A8013E0BB1D1B880F4ADB00D318B7
S214001BE00433012252421A60BB1D1A880A4BD200E7
S214001BF00021D150BB1D1A88BB1D01321A80BB1DA7
S214001C001B88052BE7D9054B1800054B98470300A2
S214001C101800BD4602B080BD300C0020FD1D00003F
S214001C204529000080B586B000AF7860396017237C
S214001C30FB1800221A701623FB1800221A701523B0
S214001C40FB1800221A701DE01723FB181B78694A40
S214001C50DB00D31804331A687B689A420BD117232B
S214001C60FB181A78634BD2003968D1501523FB183D
S214001C7001221A700BE01723FB181A781723FB189B
S214001C8001321A701723FB181B78052BDCD93B682A
S214001C90002B11D11523FB181B7801225340DBB211
S214001CA0002B02D00D235B429FE07B6800211800CA
S214001CB0514B9847030098E01523FB181B78012228
S214001CC05340DBB2002B00D17EE01723FB18002226
S214001CD01A7023E01723FB181A78464BD200D35805
S214001CE0002B14D11723FB181A78424BD200396800
S214001CF0D1501723FB181B783E4ADB00D318043359
S214001D007A681A601523FB1801221A700BE0172355
S214001D10FB181A781723FB1801321A701723FB18C2
S214001D201B78052BD6D945E01723FB181B78314ABC
S214001D30DB00D31804331A681623FB181B782D49CA
S214001D40DB00CB1804331B689A422CD21623FB18F0
S214001D501B78284ADB00D31804331B68013322D0D3
S214001D601623FB181B780C22BA182249DB00CB1866
S214001D7003CB03C21623FB181B781722BA18127857
S214001D801C48DB001B49D200C3188A1803CA03C3C9
S214001D901723FB181B78174ADB000C217918D31879
S214001DA00A0003CA03C31623FB181A781623FB1867
S214001DB001321A701623FB181B78052B04D817233C
S214001DC0FB181B78052BAFD91523FB181B780122AF
S214001DD05340DBB2002B02D00D235B4205E07B684C
S214001DE001211800044B984703001800BD4606B0B2
S214001DF080BDC046300C0020152A000080B584B097
S214001E0000AF78600F23FB1800221A700E23FB1811
S214001E1006221A704BE00E23FB181A780F23FB18C5
S214001E201B78D3185A100D23FB181A700D23FB18B5
S214001E301B78244ADB00D31804331A687B689A425E
S214001E400FD10D23FB181A781E4BD200D358002B47
S214001E5007D00D23FB181A781A4BD200D358984790
S214001E602DE00D23FB181B78164ADB00D31804332D
S214001E701A687B689A420DD20F23FB180D22BA18F7
S214001E80127801321A700E23FB180E22BA18127836
S214001E901A700CE00E23FB180D22BA181278013ABD
S214001EA01A700F23FB180F22BA1812781A700E2316
S214001EB0FA180F23FB1812781B789A42ABD2BD464D
S214001EC004B080BD300C002080B584B000AFF86050
S214001ED0B960BB1D1A80FB68002B04D0BB68002BC2
S214001EE001D0012300E000231A1C01231340DBB2BB
S214001EF008493E221800084B9847FB681B68BA1D25
S214001F001288B968F868984703001800BD4604B000
S214001F1080BDC046F8F001007923000080B584B08B
S214001F2000AFF860B960BB1D1A80FB68002B04D0B8
S214001F30BB68002B01D0012300E000231A1C0123FC
S214001F401340DBB2084947221800084B9847FB6845
S214001F505B68BA1D1288B968F868984703001800CD
S214001F60BD4604B080BDC046F8F0010079230000ED
S214001F7080B584B000AF786039600023FB607B6872
S214001F80002B04D03B68002B01D0012300E0002387
S214001F901A1C01231340DBB2114942221800114BD0
S214001FA098477B683A681A607B683A6811001800A0
S214001FB00D4B98470300FB60FB68002B01DAFB68BB
S214001FC009E07B68094A1A827B68094ADA607B68FE
S214001FD0084A9A6000231800BD4604B080BDC0467B
S214001FE020F1010079230000913A00000080FFFFF5
S214001FF0F91F00005D20000080B588B000AFF860D3
S214002000B960BB1D1A80FB685A1E9341DBB21049AB
S214002010912218000F4B9847FB68083BFB61102382
S214002020FB18BA685A601023FB1800221A60BB1D02
S2140020301A881023FB189A601023FA18FB691100FF
S2140020401800054B984703001800BD4608B080BD31
S21400205020F1010079230000C120000080B588B07F
S21400206000AFF860B960BB1D1A80FB685A1E93412A
S214002070DBB21049AD2218000F4B9847FB68083BAF
S214002080FB611023FB1800225A601023FB18BA6865
S2140020901A60BB1D1A881023FB189A601023FA18C2
S2140020A0FB6911001800054B984703001800BD4651
S2140020B008B080BD20F1010079230000C120000097
S2140020C080B586B000AF786039607B68002B04D09E
S2140020D03B68002B01D0012300E000231A1C0123DB
S2140020E01340DBB20F49BD2218000F4B98473B68E0
S2140020F01A680C23FB181A603B685A680C23FB18F6
S2140021005A603B689A680C23FB189A607B680C221E
S214002110BA1811001800054B984703001800BD4672
S21400212006B080BD20F1010079230000153D0000B7
S21400213080B586B000AFF860B9607A60FB68002BA7
S21400214004D0BB68002B01D0012300E000231A1C3A
S21400215001231340DBB20F493E2218000E4B98476E
S214002160FB680833BA68110018000C4B9847030048
S2140021707B617B69002B01D07B6906E0FB68084A1F
S2140021805A60FB68074A1A6000231800BD4606B06E
S21400219080BDC04650F10100792300005D34000088
S2140021A0D92200002522000080B582B000AF7860FA
S2140021B07B685A1E9341DBB207495D221800074B25
S2140021C098477B6808331800054B9847002318008B
S2140021D0BD4602B080BDC04650F101007923000024
S2140021E09D34000080B582B000AF786039607B68AF
S2140021F05A1E9341DBB208498A221800074B9847BB
S2140022007B6808333A6811001800054B984700238E
S2140022101800BD4602B080BD50F1010079230000D1
S214002220BD34000080B586B000AFF860B960BB1D55
S2140022301A8000237B61FB683B61FB68002B08D09B
S214002240BB68002B05D0BB1D1B88002B01D00123CB
S21400225000E000231A1C01231340DBB21A49FB22BC
S21400226018001A4B9847C0463B6908331800184BAD
S214002270984703001A0001235340DBB2002BF3D12A
S2140022803B6908331800BA687B69D3181B781900B5
S214002290104B9847C0463B69083318000C4B9847CC
S2140022A003001A0001235340DBB2002BF3D17B69F5
S2140022B001337B61BB1D1B887A699A42E0D37B6938
S2140022C01800BD4606B080BD50F10100792300001D
S2140022D031350000E134000090B587B000AFF860FB
S2140022E0B960BB1D1A8000237B61FB683B61FB68FD
S2140022F0002B08D0BB68002B05D0BB1D1B88002B0D
S21400230001D0012300E000231A1C01231340D8B299
S2140023101623FF331A00144B1900144B9847C04677
S2140023203B6908331800124B984703001A00012334
S2140023305340DBB2002BF3D1BA687B69D4183B69F3
S214002340083318000B4B9847030023707B69013352
S2140023507B61BB1D1B887A699A42E0D37B691800B3
S214002360BD4607B090BDC04650F10100792300007D
S214002370513500000D35000080B584B000AFB9605F
S2140023807A600F23FB18021C1A700F23FB181B78A9
S21400239001225340DBB2002B00D000BEC046BD4633
S2140023A004B080BD80B584B000AF78600A4B1B686F
S2140023B0002B02D1084B094A1A60074B1B68FB60CA
S2140023C0054B1A687B68D218034B1A60FB68180026
S2140023D0BD4604B080BDC046600C0020203D0020F5
S2140023E080B582B000AF786001235B421800BD461E
S2140023F002B080BD80B582B000AF786039603B68BF
S214002400802292015A6000231800BD4602B080BDAB
S21400241080B582B000AF786001231800BD4602B0D8
S21400242080BD80B584B000AFF860B9607A600023E4
S2140024301800BD4604B080BD90B583B000AF3960CB
S2140024401100BB1D021C1A807B1D0A1C1A707B1D06
S2140024501B78043B042B59D89A00344BD3181B68BE
S2140024609F46BB1D1C883A68314B3249100098477E
S214002470030063435A1E2E4B0A21100098470300A0
S21400248001334EE0BB1D1C883A68294B2A491000D0
S2140024909847030063435A1E254B64211000984753
S2140024A0030001333DE0BB1D1C883868204BFA2230
S2140024B09100984703006343581E1D4BFA22910073
S2140024C09847030001332CE0BB1D1C883A68184B64
S2140024D0642110009847030063435A1E144B1649A4
S2140024E010009847030001331BE0BB1D1C883A68A8
S2140024F00F4B0A2110009847030063435A1E0C4BEB
S2140025000C4910009847030001330AE0BB1D1B88E6
S2140025103A6853435A1E064B084910009847030072
S21400252001331800BD4603B090BDC046B4F10100AB
S21400253055760100A08601001027000040420F00DB
S21400254090B583B000AF39601100BB1D021C1A8025
S2140025507B1D0A1C1A707B1D1B78043B042B4BD872
S2140025609A002D4BD3181B689F46BB1D1C883A68E3
S2140025702A4B2B49100098470300634364225343B9
S21400258045E0BB1D1C883A68244B26491000984736
S214002590030063431A0013009B009B185B0036E0A1
S2140025A0BB1D1C8838681D4BFA2291009847030013
S2140025B063432CE0BB1D1C883A68184B642110004E
S2140025C09847030063435A1E144B0A21100098478D
S2140025D0030001331BE0BB1D1C883A680F4B0A2121
S2140025E010009847030063435A1E0C4B64211000EA
S2140025F09847030001330AE0BB1D1B883A68534323
S214002600581E064BFA229100984703000133180023
S214002610BD4603B090BDC046C8F101005576010026
S214002620A08601001027000080B582B000AF02002F
S214002630BB1D1A800549BB1D1B8808221800044BC9
S214002640984703001800BD4602B080BD0024F40081
S2140026504125000080B582B000AF786039607B68A5
S2140026605A683B685B001E210B401A437B685A6021
S214002670C046BD4602B080BD80B500AF0A4B002103
S21400268018000A4B98470220094B9847094B984771
S214002690094B9847094B9847094B9847094B984769
S2140026A0C046BD4680BDC0460040004155260000DD
S2140026B0ED2F0000112E0000C52E0000812D000019
S2140026C0A52C0000112F000080B582B000AF0200DC
S2140026D0FB1D1A70064BFA1D127811001F220A40C5
S2140026E0012191400A001A60C046BD4602B080BD76
S2140026F000E100E080B582B000AF0200FB1D1A705A
S214002700074AFB1D1B7819001F230B400121994027
S2140027100B0019008023D150C046BD4602B080BDD4
S21400272000E100E080B582B000AF0200FB1D1A7029
S214002730084AFB1D1B7819001F230B4001219940F6
S2140027400B001900C0235B00D150C046BD4602B046
S21400275080BDC04600E100E080B582B000AF786082
S2140027603960C0467B685B683A681340FAD1C04659
S214002770BD4602B080BD80B582B000AF78603960DB
S2140027807B683A681A61C046BD4602B080BD80B517
S21400279082B000AF786039607B683A68DA60C0461D
S2140027A0BD4602B080BD80B582B000AF78607B6861
S2140027B05B691800BD4602B080BD80B582B000AF30
S2140027C0786039607B683A685A61C046BD4602B098
S2140027D080BD000080B582B000AF78607B680121C4
S2140027E01800074B98477B681B78DBB2012213431F
S2140027F0DAB27B681A70C046BD4602B080BDC046DD
S2140028005927000080B582B000AF78607B6803214E
S2140028101800074B98477B681B78DBB202221343ED
S214002820DAB27B681A70C046BD4602B080BDC046AC
S2140028305927000080B584B000AF78607B6803211C
S21400284018000D4B98470F23FB187A6812781A70F9
S2140028500F23FB181B785B08DAB20F23FB18012145
S2140028600A401A700F23FB181B785A1E9341DBB2DE
S2140028701800BD4604B080BD5927000080B584B05E
S21400288000AF78600A00FB1C1A707B6803211800F2
S214002890124B98470F23FB187A6812781A700F238A
S2140028A0FB180F22BA18127810218A431A70FB1CE4
S2140028B01B781B015AB20F23FB181B785BB213431D
S2140028C05AB20F23FB181A707B680F22BA181278B8
S2140028D01A70C046BD4604B080BDC04659270000E9
S2140028E080B582B000AF78600A00FB1C1A707B6867
S2140028F0FA1C12785A70C046BD4602B080BD80B53C
S21400290082B000AF786039607B683A689A60C046EB
S214002910BD4602B080BD80B584B000AFF8607A6076
S2140029200B23FB180A1C1A700B23FB181B78FA687B
S21400293006339B00D31804337A681A60C046BD4637
S21400294004B080BD80B582B000AF7860234B012113
S2140029501800234B9847214B1800224B9847031E1C
S21400296002D011235B4235E01C4B18001E4B9847E3
S2140029701A4B012118001A4B9847184B00211800D3
S2140029801A4B9847154B00211800194B9847134BC4
S21400299000211800174B984788235B030F481A003E
S2140029A00021154B9847154A0C4B01211800124B75
S2140029B098470A4B1800124B98470320114B98472C
S2140029C00320114B98470320104B9847104B7A680A
S2140029D01A6000231800BD4602B080BD00240040E7
S2140029E05927000035280000D52700007D28000064
S2140029F0E1280000FF280000172900000000111140
S214002A0005280000F526000025270000C92600003E
S214002A10640C002080B584B000AF78600A00FB1C10
S214002A201A700F23FB18FF221A700E23FB180022C1
S214002A301A701BE00E23FB181B78284ADB00D318FD
S214002A4004331A687B689A4209D10E23FB1819785A
S214002A500F23FB18214AC9008A5C1A700BE00E236C
S214002A60FB181A780E23FB1801321A700E23FB1877
S214002A701B78052BDED90F23FB181B78FF2B02D102
S214002A8001235B4226E0FB1C1B78002B0BD00F2398
S214002A90FB181B7801229A401300114A19001000F7
S214002AA0104B984715E00F23FB181B7801229A401D
S214002AB013000B4A190010000B4B98470F23FB1806
S214002AC01B7801229A401300054A19001000074B94
S214002AD0984700231800BD4604B080BDDCF1010015
S214002AE000240040772700008F270000BB27000047
S214002AF080B584B000AF534B1800534B9847030083
S214002B003B6001235B42BB603B684E4A19001000E5
S214002B104E4B98474E4B1B685A1E9341DBB24D49AD
S214002B20F02218004C4B984784E03B6818004B4B4B
S214002B3098470300DBB2013BDAB20F23FB181A708A
S214002B4066E0FB1D00221A70BB1D06221A703BE0D1
S214002B50BB1D1A78FB1D1B78D3185A107B1D1A70E4
S214002B607B1D1A783E4BD200D35C1A000F23FB184D
S214002B701B785BB29A4208D17B1D1B78384ADB0073
S214002B80D31804331B68BB6024E07B1D1A78344BD3
S214002B90D200D35C1A000F23FB181B785BB29A4254
S214002BA009DAFB1D7A1D127801321A70BB1DBA1D98
S214002BB012781A7008E0BB1D7A1D1278013A1A7056
S214002BC0FB1DFA1D12781A70BA1DFB1D12781B78B1
S214002BD09A42BDD2BB68013304D01D4B1B68BA684D
S214002BE0100098470F23FB181B785BB201229A400F
S214002BF01300DB433A6813403B603B681800174BF2
S214002C0098470300DBB2013BDAB20F23FB181A70B9
S214002C100F23FB181B785BB2013392D1094B1800C7
S214002C20094B984703003B603B68064A19001000B2
S214002C30064B98473B68002B00D076E7C046BD465B
S214002C4004B080BD00240040A7270000BB2700007A
S214002C50640C00200CF2010079230000859B010023
S214002C60DCF1010080B500AF024B9847C046BD4678
S214002C7080BDC046F12A000080B584B000AFF86081
S214002C807A600B23FB180A1C1A700B23FB181A78A1
S214002C90FB68083292007968D150C046BD4604B041
S214002CA080BD000080B500AF194A1A4B00211800FD
S214002CB0194B9847164A174B01211800164B984790
S214002CC0164A144B02211800134B9847144A114B0E
S214002CD003211800104B98470D4A0E4B042118008C
S214002CE00D4B98470A4A0B4B052118000A4B98478C
S214002CF0074A084B06211800074B9847044A054B1D
S214002D0007211800044B9847C046BD4680BDC04604
S214002D100601010000180040792C00000611010091
S214002D200301010080B582B000AF78600A00FB1C8A
S214002D301A707B68FA1C12781A71C046BD4602B03B
S214002D4080BD80B582B000AF78600A00FB1C1A70A8
S214002D507B68FA1C12785A71C046BD4602B080BD28
S214002D6080B582B000AF78600A00FB1C1A707B68E2
S214002D70FA1C12789A71C046BD4602B080BD0000AB
S214002D8080B582B000AF0A4B7B607B6808211800D4
S214002D90084B98477B6804211800074B98477B68C8
S214002DA001211800054B9847C046BD4602B080BDBD
S214002DB000040040612D0000432D0000252D00007A
S214002DC080B582B000AF786039607B683A681A6177
S214002DD0C046BD4602B080BD80B582B000AF786008
S214002DE039607B683A685A61C046BD4602B080BD0D
S214002DF080B582B000AF78607B68DB680122134044
S214002E005A1E9341DBB21800BD4602B080BD0000DA
S214002E1080B582B000AF0F4B7B60BB1C00221A80CF
S214002E207B68562118000C4B9847C0467B681800F4
S214002E300A4B984703001A0001235340DBB2002BCD
S214002E40F4D17B6804211800054B9847C046BD4660
S214002E5002B080BD00100040D92D0000F12D00000A
S214002E60C12D000080B582B000AF78607B681B7D06
S214002E70DBB2802252421343DAB27B681A75C04630
S214002E80BD4602B080BD80B582B000AF78600A0053
S214002E90FB1C1A707B68FA1C12781A75C046BD4671
S214002EA002B080BD80B582B000AF78607B68DB681A
S214002EB01B09012213405A1E9341DBB21800BD467F
S214002EC002B080BD80B582B000AF0D4B7B607B68E2
S214002ED08E2118000B4B9847C0467B6818000A4B9B
S214002EE0984703001A0001235340DBB2002BF4D1AD
S214002EF07B681800054B9847C046BD4602B080BDAB
S214002F00000C0040872E0000A52E0000652E000055
S214002F1080B582B000AF034B7B60C046BD4602B0B2
S214002F2080BDC046000C004080B582B000AF78601F
S214002F307B689B79DBB21800BD4602B080BD80B5C9
S214002F4082B000AF78600A00FB1C1A707B68FA1C1F
S214002F5012789A71C046BD4602B080BD80B584B076
S214002F6000AF78600A00FB1C1A700F23FB187A6803
S214002F7092781A700F23FB18FA1C1B7812781340ED
S214002F80DAB20F23FB1803210A401A700F23FB182E
S214002F901B781800BD4604B080BD80B584B000AF75
S214002FA078600A00FB1C1A700F23FB187A68927868
S214002FB01A700F23FB180F22BA18127803218A43BF
S214002FC01A70FB1C1B7803221340D9B20F23FB1880
S214002FD00F22BA1812780A431A707B680F22BA18A2
S214002FE012789A70C046BD4604B080BD80B582B0E7
S214002FF000AF0200FB1D1A708023DB05FF211800BE
S214003000104B98478023DB05032118000E4B98478A
S21400301003001A00FB1D1B78934207D0FB1D1A788D
S2140030208023DB0511001800084B9847C046802314
S214003030DB051800064B9847031EF8D0C046BD4671
S21400304002B080BD3F2F00005D2F00009B2F0000C8
S214003050292F000080B582B000AF78603960C04686
S2140030607B68DB693A681340FAD1C046BD4602B0B9
S21400307080BD80B582B000AF786039607B68DB6960
S2140030803A6813405A1E9341DBB21800BD4602B0A0
S21400309080BD80B582B000AF78603960C0467B687E
S2140030A0DB693A681340FAD1C046BD4602B080BD1F
S2140030B080B584B000AF78600A00FB1C1A700F233E
S2140030C0FB187A68127E1A700F23FB180F22BA18A4
S2140030D0F91C127809780A401A700F23FB181B781F
S2140030E01800BD4604B080BD80B582B000AF7860E1
S2140030F07B681B7EDBB21800BD4602B080BD80B583
S21400310082B000AF78600A00FB1C1A707B68FA1C5D
S21400311012781A76C046BD4602B080BD80B582B031
S21400312000AF78607B6801211800064B98477B68E3
S2140031301B6801221A437B681A60C046BD4602B06F
S21400314080BDC0465530000080B584B000AF7860C2
S2140031507B6803211800094B98477B681B68FB6057
S214003160FB685B0801221340FB60FB685A1E934114
S214003170DBB21800BD4604B080BDC0465530000026
S21400318080B582B000AF786039607B683A681A60B4
S214003190C046BD4602B080BD80B582B000AF786044
S2140031A039607B683A685A60C046BD4602B080BD4A
S2140031B080B582B000AF78600A00FB1C1A707B688E
S2140031C0FA1C12781A73C046BD4602B080BD80B5A0
S2140031D082B000AF786039607B683A685A62C04651
S2140031E0BD4602B080BD80B582B000AF78607B6817
S2140031F09B6A1800BD4602B080BD80B582B000AFA5
S214003200786039607B683A689A62C046BD4602B00C
S21400321080BD80B582B000AF78600A00FB1C1A70D3
S2140032207B68FA1C302112785A54C046BD4602B05C
S21400323080BD80B582B000AF78600A00BB1C1A80E3
S2140032407B68BA1C12885A83C046BD4602B080BD51
S21400325080B582B000AF78600A00BB1C1A807B681D
S214003260BA1C12889A81C046BD4602B080BD80B5A1
S21400327082B000AF78607B681B7EDBB21A00012349
S21400328013405A1E9341DBB21800BD4602B080BD03
S21400329080B582B000AF78607B681B7EDBB29B088F
S2140032A0012213405A1E9341DBB21800BD4602B0FD
S2140032B080BD000080B582B000AF78607B680121D9
S2140032C01800064B98477B681B6801221A437B68E8
S2140032D01A60C046BD4602B080BDC04693300000AE
S2140032E080B582B000AF78607B6803211800064B7B
S2140032F098477B681B6802221A437B681A60C046A0
S214003300BD4602B080BDC0469330000080B584B094
S21400331000AF78607B6803211800094B98477B68EC
S2140033201B68FB60FB685B0801221340FB60FB68C0
S2140033305A1E9341DBB21800BD4604B080BDC0469D
S2140033409330000080B584B000AF78600A00FB1CA4
S2140033501A707B68032118000B4B98477B681B6824
S214003360FB60FB6802229343FB60FB1C1B785B0040
S2140033701A00FB681343FB607B68FA681A60C04655
S214003380BD4604B080BDC0469330000080B582B014
S21400339000AF78607B6803211800064B98477B686F
S2140033A01B68022293431A007B681A60C046BD461B
S2140033B002B080BD9330000080B582B000AF786068
S2140033C039607B683A681A60C046BD4602B080BD68
S2140033D080B582B000AF786039607B683A685A6022
S2140033E0C046BD4602B080BD80B582B000AF7860F2
S2140033F00A00FB1C1A707B68FA1C12789A73C04687
S214003400BD4602B080BD80B582B000AF78607B68F4
S2140034101B8D9BB21800BD4602B080BD80B582B041
S21400342000AF78600A00BB1C1A807B68BA1C128842
S2140034301A85C046BD4602B080BD80B582B000AFDA
S21400344078600A00FB1C1A707B68FA1C3021127820
S2140034505A54C046BD4602B080BD000080B582B05A
S21400346000AF786039607B685A1E9341DBB208492A
S214003470BF221800074B98477B683A681A603B687B
S2140034801800054B984703001800BD4602B080BDE3
S21400349034F20100792300002936000080B582B09E
S2140034A000AF78607B681B681800034B9847C046DF
S2140034B0BD4602B080BDC046E132000080B582B095
S2140034C000AF786039607B681B683A6811001800A6
S2140034D0024B9847C046BD4602B080BDE1370000AB
S2140034E080B582B000AF78600A00FB1C1A707B685B
S2140034F01A68FB1C1B789BB219001000024B9847F9
S214003500C046BD4602B080BD1D34000080B582B006
S21400351000AF78607B681B681800044B9847030070
S214003520DBB21800BD4602B080BDC04607340000BE
S21400353080B582B000AF78607B681B681800034BCC
S214003540984703001800BD4602B080BD6F320000E9
S21400355080B582B000AF78607B681B681800034BAC
S214003560984703001800BD4602B080BD91320000A7
S21400357080B582B000AF78607B68084A934201D17C
S214003580052306E07B68BE221206944663449B0A27
S214003590DBB21800BD4602B080BDC0460004004342
S2140035A090B585B000AF78600E23FC187B681800D5
S2140035B0194B9847030023700F23FB1800221A703C
S2140035C018E00F23FB181A78144913009B009B1869
S2140035D09B005B5C0E22BA1812789A4203D10F2326
S2140035E0FB181B7813E00F23FB181A780F23FB1821
S2140035F001321A700F23FB181B78002BE1D09123A1
S2140036009A00074B19000020064B98470023180025
S214003610BD4605B090BDC04671350000D400002000
S21400362034F201007923000090B585B000AF7860D1
S2140036300F23FC187B6818005F4B98470300237025
S2140036407B68012118005D4B98477B6818005C4B2F
S2140036509847031E02D011235B42A8E07B6818003F
S214003660584B98477B6801211800544B98470F2306
S214003670FB181A78544913009B009B189B00CB1824
S21400368004331A687B6811001800504B98470F23C4
S214003690FB181A784C4913009B009B189B00CB180C
S2140036A008331A687B6811001800494B98470F23A7
S2140036B0FB181A78444913009B009B189B00CB18F4
S2140036C004331A6880239B0113400ED10F23FB1886
S2140036D01A783D4913009B009B189B00CB180433B7
S2140036E01A68C023DB01134030D00F23FB181A786A
S2140036F0354913009B009B189B00CB180C331B8886
S214003700DB04DB0C99B27A689389C904C80C5B0B9E
S2140037105B03191C031C0B4393810F23FB181A78B9
S214003720294913009B009B189B00CB180E331B786F
S2140037301A1C07231340D9B27A6893894803DB041E
S214003740DB0C191C031C0B4393810FE00F23FB18A3
S2140037501A781D4913009B009B189B00CB180C334E
S2140037601A887B68110018001A4B98470F23FB181D
S2140037701A78154913009B009B189B00CB180F3333
S2140037801A787B6811001800134B98470F23FB1814
S2140037901A780D4913009B009B189B00CB1810331A
S2140037A01A787B68110018000C4B98470023180005
S2140037B0BD4605B090BDC046A13500009330000060
S2140037C00D330000B5320000D4000020B9330000ED
S2140037D0D133000051320000E93300003B340000D2
S2140037E090B585B000AF786039600F23FC187B6811
S2140037F01800154B9847030023707B681800134B7E
S21400380098470823FB181800114B98477B6802213D
S2140038101800104B98473B689AB27B681100180056
S2140038200D4B98470823FB1818000C4B98470F239E
S214003830FB181A787B6811001800094B9847C04699
S214003840BD4605B090BDC0460D3300008D33000068
S214003850251B00009330000051320000471B00007B
S2140038604533000080B582B000AF786039607B6871
S214003870002B04D03B68002B01D0012300E000237E
S2140038801A1C01231340D8B28E231A011F4B1900AD
S2140038901F4B98473B681A78597809020A4399786B
S2140038A009040A43DB781B0613431A00194B1A4017
S2140038B07B6811001800184B98473B681A795979AD
S2140038C009020A43997909040A43DB791B06134364
S2140038D01A00124B1340802292021A437B68110092
S2140038E018000F4B98473B681A7B7B68110018003E
S2140038F00C4B98473B685A7B7B68110018000A4BB4
S2140039009847C046BD4602B080BDC04634F20100AE
S21400391079230000FCFEFFFF81310000BF1DFDFF84
S21400392099310000B13100001332000080B582B03A
S21400393000AF786039607B68002B04D03B68002BB2
S21400394001D0012300E000231A1C01231340DBB240
S214003950294A2A4918002A4B98473B681A7859780A
S21400396009020A43997809040A43DB781B061343C5
S2140039701A00244B1A407B6811001800224B984707
S2140039803B681A79597909020A43997909040A4366
S214003990DB791B0613431A001C4B13401C4A1A43C0
S2140039A07B68110018001B4B98473B681A7A597AB7
S2140039B009020A43997A09040A43DB7A1B06134371
S2140039C01A007B6811001800134B98473B685A7B17
S2140039D07B6811001800114B9847C04601235A42D5
S2140039E07B68110018000E4B9847031EF6D1C046A0
S2140039F0BD4602B080BDC046F408000034F20100A7
S214003A0079230000FCFEFFFF81310000BFDDFDFFD3
S214003A104002020099310000CF310000133200004E
S214003A207330000090B585B000AF78607B680E22DA
S214003A30BC181800144B9847030023700F23FB187C
S214003A4000221A7015E005220E23FB181B789342FD
S214003A5008D10F23FB181A7813001B019B180B4A7A
S214003A609B180CE00F23FB181A780F23FB18013263
S214003A701A700F23FB181B78002BE4D000231800C5
S214003A80BD4605B090BDC0467135000060F201002D
S214003A9080B584B000AF786039603B6818003A4B58
S214003AA098470300FB607B68002B04D03B68002B24
S214003AB001D0012300E000231A1C01231340DBB2CF
S214003AC0324A33491800334B9847FB68002B02D123
S214003AD00D235B4253E03B68012118002E4B9847AC
S214003AE03B6818002D4B9847031E02D011235B42FB
S214003AF045E03B6818002A4B98473B6801211800B0
S214003B00254B98477B683A681A60FB681A7859789C
S214003B1009020A43997809040A43DB781B06134313
S214003B201A001C231340082B06D1FA683B681100C4
S214003B3018001C4B984705E0FA683B68110018000F
S214003B40194B9847FB681A79597909020A439979FB
S214003B5009040A43DB791B0613431A0007231340A4
S214003B6001D1012200E002227B681A71FB689A7B71
S214003B70DB7B1B0213439AB27B68DA8000231800B3
S214003B80BD4604B080BDC046253A000016090000B8
S214003B9034F201007923000055300000493100005E
S214003BA01D3100002D3900006538000080B582B058
S214003BB000AF7860C0467B6803211800064B984724
S214003BC0031EF8D07B6803211800044B9847C046B4
S214003BD0BD4602B080BDC046B1300000FF300000D8
S214003BE080B586B000AFF860B9607A60BB68042222
S214003BF0134001D1002324E0FB681800134B9847BC
S214003C0003007B617B685B68002B14D07B685B6875
S214003C10591C7A6851607A69D2B21A707B681B7C2C
S214003C20012B08D97B685B68591C7A6851607A69F1
S214003C30120AD2B21A707B68DB685A1C7B68DA609C
S214003C4001231800BD4606B080BDC046E73100001F
S214003C5080B586B000AFF860B9607A601A00BB1C09
S214003C601A80BB68012213402BD07B681B68002B90
S214003C7018D07B681B68591C7A6811601B787B61BA
S214003C807B681B7C012B10D97B681B681B781B028A
S214003C901A007B6913437B617B681B685A1C7B6830
S214003CA01A6002E0BB1C1B887B617B689B685A1C01
S214003CB07B689A607A69FB6811001800034B984786
S214003CC000E0C046BD4606B080BDC046FB310000E1
S214003CD080B582B000AF786039607B688022134080
S214003CE00DD0094A3B6811001800084B98473B68FE
S214003CF080211800064B984713235B4200E0002300
S214003D001800BD4602B080BDFFFF00003332000041
S214003D10FF30000090B58BB000AF786039607B68EC
S214003D201B683B6200237B623B681A680823FB180B
S214003D301A603B685A680823FB185A600823FB1869
S214003D4000229A600823FB180022DA607B681A7942
S214003D500823FB181A747B68002B04D03B6A002BE0
S214003D6001D0012300E000231A1C01231340DBB21C
S214003D70344A35491800354B98473B6A07211800E6
S214003D80334B9847031E02D004235B4255E03B6A40
S214003D901800304B984703001A0001235340DBB24B
S214003DA0002B02D014235B4247E03B6A18002A4BE4
S214003DB098470300FB610823FA18F9693B6A180064
S214003DC0264B984703001A0001235340DBB2002B12
S214003DD00FD00823FB18DA680823FB189B689A4262
S214003DE007D37B68DB880822BA18F969386A1C4C46
S214003DF0A0473A6AFB69110018001A4B984703005F
S214003E007B627B6A002B12DB0823FB189A683B68F0
S214003E109B689A42C9D30823FB18DA683B689B68FC
S214003E209A42C2D30823FB189B687B6200E0C04618
S214003E303B6A18000C4B98477B6A1800BD460BB0CF
S214003E4090BDC046720A000034F2010079230000DB
S214003E507330000049310000E9300000E13B00000B
S214003E60513C0000D13C0000AD3B000080B582B064
S214003E7000AF7860044B054A5A60034B05221A606F
S214003E80C046BD4602B080BD10E000E0FFFFFF0068
S214003E9080B582B000AF78607B681800024B984708
S214003EA0C046BD4602B080BD6D3E000080B584B001
S214003EB000AF786039603B681A0E0F23FB181A7043
S214003EC03B68BB6011E0164B164A5A60144B154A05
S214003ED09A60C046124B1A6880235B021340F9D0E2
S214003EE0BB68114A94466344BB600F23FB181B78DB
S214003EF00F22BA18591E1170002BE4D1084BBA686D
S214003F005A60074BBA689A60C046054B1A68802309
S214003F105B021340F9D0C046BD4604B080BDC04623
S214003F2010E000E0FFFFFF00010000FF80B582B058
S214003F3000AF0200FB1D1A70064BFA1D1278110026
S214003F401F220A40012191400A001A60C046BD4661
S214003F5002B080BD00E100E080B582B000AF7860BE
S214003F607B685B69802252001A437B685A61C046B0
S214003F70BD4602B080BD80B582B000AF78603960C3
S214003F80C0467B681B693A681340FAD1C046BD46F6
S214003F9002B080BD80B582B000AF78607B688022BA
S214003FA052005A81C046BD4602B080BD80B582B080
S214003FB000AF78607B68802252009A81C046BD467A
S214003FC002B080BD80B582B000AF78607B68034ADF
S214003FD09A81C046BD4602B080BDC0460080FFFF45
S214003FE080B582B000AF78607B689B899BB2180072
S214003FF0BD4602B080BD000080B582B000AF7860DC
S214004000084A7B6811001800074B98477B681B8896
S2140040109BB2022213439AB27B681A80C046BD4602
S21400402002B080BD03800000773F000080B582B0FC
S21400403000AF78600A00BB1C1A807B68BA1C128826
S2140040401A80C046BD4602B080BD80B582B000AFC3
S214004050786039607B683A685A60C046BD4602B0F0
S21400406080BD80B582B000AF786039607B683A6802
S2140040709A61C046BD4602B080BD80B582B000AF32
S21400408078607B689B691800BD4602B080BD80B52D
S21400409084B000AFF8607A600B23FB180A1C1A7015
S2140040A00B23FB181A78FB68083292007968D15007
S2140040B0C046BD4604B080BD80B500AF1D4B18009D
S2140040C01D4B98471D4B012118001D4B98471B4B55
S2140040D0012118001B4B984780231B02174A190022
S2140040E01000174B984780235B00144A19001000F5
S2140040F0154B984701235B4210481A000021134BCA
S21400410098470E4B1800124B98470220114B9847C1
S2140041100A4B00211800104B9847084B082118003E
S214004120084B9847054B18000C4B9847C046BD46B1
S21400413080BDC04600040040593F000000200040FB
S2140041402D400000773F00004B4000008F400000ED
S214004150953F00002D3F000063400000F93F00003F
S21400416080B582B000AF7860034B7A681A60C046AC
S214004170BD4602B080BDC046680C002080B582B047
S21400418000AF7860034B7A681A60C046BD4602B03E
S21400419080BDC0466C0C002080B584B000AF78604F
S2140041A07B6813481A000021124B9847124A104B9E
S2140041B011001800114B98470D4B1800104B9847EC
S2140041C00300FB607A68FB68D31A013B0D4A9342F2
S2140041D001D9002307E07A68FB68D31A092B01D8B7
S2140041E0002300E001231800BD4604B080BDC04691
S2140041F0002000408F4000002F800000773F000026
S2140042007B400000FEFFFF7F80B500AF064B082115
S2140042101800064B9847044B1800054B98470300B8
S2140042201800BD4680BDC04600200040773F000015
S2140042307B40000090B583B000AFBC1D154B180046
S214004240154B984703002380BB1D1A8880235B000C
S21400425013400BD00F4B1800104B9847104B1B68A1
S214004260002B13D00E4B1B6898470FE0BB1D002297
S2140042709B5E002B0ADA074B18000A4B98470A4B3E
S2140042801B68002B02D0084B1B689847C046BD46EB
S21400429003B090BD00200040E13F0000AD3F0000AD
S2140042A0680C0020C53F00006C0C002080B500AFF5
S2140042B0084B1B68084A5343084A9A18054B1A606D
S2140042C0044B1A68064B0749100098470B00180065
S2140042D0BD4680BDE80000206D4EC6413930000066
S2140042E061770100FFFFFF7F80B582B000AF786086
S2140042F0034B7A681A60C046BD4602B080BDC04611
S214004300E800002080B582B000AF78603960084BC6
S21400431098473A687B68D31A5A1C064B1100984790
S2140043200B001A007B68D3181800BD4602B080BD8B
S214004330AD4200003579010080B584B000AFF8606A
S214004340B960BB1D1A8007E0FB685A1CFA60BA68A1
S214004350511CB96012781A70BB1D1B88BA1D591EF5
S2140043601180002BF0D1C046BD4604B080BD80B59C
S21400437084B000AFF860B960BB1D1A80BB1D1B88F7
S214004380013BFA68D318FB6007E0FB685A1EFA6028
S214004390BA68511CB96012781A70BB1D1B88BA1D0A
S2140043A0591E1180002BF0D1C046BD4604B080BD1A
S2140043B080B582B000AF786008001100FB1C021CBC
S2140043C01A703B000A1C1A8005E07B685A1C7A604B
S2140043D0FA1C12781A703B001B883A00591E11808E
S2140043E0002BF2D1C046BD4602B080BD80B500AFFE
S2140043F00D4B1B7801225340DBB2002B11D00B4B28
S21400440098470B4B18000B4B98470B4B18000B4B61
S21400441098470B4B00229A600A4B9847024B0122A2
S2140044201A70C046BD4680BD700C0020B940000022
S214004430F146000061410000194700007D41000080
S214004440740C00204944000080B500AF044B984728
S2140044500200044B1A60034B1B681800BD4680BD63
S21400446009420000740C002080B500AF024B1B68A8
S2140044701800BD4680BDC046740C002080B500AF55
S21400448003231800BD4680BD80B582B000AF7860BB
S2140044907B681800BD4602B080BD80B584B000AF12
S2140044A078607B689B0AFB607B689B059B0D7B6046
S2140044B0FB68FA2292005A437B68FA2189004B4334
S2140044C09B0AD3181800BD4604B080BD80B582B0E4
S2140044D000AF78607B681800024B9847C046BD4620
S2140044E002B080BDFD44000080B500AF024B002244
S2140044F09A60C046BD4680BD740C002080B584B06E
S21400450000AF78600C23FB181800194B9847194B1E
S2140045109847194B7A685A60184B01221A70184B44
S21400452000221A70144B01229A60134B1A68124B21
S2140045305B68D3181800134B984703001A00012332
S2140045405340DBB2002B0AD00C4B1B78DBB2002B9F
S21400455005D00B4B01221A70084B00221A700C2350
S214004560FB181800084B9847C046BD4604B080BDEF
S214004570B9130000E9440000740C0020710C002000
S214004580720C002099410000D713000080B500AFE0
S214004590024B984703001800BD4680BD0942000044
S2140045A080B500AF044B98470200044B1B68D31A33
S2140045B01800BD4680BDC04609420000740C0020AD
S2140045C080B586B000AF786000237B610B4B9847C0
S2140045D003003B613B699B0AFB603B699B059B0DA7
S2140045E07B617B691800064B984703009AB27B688C
S2140045F01A80FB681800BD4606B080BD0942000060
S2140046009B44000080B584B000AF786039600C230E
S214004610FB181800084B9847084B7A681A60074B37
S2140046203A685A600C23FB181800054B9847C0469A
S214004630BD4604B080BDC046B9130000800C002003
S214004640D713000080B584B000AF786039600C23C3
S214004650FB181800094B9847094B1A687B681A60C4
S214004660074B5A683B681A600C23FB181800054B6A
S2140046709847C046BD4604B080BDC046B91300008A
S214004680800C0020D713000080B582B000AF3B1D21
S2140046901800114B9847114B9B68012B13D1104BF8
S2140046A01B78DBB2002B0ED00E4B984702000B4B4C
S2140046B05B689A4207D3094B00229A60084B002297
S2140046C01A70094B98473B1D1800084B9847C04680
S2140046D0BD4602B080BDC046B9130000740C002071
S2140046E0720C0020A1450000E56E0100D713000003
S2140046F080B500AF054B00229A60054B00221A7069
S214004700044B9847C046BD4680BDC046740C00208A
S214004710710C0020E56E010080B500AFC046BD46B6
S21400472080BD80B584B000AFF8607A600B23FB18BC
S2140047300A1C1A700B23FB181A78FB6820329200AA
S2140047407968D150C046BD4604B080BD80B582B001
S21400475000AF78607B681B6A02221A437B681A6285
S214004760C046BD4602B080BD80B584B000AFF860DC
S2140047707A600B23FB180A1C1A700B23FB181B7895
S214004780FA68DB01D31808337A681A60C046BD465B
S21400479004B080BD80B584B000AFF8607A600B23AB
S2140047A0FB180A1C1A700B23FB181B78FA68DB012F
S2140047B0D31804337A681A60C046BD4604B080BD7C
S2140047C080B584B000AFF8607A600B23FB180A1C33
S2140047D01A700B23FB181B78FA68DB01D318183302
S2140047E07A681A60C046BD4604B080BD80B584B005
S2140047F000AFF8607A600B23FB180A1C1A700B23B4
S214004800FB181B78FA68DB01D31814337A681A6031
S214004810C046BD4604B080BD80B584B000AFF86029
S2140048207A600B23FB180A1C1A700B23FB181B78E4
S214004830FA68DB01D31828337A681A60C046BD468A
S21400484004B080BD90B585B000AF78600C00100055
S2140048501900FB1C221C1A70BB1C021C1A707B1C45
S2140048600A1C1A70FB1C1978BB1C1A780F23FB183D
S21400487078683024C90141188A18121912781A70FB
S2140048800F23FB180F22BA1812780F218A431A70CA
S2140048907B1C1B780F221340D9B20F23FB180F2264
S2140048A0BA1812780A431A70FB1C1A78BB1C1B78BD
S2140048B079683020D2018A18D3181B180F22BA182C
S2140048C012781A70C046BD4605B090BD90B585B04A
S2140048D000AF78600C0010001900FB1C221C1A7038
S2140048E0BB1C021C1A707B1C0A1C1A70FB1C197855
S2140048F0BB1C1A780F23FB1878683024C9014118AE
S2140049008A18121912781A700F23FB180F22BA1879
S21400491012780F210A401A707B1C1B781B01D9B233
S2140049200F23FB180F22BA1812780A431A70FB1CC2
S2140049301A78BB1C1B7879683020D2018A18D318E5
S2140049401B180F22BA1812781A70C046BD4605B05A
S21400495090BD90B585B000AF78600C0010001900CF
S214004960FB1C221C1A70BB1C021C1A707B1C0A1C27
S2140049701A70FB1C1978BB1C1A780F23FB18786872
S2140049804024C90141188A18121912781A700F2388
S214004990FB180F22BA18127801218A431A707B1C62
S2140049A019780F23FB180F22BA1812780A431A70C8
S2140049B0FB1C1A78BB1C1B7879684020D2018A1829
S2140049C0D3181B180F22BA1812781A70C046BD46A4
S2140049D005B090BDB0B582B000AF78600800110099
S2140049E0FB1C021C1A70BB1C0A1C1A70FB1C1A78D3
S2140049F0BB1C1B78F91C0878B91C09787C68402514
S214004A00C0012018411849190978C9B20420014389
S214004A10CCB279684020D2018A18D3181B18221C01
S214004A201A70C046BD4602B0B0BDB0B582B000AF89
S214004A30786008001100FB1C021C1A70BB1C0A1CC4
S214004A401A70FB1C1A78BB1C1B78F91C0878B91C5A
S214004A5009787C684025C001201841184919097852
S214004A60C9B204208143CCB279684020D2018A18AA
S214004A70D3181B18221C1A70C046BD4602B0B0BD23
S214004A8080B582B000AF78603960C0467B68DB696D
S214004A903A681340FAD1C046BD4602B080BD80B524
S214004AA082B000AF78607B681B7EDBB21800BD4624
S214004AB002B080BD80B582B000AF78600A00FB1CF3
S214004AC01A707B68FA1C12781A76C046BD4602B089
S214004AD080BD000080B582B000AF78607B680121A1
S214004AE01800064B98477B681B6801221A437B68B0
S214004AF01A60C046BD4602B080BDC046814A00006E
S214004B0080B582B000AF78607B6803211800064B42
S214004B1098477B681B6802221A437B681A60C04667
S214004B20BD4602B080BDC046814A000080B582B056
S214004B3000AF786039607B683A681A60C046BD4648
S214004B4002B080BD80B582B000AF786039607B6807
S214004B503A685A60C046BD4602B080BD80B582B095
S214004B6000AF78600A00FB1C1A707B68FA1C12788B
S214004B701A73C046BD4602B080BD80B582B000AF95
S214004B8078607B689B6A1800BD4602B080BD80B521
S214004B9082B000AF786039607B683A689A62C04637
S214004BA0BD4602B080BD80B582B000AF78600A0016
S214004BB0FB1C1A707B68FA1C302112785A54C046C7
S214004BC0BD4602B080BD000080B582B000AF39603F
S214004BD01100FB1D021C1A70BB1D0A1C1A70BB1D9F
S214004BE01B78012B23D0022B3FD0002B5DD13A68D7
S214004BF0FB1D1978C023DB051800314B98473B682E
S214004C001B041B0C8022D2051A43FB1D1B782D4863
S214004C1019002D4B98473B681B0CC02212061A43FE
S214004C20FB1D1B7827481900274B984743E03A6836
S214004C30FB1D1978C023DB051800214B98473B68FD
S214004C401B041B0C214A1A43FB1D1B781D48190028
S214004C501D4B98473B681B0C1D4A1A43FB1D1B78CF
S214004C6018481900184B984725E03A68FB1D197834
S214004C70C023DB051800174B98473B681B041B0C2A
S214004C808022D2051A43FB1D1B780E4819000E4BD6
S214004C9098473B681B0CC02212061A43FB1D1B7864
S214004CA008481900084B984705E00B4B4E221900A0
S214004CB000200A4B9847C046BD4602B080BDC0469D
S214004CC095470000002800401948000000000240F8
S214004CD0000002C06947000074F20100792300005A
S214004CE080B582B000AF39601100FB1D021C1A703F
S214004CF0BB1D0A1C1A70BB1D1B78002B08D03A6817
S214004D00FB1D1978C023DB051800074B984707E002
S214004D103A68FB1D1978C023DB051800034B98473B
S214004D20C046BD4602B080BDC1470000ED4700004A
S214004D3090B583B000AF040008001100FB1D221CD4
S214004D401A70BB1D021C1A707B1D0A1C1A707B1D74
S214004D501B78012B0CD0022B29D0002B46D1BB1D73
S214004D601A78FB1D1B7827481900274B984744E004
S214004D70BB1D1B7801229A40FB1D1978C023DB055A
S214004D801800224B9847BB1D1A78FB1D1B781D4840
S214004D9019001F4B9847BB1D1B7801229A40FB1D2C
S214004DA01978C023DB0518001A4B984725E0BB1D71
S214004DB01B7801229A40FB1D1978C023DB051800DA
S214004DC0124B9847BB1D1A78FB1D1B780D4819001F
S214004DD00F4B9847BB1D1B7801229A40FB1D197884
S214004DE0C023DB0518000C4B984706E00B4B9122BE
S214004DF0190000200A4B9847C046C046BD4603B07F
S214004E0090BDC046002800402B4A00009547000091
S214004E10D5490000C1470000ED47000074F20100CC
S214004E207923000090B585B000AF786039607B6864
S214004E305A090F23FB181A707B68DAB20E23FB1888
S214004E401F210A401A703B6801330AD10E23FB1853
S214004E501A780F23FB1819781B4800231B4CA04711
S214004E602EE00E23FB181A780F23FB181978164825
S214004E700123164CA0470E23FB181B780122134073
S214004E800FD00E23FB181B785B08DAB23B68D8B24B
S214004E900F23FB1819780C4C030020000C4CA0477D
S214004EA00EE00E23FB181B785B08DAB23B68D8B21C
S214004EB00F23FB181978044C03002000054CA0476C
S214004EC0C046BD4605B090BD0028004053490000CE
S214004ED0CD4800004548000080B582B000AF020013
S214004EE0FB1D1A70BB1D0A1C1A70FB1D1B785B0984
S214004EF0D8B2FB1D1B781F221340D9B2BB1D1B78EE
S214004F001A00034B9847C046BD4602B080BDC04657
S214004F10314D000080B582B000AF786039603A68E5
S214004F207B6811001800034B9847C046BD4602B088
S214004F3080BDC046254E000080B582B000AF02009E
S214004F40FB1D1A70BB1D0A1C1A70FB1D1B785B0923
S214004F50D8B2FB1D1B781F22134001229A40110075
S214004F60BB1D1B781A00034B9847C046BD4602B0CF
S214004F7080BDC046C94B000080B582B000AF0200BD
S214004F80FB1D1A70BB1D0A1C1A70FB1D1B785B09E3
S214004F90D8B2FB1D1B781F22134001229A40110035
S214004FA0BB1D1B781A00034B9847C046BD4602B08F
S214004FB080BDC046E14C000090B583B000AF78607D
S214004FC00C0010001900FB1C221C1A70BB1C021CD3
S214004FD01A707B1C0A1C1A70404B402218211800BD
S214004FE03F4B98473D4B4022172118003C4B9847B3
S214004FF03C4B18003C4B98473C4A3D4B1100180070
S2140050003C4B9847394B012118003B4B9847374B90
S21400501018003A4B9847354B01211800364B9847F5
S214005020374A324B11001800364B984780239B02B4
S2140050302E4A19001000344B98472C4B07211800B5
S214005040324B9847294B00211800314B98477B1C60
S2140050501B78012118002F4B98477B1C1B780021DA
S21400506018002D4B98477B1C1B785BB22B4A11000F
S21400507018002B4B9847BB1C1B7802211800254BA9
S2140050809847BB1C1B7800211800264B9847BB1C72
S2140050901B785BB2244A11001800214B984718234E
S2140050A0FB181B78022118001A4B98471823FB1888
S2140050B01B78002118001B4B98471823FB181B78F9
S2140050C05BB21A4A11001800154B9847074B180098
S2140050D0174B9847C046BD4603B090BD0018004029
S2140050E023470000000400404D4700000004004332
S2140050F05C1B0020711F0000814A0000D54A00009A
S2140051000C0001002D4B0000454B00005D4B0000DD
S214005110A74B0000394F0000D94E000002003000B7
S214005120154F0000794F00000300360003003700DB
S214005130014B000080B582B000AF78600A00BB1C4F
S2140051401A80C0461A4B18001A4B984703001A00DC
S21400515001231340DBB2002BF4D0154B01211800BD
S214005160154B9847BB1C1B88114A19001000134B9F
S2140051709847C0460E4B18000E4B984703001A007F
S21400518004231340DBB2002BF4D0094B0421180093
S214005190094B9847064B1800094B98470200BB1C62
S2140051A01A80BB1C1B881800BD4602B080BDC046D6
S2140051B0000400439F4A0000B54A00008F4B0000E1
S2140051C07B4B000090B585B000AF78600C001000F7
S2140051D01900FB1C221C1A70BB1C021C1A707B1CBC
S2140051E00A1C1A70FB1C1978BB1C1A780F23FB18B4
S2140051F078683024C90141188A18121912781A7072
S2140052000F23FB180F22BA1812780F218A431A7040
S2140052107B1C1B780F221340D9B20F23FB180F22DA
S214005220BA1812780A431A70FB1C1A78BB1C1B7833
S21400523079683020D2018A18D3181B180F22BA18A2
S21400524012781A70C046BD4605B090BD90B585B0C0
S21400525000AF78600C0010001900FB1C221C1A70AE
S214005260BB1C021C1A707B1C0A1C1A70FB1C1978CB
S214005270BB1C1A780F23FB1878683024C901411824
S2140052808A18121912781A700F23FB180F22BA18F0
S21400529012780F210A401A707B1C1B781B01D9B2AA
S2140052A00F23FB180F22BA1812780A431A70FB1C39
S2140052B01A78BB1C1B7879683020D2018A18D3185C
S2140052C01B180F22BA1812781A70C046BD4605B0D1
S2140052D090BD90B585B000AF78600C001000190046
S2140052E0FB1C221C1A70BB1C021C1A707B1C0A1C9E
S2140052F01A70FB1C1978BB1C1A780F23FB187868E9
S2140053004024C90141188A18121912781A700F23FE
S214005310FB180F22BA18127801218A431A707B1CD8
S21400532019780F23FB180F22BA1812780A431A703E
S214005330FB1C1A78BB1C1B7879684020D2018A189F
S214005340D3181B180F22BA1812781A70C046BD461A
S21400535005B090BD90B585B000AF786039607B68C9
S2140053605A090F23FB181A707B68DAB20E23FB1853
S2140053701F210A401A703B6801330AD10E23FB181E
S2140053801A780F23FB1819781B4800231B4CA047DC
S2140053902EE00E23FB181A780F23FB1819781648F0
S2140053A00123164CA0470E23FB181B78012213403E
S2140053B00FD00E23FB181B785B08DAB23B68D8B216
S2140053C00F23FB1819780C4C030020000C4CA04748
S2140053D00EE00E23FB181B785B08DAB23B68D8B2E7
S2140053E00F23FB181978044C03002000054CA04737
S2140053F0C046BD4605B090BD00280040D352000010
S2140054004D520000C551000080B582B000AF7860F4
S21400541039603A687B6811001800034B9847C0460D
S214005420BD4602B080BDC0465553000090B583B05F
S21400543002AF384801230193012300930023012281
S2140054401121354CA047354B98473548002301932A
S214005450002300930023002214212F4CA047A023F2
S2140054605B03190014202F4B98472F480023019305
S21400547000230093002300221521274CA047A823D1
S2140054805B0319001520274B9847284800230193F3
S21400549000230093002300222C211F4CA047B0239A
S2140054A09B0319002C201F4B98472148002301938B
S2140054B000230093002300222D21174CA047B4237D
S2140054C09B0319002D20174B98471A480023019379
S2140054D000230093002300222E210F4CA047B82360
S2140054E09B0319002E200F4B984713480023019367
S2140054F000230093002300222F21074CA047BC2343
S2140055009B0319002F20074B9847C046BD4601B0A5
S21400551090BDC046741C0020296A0100C91B00000B
S214005520041C002009540000101C00201C1C002035
S214005530281C0020341C0020401C002080B582B0AF
S21400554000AF78607B681B6819001420144B9847DE
S2140055507B6804331B6819001520114B98477B683D
S21400556008331B6819002C200D4B98477B680C33BA
S2140055701B6819002D200A4B98477B6810331B6860
S21400558019002E20064B98477B6814331B681900B9
S2140055902F20034B9847C046BD4602B080BDC0468C
S2140055A0251C000080B582B000AF0200FB1D1A70FB
S2140055B0C046BD4602B080BD80B500AF00231800CF
S2140055C0BD4680BD90B583B002AF01200F4B984713
S2140055D00F480023019300230093002301220A2191
S2140055E00C4CA04701200C4B984709480123019317
S2140055F000230093002300220A21064CA047062021
S214005600054B9847C046BD4601B090BDA555000065
S214005610F81B0020296A01000D6A010090B585B0CC
S21400562000AF0200FB1D1A700F23FB1800221A7031
S2140056300E23FB1800221A700F23FC1809206D4B4E
S2140056409847030023700E23FC184D20694B98479B
S214005650030023700F23FB181B785BB27F221340D6
S2140056605CB2654B8C229B581800644B984703002D
S2140056705BB223435AB20F23FB181A700F23FB1892
S2140056801B785BB2002B6BDAFB1D1B785BB2112B11
S21400569008DD0E23FB180E22BA18127807210A43DB
S2140056A01A700CE00E23FB181B785BB2072293439C
S2140056B05BB2042213435AB20E23FB181A700E2351
S2140056C0FB181B7807221340072B24D1FB1D1B78E1
S2140056D05BB2042B02DCFB1D05221A70FB1D1B7837
S2140056E05BB2142B02DDFB1D14221A700F23FB186D
S2140056F01B785BB20F2293435AB2FB1D1B78053B07
S214005700DBB25BB20F210B405BB213435AB20F23DE
S214005710FB181A705CE0FB1D1B785BB2012B02DCE9
S214005720FB1D02221A70FB1D1B785BB2112B02DDDB
S214005730FB1D11221A700F23FB181B785BB20F2279
S21400574093435AB2FB1D1B78023BDBB25BB20F21C0
S2140057500B405BB213435AB20F23FB181A7037E0A4
S214005760FB1D1B785BB2002B19DDFB1D1B785BB2A3
S2140057700F2B02DDFB1D0F221A700F23FB181B7860
S2140057805BB27F2293435BB2702213435AB2FB1D77
S2140057901B7813435AB20F23FB181A7018E0FB1D30
S2140057A01B785BB2043302DAFB1DFC221A700F234F
S2140057B0FB181B785BB27F2293435AB2FB1D1B7803
S2140057C00433DBB25BB213435AB20F23FB181A70D2
S2140057D00F23FB181B7819000920094B98470E2346
S2140057E0FB181B7819004D20054B9847C046BD4650
S2140057F005B090BD29420100F81B002005580000A6
S214005800FD41010080B582B000AF786080231800AB
S214005810BD4602B080BD000080B582B000AF020079
S214005820FB1D1A700D4B1B78FA1D12789A4211D088
S2140058300A4BFA1D12781A70FB1D1B780122534082
S214005840DBB2002B03D00120054B984702E0002076
S214005850034B9847C046BD4602B080BD880C00206A
S214005860A555000080B582B000AF0200FB1D1A707F
S214005870C046BD4602B080BD80B582B000AF78603D
S21400588001231800BD4602B080BD80B584B000AFCD
S214005890F8607A600B23FB180A1C1A700B23FB189F
S2140058A01A78FB68203292007968D150C046BD460F
S2140058B004B080BD80B582B000AF78607B68DB69DD
S2140058C008221A437B68DA61C046BD4602B080BD36
