S01400004C6F52614D61632D6E6F64652E73726563BE
S214000000F83D0020A97701003D7801003D78010009
S21400001000000000000000000000000000000000DB
S2140000200000000000000000000000003D78010015
S21400003000000000000000003D7801003D7801004F
S2140000403D7801003D780100512800008112000033
S2140000503D7801003D7801003D7801003D780100C3
S2140000603D7801003D7801003D7801003D780100B3
S2140000703D7801003D7801003D7801003D780100A3
S2140000803D7801003D7801003D7801003D78010093
S2140000903D7801003D7801003D7801003D78010083
S2140000A03D7801003D7801003D7801003D78010073
S2140000B00000000010B5064C2378002B07D1054B36
S2140000C0002B02D0044800E000BF0123237010BDBF
S2140000D0F80A002000000000E4050200084B10B5F6
S2140000E0002B03D00749084800E000BF0748036814
S2140000F0002B00D110BD064B002BFBD09847F9E72C
S21400010000000000FC0A0020E4050200E4050200EE
S2140001100000000080B582B000AF0200FB1D1A7020
S214000120C046BD4602B080BD80B500AF01231800B2
S214000130BD4680BD80B500AF01231800BD4680BD1A
S21400014080B584B000AF7860EFF31083FB60FA6888
S2140001507B681A6072B6BFF35F8FC046BD4604B0B8
S21400016080BD80B584B000AF7860BFF35F8F7B68DA
S2140001701B68FB60FB6883F31088C046BD4604B06E
S21400018080BD000080B582B000AF7860054B7A680D
S2140001901A60044B1B681800034B9847C046BD46C0
S2140001A002B080BD140B0020AD24000090B583B0D3
S2140001B000AF0200BB1D1A80074B1C68BB1D1B88C6
S2140001C01800064B9847030019002000044B984778
S2140001D0C046BD4603B090BD140B0020450C000081
S2140001E0C924000080B582B000AFBB1D00221A8073
S2140001F013E0BB1D1B880F4ADB00D3180433012213
S21400020052421A60BB1D1A880A4BD2000021D150F8
S214000210BB1D1A88BB1D01321A80BB1D1B88052B0F
S214000220E7D9054B1800054B984703001800BD4654
S21400023002B080BD180B002019040000610F0000FA
S21400024080B586B000AF786039601723FB180022AF
S2140002501A701623FB1800221A701523FB180022AA
S2140002601A701DE01723FB181B78694ADB00D318A9
S21400027004331A687B689A420BD11723FB181A7846
S214000280634BD2003968D1501523FB1801221A702F
S2140002900BE01723FB181A781723FB1801321A7085
S2140002A01723FB181B78052BDCD93B68002B11D1D4
S2140002B01523FB181B7801225340DBB2002B02D01B
S2140002C00D235B429FE07B6800211800514B984746
S2140002D0030098E01523FB181B7801225340DBB27D
S2140002E0002B00D17EE01723FB1800221A7023E0B3
S2140002F01723FB181A78464BD200D358002B14D17C
S2140003001723FB181A78424BD2003968D1501723AE
S214000310FB181B783E4ADB00D31804337A681A6051
S2140003201523FB1801221A700BE01723FB181A7806
S2140003301723FB1801321A701723FB181B78052B9E
S214000340D6D945E01723FB181B78314ADB00D318B3
S21400035004331A681623FB181B782D49DB00CB18CC
S21400036004331B689A422CD21623FB181B78284AA3
S214000370DB00D31804331B68013322D01623FB1886
S2140003801B780C22BA182249DB00CB1803CB03C219
S2140003901623FB181B781722BA1812781C48DB00A5
S2140003A01B49D200C3188A1803CA03C31723FB18B5
S2140003B01B78174ADB000C217918D3180A0003CAE9
S2140003C003C31623FB181A781623FB1801321A707B
S2140003D01623FB181B78052B04D81723FB181B784D
S2140003E0052BAFD91523FB181B7801225340DBB22F
S2140003F0002B02D00D235B4205E07B68012118002C
S214000400044B984703001800BD4606B080BDC046A2
S214000410180B00203110000080B584B000AF786063
S2140004200F23FB1800221A700E23FB1806221A70E0
S2140004304BE00E23FB181A780F23FB181B78D318F3
S2140004405A100D23FB181A700D23FB181B78244A2C
S214000450DB00D31804331A687B689A420FD10D2349
S214000460FB181A781E4BD200D358002B07D00D234A
S214000470FB181A781A4BD200D35898472DE00D2354
S214000480FB181B78164ADB00D31804331A687B68FF
S2140004909A420DD20F23FB180D22BA181278013299
S2140004A01A700E23FB180E22BA1812781A700CE077
S2140004B00E23FB180D22BA181278013A1A700F2371
S2140004C0FB180F22BA1812781A700E23FA180F2388
S2140004D0FB1812781B789A42ABD2BD4604B080BD9A
S2140004E0180B002080B584B000AFF860B960BB1D63
S2140004F01A80FB68002B04D0BB68002B01D00123B8
S21400050000E000231A1C01231340DBB208493E22F8
S2140005101800084B9847FB681B68BA1D1288B96814
S214000520F868984703001800BD4604B080BDC04672
S214000530A4ED01009509000080B584B000AFF86016
S214000540B960BB1D1A80FB68002B04D0BB68002B6B
S21400055001D0012300E000231A1C01231340DBB264
S214000560084947221800084B9847FB685B68BA1D85
S2140005701288B968F868984703001800BD4604B0AA
S21400058080BDC046A4ED01009509000080B584B08A
S21400059000AF786039600023FB607B68002B04D0D6
S2140005A03B68002B01D0012300E000231A1C012326
S2140005B01340DBB2114942221800114B98477B6862
S2140005C03A681A607B683A68110018000D4B984725
S2140005D00300FB60FB68002B01DAFB6809E07B6820
S2140005E0094A1A827B68094ADA607B68084A9A6078
S2140005F000231800BD4604B080BDC046D8ED0100FB
S21400060095090000AD2000000080FFFF15060000E1
S2140006107906000080B588B000AFF860B960BB1DF1
S2140006201A80FB685A1E9341DBB2104991221800CB
S2140006300F4B9847FB68083BFB611023FB18BA6812
S2140006405A601023FB1800221A60BB1D1A8810235C
S214000650FB189A601023FA18FB6911001800054B66
S214000660984703001800BD4608B080BDD8ED0100CD
S21400067095090000DD06000080B588B000AFF86080
S214000680B960BB1D1A80FB685A1E9341DBB2104945
S214000690AD2218000F4B9847FB68083BFB61102300
S2140006A0FB1800225A601023FB18BA681A60BB1D9C
S2140006B01A881023FB189A601023FA18FB69110099
S2140006C01800054B984703001800BD4608B080BDCB
S2140006D0D8ED010095090000DD06000080B586B063
S2140006E000AF786039607B68002B04D03B68002B35
S2140006F001D0012300E000231A1C01231340DBB2C3
S2140007000F49BD2218000F4B98473B681A680C2308
S214000710FB181A603B685A680C23FB185A603B6843
S2140007209A680C23FB189A607B680C22BA18110092
S2140007301800054B984703001800BD4606B080BD5C
S214000740D8ED0100950900003123000080B586B081
S21400075000AFF860B9607A60FB68002B04D0BB6815
S214000760002B01D0012300E000231A1C01231340B4
S214000770DBB20F493E2218000E4B9847FB68083341
S214000780BA68110018000C4B984703007B617B6920
S214000790002B01D07B6906E0FB68084A5A60FB68BC
S2140007A0074A1A6000231800BD4606B080BDC04642
S2140007B014EE010095090000791A0000F508000003
S2140007C04108000080B582B000AF78607B685A1E92
S2140007D09341DBB207495D221800074B98477B68B8
S2140007E008331800054B984700231800BD4602B092
S2140007F080BDC04614EE010095090000B91A00003D
S21400080080B582B000AF786039607B685A1E93412D
S214000810DBB208498A221800074B98477B680833E2
S2140008203A6811001800054B984700231800BD468B
S21400083002B080BD14EE010095090000D91A000030
S21400084080B586B000AFF860B960BB1D1A80002383
S2140008507B61FB683B61FB68002B08D0BB68002B04
S21400086005D0BB1D1B88002B01D0012300E0002310
S2140008701A1C01231340DBB21A49FB2218001A4B3C
S2140008809847C0463B6908331800184B9847030042
S2140008901A0001235340DBB2002BF3D13B69083327
S2140008A01800BA687B69D3181B781900104B984754
S2140008B0C0463B69083318000C4B984703001A00E3
S2140008C001235340DBB2002BF3D17B6901337B61FC
S2140008D0BB1D1B887A699A42E0D37B691800BD4627
S2140008E006B080BD14EE0100950900004D1B000007
S2140008F0FD1A000090B587B000AFF860B960BB1D68
S2140009001A8000237B61FB683B61FB68002B08D0E4
S214000910BB68002B05D0BB1D1B88002B01D0012314
S21400092000E000231A1C01231340D8B21623FF331D
S2140009301A00144B1900144B9847C0463B690833FD
S2140009401800124B984703001A0001235340DBB2ED
S214000950002BF3D1BA687B69D4183B6908331800BA
S2140009600B4B9847030023707B6901337B61BB1DEB
S2140009701B887A699A42E0D37B691800BD4607B0A7
S21400098090BDC04614EE0100950900006D1B0000E6
S214000990291B000080B584B000AFB9607A600F23D1
S2140009A0FB18021C1A700F23FB181B7801225340F9
S2140009B0DBB2002B00D000BEC046BD4604B080BDF2
S2140009C080B584B000AF78600A4B1B68002B02D15C
S2140009D0084B094A1A60074B1B68FB60054B1A68F0
S2140009E07B68D218034B1A60FB681800BD4604B03B
S2140009F080BDC046480B0020F83D002080B582B080
S214000A0000AF786001235B421800BD4602B080BD8F
S214000A1080B582B000AF786039603B688022920172
S214000A205A6000231800BD4602B080BD80B582B073
S214000A3000AF786001231800BD4602B080BD80B5C7
S214000A4084B000AFF860B9607A6000231800BD4635
S214000A5004B080BD90B583B000AF39601100BB1DF7
S214000A60021C1A807B1D0A1C1A707B1D1B78043B17
S214000A70042B59D89A00344BD3181B689F46BB1DCD
S214000A801C883A68314B324910009847030063438C
S214000A905A1E2E4B0A2110009847030001334EE0E1
S214000AA0BB1D1C883A68294B2A491000984703004A
S214000AB063435A1E254B64211000984703000133F8
S214000AC03DE0BB1D1C883868204BFA2291009847F1
S214000AD003006343581E1D4BFA22910098470300FB
S214000AE001332CE0BB1D1C883A68184B64211000AB
S214000AF09847030063435A1E144B16491000984744
S214000B00030001331BE0BB1D1C883A680F4B0A210B
S214000B1010009847030063435A1E0C4B0C49100004
S214000B209847030001330AE0BB1D1B883A6853430D
S214000B305A1E064B08491000984703000133180058
S214000B40BD4603B090BDC04694EE01004D7B01004B
S214000B50A08601001027000040420F0090B583B029
S214000B6000AF39601100BB1D021C1A807B1D0A1CD9
S214000B701A707B1D1B78043B042B4BD89A002D4B18
S214000B80D3181B689F46BB1D1C883A682A4B2B4906
S214000B9010009847030063436422534345E0BB1D9F
S214000BA01C883A68244B2649100098470300634384
S214000BB01A0013009B009B185B0036E0BB1D1C88C8
S214000BC038681D4BFA2291009847030063432CE0D7
S214000BD0BB1D1C883A68184B642110009847030018
S214000BE063435A1E144B0A21100098470300013332
S214000BF01BE0BB1D1C883A680F4B0A211000984763
S214000C00030063435A1E0C4B6421100098470300F0
S214000C1001330AE0BB1D1B883A685343581E064B37
S214000C20FA2291009847030001331800BD4603B02E
S214000C3090BDC046A8EE01004D7B0100A0860100D5
S214000C401027000080B582B000AF0200BB1D1A80DE
S214000C500549BB1D1B8808221800044B9847030053
S214000C601800BD4602B080BD0024F4005D0B0000F5
S214000C7080B582B000AF786039607B685A683B68A0
S214000C805B001E210B401A437B685A60C046BD4677
S214000C9002B080BD80B500AF0A4B002118000A4B99
S214000CA098470220094B9847094B9847094B9847A5
S214000CB0094B9847094B9847094B9847C046BD468D
S214000CC080BDC04600400041710C000009160000BF
S214000CD02D140000E11400009D130000C112000056
S214000CE02D15000080B582B000AF0200FB1D1A7003
S214000CF0064BFA1D127811001F220A40012191406E
S214000D000A001A60C046BD4602B080BD00E100E0A1
S214000D1080B582B000AF0200FB1D1A70074AFB1DAB
S214000D201B7819001F230B40012199400B00190066
S214000D308023D150C046BD4602B080BD00E100E031
S214000D4080B582B000AF0200FB1D1A70084AFB1D7A
S214000D501B7819001F230B40012199400B00190036
S214000D60C0235B00D150C046BD4602B080BDC04621
S214000D7000E100E080B582B000AF78603960C04620
S214000D807B685B683A681340FAD1C046BD4602B03D
S214000D9080BD80B582B000AF786039607B683A6805
S214000DA01A61C046BD4602B080BD80B582B000AFB5
S214000DB0786039607B683A68DA60C046BD4602B043
S214000DC080BD80B582B000AF78607B685B69180034
S214000DD0BD4602B080BD80B582B000AF7860396095
S214000DE07B683A685A61C046BD4602B080BD0000C6
S214000DF080B582B000AF78607B6801211800074B91
S214000E0098477B681B78DBB201221343DAB27B6813
S214000E101A70C046BD4602B080BDC046750D0000C3
S214000E2080B582B000AF78607B6803211800074B5E
S214000E3098477B681B78DBB202221343DAB27B68E2
S214000E401A70C046BD4602B080BDC046750D000093
S214000E5080B584B000AF78607B68032118000D4B26
S214000E6098470F23FB187A6812781A700F23FB181E
S214000E701B785B08DAB20F23FB1801210A401A70B0
S214000E800F23FB181B785A1E9341DBB21800BD4691
S214000E9004B080BD750D000080B584B000AF7860EA
S214000EA00A00FB1C1A707B6803211800124B984737
S214000EB00F23FB187A6812781A700F23FB180F227C
S214000EC0BA18127810218A431A70FB1C1B781B0173
S214000ED05AB20F23FB181B785BB213435AB20F2388
S214000EE0FB181A707B680F22BA1812781A70C04660
S214000EF0BD4604B080BDC046750D000080B582B00A
S214000F0000AF78600A00FB1C1A707B68FA1C127827
S214000F105A70C046BD4602B080BD80B582B000AFF4
S214000F20786039607B683A689A60C046BD4602B011
S214000F3080BD80B584B000AFF8607A600B23FB18E4
S214000F400A1C1A700B23FB181B78FA6806339B00E2
S214000F50D31804337A681A60C046BD4604B080BD14
S214000F6080B582B000AF7860234B01211800234B78
S214000F709847214B1800224B9847031E02D0112396
S214000F805B4235E01C4B18001E4B98471A4B01215C
S214000F9018001A4B9847184B002118001A4B984710
S214000FA0154B00211800194B9847134B00211800C9
S214000FB0174B984788235B030F481A000021154BF0
S214000FC09847154A0C4B01211800124B98470A4BBC
S214000FD01800124B98470320114B98470320114BDB
S214000FE098470320104B9847104B7A681A600023E6
S214000FF01800BD4602B080BD00240040750D0000FC
S214001000510E0000F10D0000990E0000FD0E0000CC
S2140010101B0F0000330F000000001111210E00000E
S214001020110D0000410D0000E50C00004C0B0020E7
S21400103080B584B000AF78600A00FB1C1A700F23DE
S214001040FB18FF221A700E23FB1800221A701BE0F2
S2140010500E23FB181B78284ADB00D31804331A68C3
S2140010607B689A4209D10E23FB1819780F23FB18C8
S214001070214AC9008A5C1A700BE00E23FB181A7806
S2140010800E23FB1801321A700E23FB181B78052B53
S214001090DED90F23FB181B78FF2B02D101235B42FE
S2140010A026E0FB1C1B78002B0BD00F23FB181B78AD
S2140010B001229A401300114A19001000104B98475D
S2140010C015E00F23FB181B7801229A4013000B4AE9
S2140010D0190010000B4B98470F23FB181B780122B2
S2140010E09A401300054A19001000074B9847002342
S2140010F01800BD4604B080BDBCEE010000240040D0
S214001100930D0000AB0D0000D70D000080B584B035
S21400111000AF534B1800534B984703003B60012326
S2140011205B42BB603B684E4A190010004E4B984726
S2140011304E4B1B685A1E9341DBB24D49F0221800F5
S2140011404C4B984784E03B6818004B4B984703008D
S214001150DBB2013BDAB20F23FB181A7066E0FB1D08
S21400116000221A70BB1D06221A703BE0BB1D1A78BF
S214001170FB1D1B78D3185A107B1D1A707B1D1A781E
S2140011803E4BD200D35C1A000F23FB181B785BB2D1
S2140011909A4208D17B1D1B78384ADB00D3180433EB
S2140011A01B68BB6024E07B1D1A78344BD200D35CEE
S2140011B01A000F23FB181B785BB29A4209DAFB1D54
S2140011C07A1D127801321A70BB1DBA1D12781A7079
S2140011D008E0BB1D7A1D1278013A1A70FB1DFA1D35
S2140011E012781A70BA1DFB1D12781B789A42BDD26F
S2140011F0BB68013304D01D4B1B68BA6810009847C3
S2140012000F23FB181B785BB201229A401300DB43C6
S2140012103A6813403B603B681800174B984703003A
S214001220DBB2013BDAB20F23FB181A700F23FB1850
S2140012301B785BB2013392D1094B1800094B9847D3
S21400124003003B603B68064A19001000064B9847AF
S2140012503B68002B00D076E7C046BD4604B080BD94
S21400126000240040C30D0000D70D00004C0B0020EA
S214001270ECEE0100950900007DA00100BCEE010027
S21400128080B500AF024B9847C046BD4680BDC046FD
S2140012900D11000080B584B000AFF8607A600B23B3
S2140012A0FB180A1C1A700B23FB181A78FB68083206
S2140012B092007968D150C046BD4604B080BD00009B
S2140012C080B500AF194A1A4B00211800194B9847F1
S2140012D0164A174B01211800164B9847164A144B0E
S2140012E002211800134B9847144A114B032118008B
S2140012F0104B98470D4A0E4B042118000D4B98478B
S2140013000A4A0B4B052118000A4B9847074A084B18
S21400131006211800074B9847044A054B072118007A
S214001320044B9847C046BD4680BDC0460601010036
S214001330001800409512000006110100030101008C
S21400134080B582B000AF78600A00FB1C1A707B681C
S214001350FA1C12781A71C046BD4602B080BD80B530
S21400136082B000AF78600A00FB1C1A707B68FA1C1B
S21400137012785A71C046BD4602B080BD80B582B0B4
S21400138000AF78600A00FB1C1A707B68FA1C1278A3
S2140013909A71C046BD4602B080BD000080B582B0DE
S2140013A000AF0A4B7B607B6808211800084B984703
S2140013B07B6804211800074B98477B6801211800BA
S2140013C0054B9847C046BD4602B080BD00040040AD
S2140013D07D1300005F1300004113000080B582B04B
S2140013E000AF786039607B683A681A61C046BD46CF
S2140013F002B080BD80B582B000AF786039607B688F
S2140014003A685A61C046BD4602B080BD80B582B01B
S21400141000AF78607B68DB68012213405A1E934158
S214001420DBB21800BD4602B080BD000080B582B0B9
S21400143000AF0F4B7B60BB1C00221A807B685621D6
S21400144018000C4B9847C0467B6818000A4B984714
S21400145003001A0001235340DBB2002BF4D17B6853
S21400146004211800054B9847C046BD4602B080BD13
S21400147000100040F51300000D140000DD130000FE
S21400148080B582B000AF78607B681B7DDBB28022BF
S21400149052421343DAB27B681A75C046BD4602B0A4
S2140014A080BD80B582B000AF78600A00FB1C1A7061
S2140014B07B68FA1C12781A75C046BD4602B080BD1D
S2140014C080B582B000AF78607B68DB681B090122BC
S2140014D013405A1E9341DBB21800BD4602B080BDD1
S2140014E080B582B000AF0D4B7B607B688E21180004
S2140014F00B4B9847C0467B6818000A4B984703007A
S2140015001A0001235340DBB2002BF4D17B6818008D
S214001510054B9847C046BD4602B080BD000C004053
S214001520A3140000C11400008114000080B582B02E
S21400153000AF034B7B60C046BD4602B080BDC046D0
S214001540000C004080B582B000AF78607B689B7965
S214001550DBB21800BD4602B080BD80B582B000AFD9
S21400156078600A00FB1C1A707B68FA1C12789A7165
S214001570C046BD4602B080BD80B584B000AF78607E
S2140015800A00FB1C1A700F23FB187A6892781A70F0
S2140015900F23FB18FA1C1B7812781340DAB20F23BD
S2140015A0FB1803210A401A700F23FB181B7818003B
S2140015B0BD4604B080BD80B584B000AF78600A0038
S2140015C0FB1C1A700F23FB187A6892781A700F2388
S2140015D0FB180F22BA18127803218A431A70FB1CD4
S2140015E01B7803221340D9B20F23FB180F22BA1818
S2140015F012780A431A707B680F22BA1812789A700B
S214001600C046BD4604B080BD80B582B000AF0200C3
S214001610FB1D1A708023DB05FF211800104B98472E
S2140016208023DB05032118000E4B984703001A00A1
S214001630FB1D1B78934207D0FB1D1A788023DB0521
S21400164011001800084B9847C0468023DB05180099
S214001650064B9847031EF8D0C046BD4602B080BD74
S2140016605B15000079150000B71500004515000051
S21400167080B582B000AF78603960C0467B68DB69B1
S2140016803A681340FAD1C046BD4602B080BD80B568
S21400169082B000AF786039607B68DB693A681340D7
S2140016A05A1E9341DBB21800BD4602B080BD80B51D
S2140016B082B000AF78603960C0467B68DB693A6804
S2140016C01340FAD1C046BD4602B080BD80B584B096
S2140016D000AF78600A00FB1C1A700F23FB187A68AC
S2140016E0127E1A700F23FB180F22BA18F91C1278F4
S2140016F009780A401A700F23FB181B781800BD469D
S21400170004B080BD80B582B000AF78607B681B7E79
S214001710DBB21800BD4602B080BD80B582B000AF17
S21400172078600A00FB1C1A707B68FA1C12781A761E
S214001730C046BD4602B080BD80B582B000AF7860BE
S2140017407B6801211800064B98477B681B680122BE
S2140017501A437B681A60C046BD4602B080BDC046CC
S2140017607116000080B584B000AF78607B680321F6
S2140017701800094B98477B681B68FB60FB685B0892
S21400178001221340FB60FB685A1E9341DBB218002F
S214001790BD4604B080BDC0467116000080B582B05C
S2140017A000AF786039607B683A681A60C046BD460C
S2140017B002B080BD80B582B000AF786039607B68CB
S2140017C03A685A60C046BD4602B080BD80B582B059
S2140017D000AF78600A00FB1C1A707B68FA1C12784F
S2140017E01A73C046BD4602B080BD80B582B000AF59
S2140017F0786039607B683A685A62C046BD4602B077
S21400180080BD80B582B000AF78607B689B6A1800A8
S214001810BD4602B080BD80B582B000AF786039604A
S2140018207B683A689A62C046BD4602B080BD80B505
S21400183082B000AF78600A00FB1C1A707B68FA1C46
S214001840302112785A54C046BD4602B080BD80B5DD
S21400185082B000AF78600A00BB1C1A807B68BA1C96
S21400186012885A83C046BD4602B080BD80B582B09D
S21400187000AF78600A00BB1C1A807B68BA1C12880E
S2140018809A81C046BD4602B080BD80B582B000AF2A
S21400189078607B681B7EDBB21A00012313405A1E59
S2140018A09341DBB21800BD4602B080BD80B582B061
S2140018B000AF78607B681B7EDBB29B08012213407A
S2140018C05A1E9341DBB21800BD4602B080BD000030
S2140018D080B582B000AF78607B6801211800064BA7
S2140018E098477B681B6801221A437B681A60C046CB
S2140018F0BD4602B080BDC046AF16000080B582B0BF
S21400190000AF78607B6803211800064B98477B6819
S2140019101B6802221A437B681A60C046BD4602B0A6
S21400192080BDC046AF16000080B584B000AF7860BA
S2140019307B6803211800094B98477B681B68FB608F
S214001940FB685B0801221340FB60FB685A1E93414C
S214001950DBB21800BD4604B080BDC046AF1600001E
S21400196080B584B000AF78600A00FB1C1A707B68F4
S214001970032118000B4B98477B681B68FB60FB68CD
S21400198002229343FB60FB1C1B785B001A00FB687B
S2140019901343FB607B68FA681A60C046BD4604B015
S2140019A080BDC046AF16000080B582B000AF78603C
S2140019B07B6803211800064B98477B681B68022249
S2140019C093431A007B681A60C046BD4602B080BDCD
S2140019D0AF16000080B582B000AF786039607B68D3
S2140019E03A681A60C046BD4602B080BD80B582B077
S2140019F000AF786039607B683A685A60C046BD467A
S214001A0002B080BD80B582B000AF78600A00FB1CD3
S214001A101A707B68FA1C12789A73C046BD4602B0EC
S214001A2080BD80B582B000AF78607B681B8D9BB2AE
S214001A301800BD4602B080BD80B582B000AF7860A9
S214001A400A00BB1C1A807B68BA1C12881A85C0461E
S214001A50BD4602B080BD80B582B000AF78600A0097
S214001A60FB1C1A707B68FA1C302112785A54C04648
S214001A70BD4602B080BD000080B582B000AF786081
S214001A8039607B685A1E9341DBB20849BF221800B2
S214001A90074B98477B683A681A603B681800054B06
S214001AA0984703001800BD4602B080BD20EF010035
S214001AB095090000451C000080B582B000AF786034
S214001AC07B681B681800034B9847C046BD4602B0AB
S214001AD080BDC046FD18000080B582B000AF7860BB
S214001AE039607B681B683A6811001800024B9847FB
S214001AF0C046BD4602B080BDFD1D000080B582B068
S214001B0000AF78600A00FB1C1A707B681A68FB1C22
S214001B101B789BB219001000024B9847C046BD4682
S214001B2002B080BD391A000080B582B000AF786080
S214001B307B681B681800044B98470300DBB218004C
S214001B40BD4602B080BDC046231A000080B582B0F4
S214001B5000AF78607B681B681800034B984703004B
S214001B601800BD4602B080BD8B18000080B582B05C
S214001B7000AF78607B681B681800034B984703002B
S214001B801800BD4602B080BDAD18000080B582B01A
S214001B9000AF78607B68084A934201D1052306E0CF
S214001BA07B68BE221206944663449B0ADBB218008A
S214001BB0BD4602B080BDC0460004004390B585B067
S214001BC000AF78600E23FC187B681800194B984706
S214001BD0030023700F23FB1800221A7018E00F234F
S214001BE0FB181A78144913009B009B189B005B5C3B
S214001BF00E22BA1812789A4203D10F23FB181B78CC
S214001C0013E00F23FB181A780F23FB1801321A7003
S214001C100F23FB181B78002BE1D091239A00074B6B
S214001C2019000020064B984700231800BD4605B053
S214001C3090BDC0468D1B00000000002020EF010074
S214001C409509000090B585B000AF78600F23FC18AA
S214001C507B6818005F4B9847030023707B68012160
S214001C6018005D4B98477B6818005C4B9847031E2E
S214001C7002D011235B42A8E07B681800584B9847B7
S214001C807B6801211800544B98470F23FB181A78DD
S214001C90544913009B009B189B00CB1804331A680A
S214001CA07B6811001800504B98470F23FB181A78D2
S214001CB04C4913009B009B189B00CB1808331A68EE
S214001CC07B6811001800494B98470F23FB181A78B9
S214001CD0444913009B009B189B00CB1804331A68DA
S214001CE080239B0113400ED10F23FB181A783D4921
S214001CF013009B009B189B00CB1804331A68C02364
S214001D00DB01134030D00F23FB181A783549130037
S214001D109B009B189B00CB180C331B88DB04DB0C4A
S214001D2099B27A689389C904C80C5B0B5B03191CCB
S214001D30031C0B4393810F23FB181A7829491300C1
S214001D409B009B189B00CB180E331B781A1C07238E
S214001D501340D9B27A6893894803DB04DB0C191C5C
S214001D60031C0B4393810FE00F23FB181A781D49C1
S214001D7013009B009B189B00CB180C331A887B68BB
S214001D80110018001A4B98470F23FB181A781549AC
S214001D9013009B009B189B00CB180F331A787B68A8
S214001DA011001800134B98470F23FB181A780D499B
S214001DB013009B009B189B00CB1810331A787B6887
S214001DC0110018000C4B984700231800BD4605B0BC
S214001DD090BDC046BD1B0000AF16000029190000CC
S214001DE0D118000000000020D5190000ED190000F1
S214001DF06D180000051A0000571A000090B585B04F
S214001E0000AF786039600F23FC187B681800154B0C
S214001E109847030023707B681800134B98470823E5
S214001E20FB181800114B98477B6802211800104BCE
S214001E3098473B689AB27B68110018000D4B98478C
S214001E400823FB1818000C4B98470F23FB181A782A
S214001E507B6811001800094B9847C046BD4605B080
S214001E6090BDC04629190000A919000041010000D4
S214001E70AF1600006D180000630100006119000035
S214001E8080B582B000AF786039607B68002B04D0E4
S214001E903B68002B01D0012300E000231A1C01231D
S214001EA01340D8B28E231A011F4B19001F4B9847B8
S214001EB03B681A78597809020A43997809040A4354
S214001EC0DB781B0613431A00194B1A407B68110077
S214001ED01800184B98473B681A79597909020A4343
S214001EE0997909040A43DB791B0613431A00124B3F
S214001EF01340802292021A437B68110018000F4B91
S214001F0098473B681A7B7B68110018000C4B984773
S214001F103B685A7B7B68110018000A4B9847C046FE
S214001F20BD4602B080BDC04620EF01009509000006
S214001F30FCFEFFFF9D170000BF1DFDFFB51700004C
S214001F40CD1700002F18000080B582B000AF786073
S214001F5039607B68002B04D03B68002B01D001233E
S214001F6000E000231A1C01231340DBB2294A2A4949
S214001F7018002A4B98473B681A78597809020A4392
S214001F80997809040A43DB781B0613431A00244B8E
S214001F901A407B6811001800224B98473B681A7954
S214001FA0597909020A43997909040A43DB791B0621
S214001FB013431A001C4B13401C4A1A437B6811003B
S214001FC018001B4B98473B681A7A597A09020A434D
S214001FD0997A09040A43DB7A1B0613431A007B68C6
S214001FE011001800134B98473B685A7B7B6811001A
S214001FF01800114B9847C04601235A427B681100CF
S21400200018000E4B9847031EF6D1C046BD4602B0D8
S21400201080BDC046F408000020EF010095090000CE
S214002020FCFEFFFF9D170000BFDDFDFF4002020023
S214002030B5170000EB1700002F1800008F160000E1
S21400204090B585B000AF78607B680E22BC1818008B
S214002050144B9847030023700F23FB1800221A70B6
S21400206015E005220E23FB181B78934208D10F2398
S214002070FB181A7813001B019B180B4A9B180CE0E0
S2140020800F23FB181A780F23FB1801321A700F2340
S214002090FB181B78002BE4D000231800BD4605B0C3
S2140020A090BDC0468D1B00005CEF010080B584B07B
S2140020B000AF786039603B6818003A4B98470300D9
S2140020C0FB607B68002B04D03B68002B01D001230B
S2140020D000E000231A1C01231340DBB2324A3349C6
S2140020E01800334B9847FB68002B02D10D235B4248
S2140020F053E03B68012118002E4B98473B681800B8
S2140021002D4B9847031E02D011235B4245E03B68E7
S21400211018002A4B98473B6801211800254B984722
S2140021207B683A681A60FB681A78597809020A438D
S214002130997809040A43DB781B0613431A001C230C
S2140021401340082B06D1FA683B68110018001C4B98
S214002150984705E0FA683B6811001800194B984745
S214002160FB681A79597909020A43997909040A43DE
S214002170DB791B0613431A000723134001D1012203
S21400218000E002227B681A71FB689A7BDB7B1B02ED
S21400219013439AB27B68DA8000231800BD4604B069
S2140021A080BDC046412000001609000020EF010057
S2140021B09509000071160000651700003917000029
S2140021C0491F0000811E000080B582B000AF786015
S2140021D0C0467B6803211800064B9847031EF8D0BC
S2140021E07B6803211800044B9847C046BD4602B0E2
S2140021F080BDC046CD1600001B17000080B586B017
S21400220000AFF860B9607A60BB680422134001D161
S214002210002324E0FB681800134B984703007B61FB
S2140022207B685B68002B14D07B685B68591C7A68F7
S21400223051607A69D2B21A707B681B7C012B08D970
S2140022407B685B68591C7A6851607A69120AD2B258
S2140022501A707B68DB685A1C7B68DA6001231800FA
S214002260BD4606B080BDC0460318000080B586B0E7
S21400227000AFF860B9607A601A00BB1C1A80BB68B1
S214002280012213402BD07B681B68002B18D07B687C
S2140022901B68591C7A6811601B787B617B681B7C05
S2140022A0012B10D97B681B681B781B021A007B6900
S2140022B013437B617B681B685A1C7B681A6002E0CC
S2140022C0BB1C1B887B617B689B685A1C7B689A607A
S2140022D07A69FB6811001800034B984700E0C04677
S2140022E0BD4606B080BDC0461718000080B582B057
S2140022F000AF786039607B68802213400DD0094AB1
S2140023003B6811001800084B98473B68802118006E
S214002310064B984713235B4200E000231800BD4697
S21400232002B080BDFFFF00004F1800001B17000022
S21400233090B58BB000AF786039607B681B683B62F5
S21400234000237B623B681A680823FB181A603B6808
S2140023505A680823FB185A600823FB1800229A6064
S2140023600823FB180022DA607B681A790823FB181A
S2140023701A747B68002B04D03B6A002B01D0012323
S21400238000E000231A1C01231340DBB2344A35490F
S2140023901800354B98473B6A07211800334B98477F
S2140023A0031E02D004235B4255E03B6A1800304B04
S2140023B0984703001A0001235340DBB2002B02D0DB
S2140023C014235B4247E03B6A18002A4B98470300F9
S2140023D0FB610823FA18F9693B6A1800264B9847F0
S2140023E003001A0001235340DBB2002B0FD0082352
S2140023F0FB18DA680823FB189B689A4207D37B68A9
S214002400DB880822BA18F969386A1C4CA0473A6A71
S214002410FB69110018001A4B984703007B627B6A21
S214002420002B12DB0823FB189A683B689B689A42CD
S214002430C9D30823FB18DA683B689B689A42C2D364
S2140024400823FB189B687B6200E0C0463B6A1800C6
S2140024500C4B98477B6A1800BD460BB090BDC04633
S214002460720A000020EF0100950900008F16000098
S2140024706517000005170000FD2100006D22000012
S214002480ED220000C921000080B582B000AF786060
S214002490044B054A5A60034B05221A60C046BD46E7
S2140024A002B080BD10E000E0FFFFFF0080B582B004
S2140024B000AF78607B681800024B9847C046BD4660
S2140024C002B080BD8924000080B584B000AF78607B
S2140024D039603B681A0E0F23FB181A703B68BB6006
S2140024E011E0164B164A5A60144B154A9A60C046BD
S2140024F0124B1A6880235B021340F9D0BB68114A5E
S21400250094466344BB600F23FB181B780F22BA184F
S214002510591E1170002BE4D1084BBA685A60074B5D
S214002520BA689A60C046054B1A6880235B0213405F
S214002530F9D0C046BD4604B080BDC04610E000E0FD
S214002540FFFFFF00010000FF80B582B000AF020071
S214002550FB1D1A70064BFA1D127811001F220A4046
S214002560012191400A001A60C046BD4602B080BDF7
S21400257000E100E080B582B000AF78607B685B6900
S214002580802252001A437B685A61C046BD4602B09C
S21400259080BD80B582B000AF78603960C0467B6889
S2140025A01B693A681340FAD1C046BD4602B080BDEA
S2140025B080B582B000AF78607B68802252005A8176
S2140025C0C046BD4602B080BD80B582B000AF786020
S2140025D07B68802252009A81C046BD4602B080BD0C
S2140025E080B582B000AF78607B68034A9A81C046A7
S2140025F0BD4602B080BDC0460080FFFF80B582B0F9
S21400260000AF78607B689B899BB21800BD4602B01D
S21400261080BD000080B582B000AF7860084A7B6855
S21400262011001800074B98477B681B889BB2022254
S21400263013439AB27B681A80C046BD4602B080BD7E
S214002640038000009325000080B582B000AF78605C
S2140026500A00BB1C1A807B68BA1C12881A80C04607
S214002660BD4602B080BD80B582B000AF78603960EC
S2140026707B683A685A60C046BD4602B080BD80B5E9
S21400268082B000AF786039607B683A689A61C0466D
S214002690BD4602B080BD80B582B000AF78607B6872
S2140026A09B691800BD4602B080BD80B584B000AFFF
S2140026B0F8607A600B23FB180A1C1A700B23FB18B1
S2140026C01A78FB68083292007968D150C046BD4639
S2140026D004B080BD80B500AF1D4B18001D4B984759
S2140026E01D4B012118001D4B98471B4B012118005C
S2140026F01B4B984780231B02174A19001000174BE4
S214002700984780235B00144A19001000154B984721
S21400271001235B4210481A000021134B98470E4BCA
S2140027201800124B98470220114B98470A4B00217D
S2140027301800104B9847084B08211800084B98477C
S214002740054B18000C4B9847C046BD4680BDC0469A
S21400275000040040752500000020004049260000C7
S2140027609325000067260000AB260000B125000078
S214002770492500007F2600001526000080B582B09F
S21400278000AF7860034B7A681A60C046BD4602B058
S21400279080BDC046500B002080B582B000AF786088
S2140027A0034B7A681A60C046BD4602B080BDC0467C
S2140027B0540B002080B584B000AF78607B68134867
S2140027C01A000021124B9847124A104B11001800AD
S2140027D0114B98470D4B1800104B98470300FB60B1
S2140027E07A68FB68D31A013B0D4A934201D900234D
S2140027F007E07A68FB68D31A092B01D8002300E0AB
S21400280001231800BD4604B080BDC046002000402D
S214002810AB2600002F8000009325000097260000BE
S214002820FEFFFF7F80B500AF064B08211800064B61
S2140028309847044B1800054B984703001800BD4600
S21400284080BDC0460020004093250000972600006B
S21400285090B583B000AFBC1D154B1800154B9847BC
S21400286003002380BB1D1A8880235B0013400BD017
S2140028700F4B1800104B9847104B1B68002B13D0BB
S2140028800E4B1B6898470FE0BB1D00229B5E002B7B
S2140028900ADA074B18000A4B98470A4B1B68002BAE
S2140028A002D0084B1B689847C046BD4603B090BD93
S2140028B000200040FD250000C9250000500B002028
S2140028C0E1250000540B002080B500AF084B1B68C4
S2140028D0084A5343084A9A18054B1A60044B1A686C
S2140028E0064B0749100098470B001800BD4680BDF0
S2140028F0140000206D4EC64139300000597C01009E
S214002900FFFFFF7F80B582B000AF7860034B7A6828
S2140029101A60C046BD4602B080BDC0461400002006
S21400292080B582B000AF78603960084B98473A6847
S2140029307B68D31A5A1C064B110098470B001A00E6
S2140029407B68D3181800BD4602B080BDC9280000B9
S2140029502D7E010080B584B000AFF860B960BB1D65
S2140029601A8007E0FB685A1CFA60BA68511CB96006
S21400297012781A70BB1D1B88BA1D591E1180002BB9
S214002980F0D1C046BD4604B080BD80B584B000AF6F
S214002990F860B960BB1D1A80BB1D1B88013BFA6836
S2140029A0D318FB6007E0FB685A1EFA60BA68511C31
S2140029B0B96012781A70BB1D1B88BA1D591E11808B
S2140029C0002BF0D1C046BD4604B080BD80B582B0B5
S2140029D000AF786008001100FB1C021C1A703B0058
S2140029E00A1C1A8005E07B685A1C7A60FA1C12786A
S2140029F01A703B001B883A00591E1180002BF2D13A
S214002A00C046BD4602B080BD80B584B000AFF86059
S214002A107A600B23FB180A1C1A700B23FB181A7813
S214002A20FB68203292007968D150C046BD4604B09B
S214002A3080BD80B582B000AF78607B685B6980221D
S214002A4092001A437B685A61C046BD4602B080BDFC
S214002A5080B500AF024B9847C046BD4680BDC04615
S214002A60950C000080B584B000AF7860EFF310835B
S214002A70FB60FA687B681A6072B6C046BD4604B052
S214002A8080BD80B584B000AF78607B681B68FB6053
S214002A90FB6883F31088C046BD4604B080BD0000C6
S214002AA090B583B002AF074800230193002300933C
S214002AB0002301222A21044CA047C046BD4601B08F
S214002AC090BDC046A41B0020515C010090B585B0A7
S214002AD004AF1C4B98471C4B18001C4B98471C4BCC
S214002AE04022032118001B4B98471B4B18001B4B1A
S214002AF098471B4B98471B481723162200211A4C51
S214002B00A047E1231A0317480023029300230193EA
S214002B100023009300230221144CA04714480123ED
S214002B205B42019337230093302336220021114C59
S214002B30A047114B9847114B01221A70C046BD465C
S214002B4001B090BD512A000010E000E085010000B1
S214002B5000180040092A000000040040332A000044
S214002B60D13100005C1B0020B16401000965010042
S214002B70E81C00209D3D000011420000580B00207C
S214002B8080B582B000AF7860C046BD4602B080BD5A
S214002B9080B500AF00231800BD4680BD80B500AFED
S214002BA072B662B6C046BD4680BD000080B584B031
S214002BB000AFF860B9607A60C0467B689AB2B968C0
S214002BC0054B1800054B9847031EF6D17B68180086
S214002BD0BD4604B080BDC0465C1B00206165010098
S214002BE090B587B000AFF860B9607A6000237B616B
S214002BF0C0467B689AB21423FB18B96809480A4C89
S214002C00A047031EF5D1C0467B699AB2B968054B4A
S214002C101800064B9847031EF6D17B691800BD4680
S214002C2007B090BD5C1B00208D650100616501004A
S214002C3080B582B000AF78607B689BB21800034B0B
S214002C409847C046BD4602B080BDC046AD010000F4
S214002C5080B584B000AFF8607A600B23FB180A1CBE
S214002C601A700B23FB181B78FA68DB01D31808339D
S214002C707A681A60C046BD4604B080BD80B584B090
S214002C8000AFF8607A600B23FB180A1C1A700B233F
S214002C90FB181B78FA68DB01D31804337A681A60CD
S214002CA0C046BD4604B080BD80B584B000AFF860B5
S214002CB07A600B23FB180A1C1A700B23FB181B7870
S214002CC0FA68DB01D31818337A681A60C046BD4626
S214002CD004B080BD80B584B000AFF8607A600B2386
S214002CE0FB180A1C1A700B23FB181B78FA68DB010A
S214002CF0D31814337A681A60C046BD4604B080BD47
S214002D0080B584B000AFF8607A600B23FB180A1C0D
S214002D101A700B23FB181B78FA68DB01D3182833CC
S214002D207A681A60C046BD4604B080BDB0B582B0B1
S214002D3000AF786008001100FB1C021C1A70BB1C58
S214002D400A1C1A70FB1C1A78BB1C1B78F91C087826
S214002D50B91C09787C684025C0012018411849191B
S214002D600978C9B204200143CCB279684020D20168
S214002D708A18D3181B18221C1A70C046BD4602B00B
S214002D80B0BDB0B582B000AF786008001100FB1C83
S214002D90021C1A70BB1C0A1C1A70FB1C1A78BB1C7F
S214002DA01B78F91C0878B91C09787C684025C00196
S214002DB02018411849190978C9B204208143CCB2B9
S214002DC079684020D2018A18D3181B18221C1A7062
S214002DD0C046BD4602B0B0BD80B582B000AF396017
S214002DE01100FB1D021C1A70BB1D0A1C1A70BB1DAD
S214002DF01B78012B23D0022B3FD0002B5DD13A68E5
S214002E00FB1D1978C023DB051800314B98473B683B
S214002E101B041B0C8022D2051A43FB1D1B782D4871
S214002E2019002D4B98473B681B0CC02212061A430C
S214002E30FB1D1B7827481900274B984743E03A6844
S214002E40FB1D1978C023DB051800214B98473B680B
S214002E501B041B0C214A1A43FB1D1B781D48190036
S214002E601D4B98473B681B0C1D4A1A43FB1D1B78DD
S214002E7018481900184B984725E03A68FB1D197842
S214002E80C023DB051800174B98473B681B041B0C38
S214002E908022D2051A43FB1D1B780E4819000E4BE4
S214002EA098473B681B0CC02212061A43FB1D1B7872
S214002EB008481900084B984705E00B4B4E221900AE
S214002EC000200A4B9847C046BD4602B080BDC046AB
S214002ED07D2C000000280040012D0000000002406C
S214002EE0000002C0512C000070EF010095090000A0
S214002EF080B582B000AF39601100FB1D021C1A704D
S214002F00BB1D0A1C1A70BB1D1B78002B08D03A6824
S214002F10FB1D1978C023DB051800074B984707E010
S214002F203A68FB1D1978C023DB051800034B984749
S214002F30C046BD4602B080BDA92C0000D52C0000BE
S214002F4090B583B000AF040008001100FB1D221CE2
S214002F501A70BB1D021C1A707B1D0A1C1A707B1D82
S214002F601B78012B0CD0022B29D0002B46D1BB1D81
S214002F701A78FB1D1B7827481900274B984744E012
S214002F80BB1D1B7801229A40FB1D1978C023DB0568
S214002F901800224B9847BB1D1A78FB1D1B781D484E
S214002FA019001F4B9847BB1D1B7801229A40FB1D3A
S214002FB01978C023DB0518001A4B984725E0BB1D7F
S214002FC01B7801229A40FB1D1978C023DB051800E8
S214002FD0124B9847BB1D1A78FB1D1B780D4819002D
S214002FE00F4B9847BB1D1B7801229A40FB1D197892
S214002FF0C023DB0518000C4B984706E00B4B9122CC
S214003000190000200A4B9847C046C046BD4603B08C
S21400301090BDC04600280040832D00007D2C000097
S2140030202D2D0000A92C0000D52C000070EF01000B
S2140030309509000080B582B000AF0200FB1D1A7033
S214003040BB1D0A1C1A70FB1D1B785B09D8B2FB1D42
S2140030501B781F221340D9B2BB1D1B781A00034BE6
S2140030609847C046BD4602B080BDC046412F00000E
S21400307080B582B000AF0200FB1D1A70BB1D0A1C93
S2140030801A70FB1D1B785B09D8B2FB1D1B781F222C
S214003090134001229A401100BB1D1B781A00034BF7
S2140030A09847C046BD4602B080BDC046D92D000038
S2140030B080B582B000AF0200FB1D1A70BB1D0A1C53
S2140030C01A70FB1D1B785B09D8B2FB1D1B781F22EC
S2140030D0134001229A401100BB1D1B781A00034BB7
S2140030E09847C046BD4602B080BDC046F12E0000DF
S2140030F090B583B000AF78600C0010001900FB1C80
S214003100221C1A70BB1C021C1A707B1C0A1C1A702C
S2140031107B68FA1C12781A70FB1C1B785BB20133B2
S2140031202AD0BB1C1B78002B13D17B681B785BB2A4
S214003130DBB201211800124B98477B681B785BB204
S214003140DBB21822BA181278110018000D4B9847F7
S21400315007E07B681B785BB2DBB202211800084BE5
S2140031609847BB1C1B78012B07D1FA697B681100B6
S2140031701800054B984700E0C046BD4603B090BD1A
S21400318071300000353000008D31000080B582B00F
S21400319000AF786039607B68002B00D1FEE77B6863
S2140031A01B785BB201330CD07B681B785BB2DAB25B
S2140031B03B68591E8B41DBB219001000034B984741
S2140031C000E0C046BD4602B080BDC046B13000003B
S2140031D080B500AF0D4B1B7801225340DBB2002BAD
S2140031E011D00B4B98470B4B18000B4B98470B4BCB
S2140031F018000B4B98470B4B00229A600A4B9847D7
S214003200024B01221A70C046BD4680BD5C0B0020F2
S214003210D5260000D53400007D270000FD340000D0
S21400322099270000600B00202D32000080B500AF0B
S214003230044B98470200044B1A60034B1B681800A7
S214003240BD4680BD25280000600B002080B500AF7D
S214003250024B1B681800BD4680BDC046600B0020B0
S21400326080B500AF03231800BD4680BD80B582B090
S21400327000AF78607B681800BD4602B080BD80B5A0
S21400328084B000AF78607B689B0AFB607B689B0518
S2140032909B0D7B60FB68FA2292005A437B68FA21FA
S2140032A089004B439B0AD3181800BD4604B080BD66
S2140032B080B582B000AF78607B681800024B9847F4
S2140032C0C046BD4602B080BDE132000080B500AF0A
S2140032D0024B00229A60C046BD4680BD600B0020AF
S2140032E080B584B000AF78600C23FB181800194B2B
S2140032F09847194B9847194B7A685A60184B012221
S2140033001A70184B00221A70144B01229A60134B45
S2140033101A68124B5B68D3181800134B98470300C3
S2140033201A0001235340DBB2002B0AD00C4B1B784B
S214003330DBB2002B05D00B4B01221A70084B002283
S2140033401A700C23FB181800084B9847C046BD4659
S21400335004B080BD652A0000CD320000600B00205E
S2140033605D0B00205E0B0020B5270000832A0000BE
S21400337080B500AF024B984703001800BD4680BDDD
S2140033802528000080B500AF044B98470200044B88
S2140033901B68D31A1800BD4680BDC046252800000D
S2140033A0600B002080B586B000AF786000237B619C
S2140033B00B4B984703003B613B699B0AFB603B69EC
S2140033C09B059B0D7B617B691800064B98470300A5
S2140033D09AB27B681A80FB681800BD4606B080BDAE
S2140033E0252800007F32000080B584B000AF7860EA
S2140033F039600C23FB181800084B9847084B7A686E
S2140034001A60074B3A685A600C23FB181800054BE5
S2140034109847C046BD4604B080BDC046652A000039
S2140034206C0B0020832A000080B584B000AF786063
S21400343039600C23FB181800094B9847094B1A688B
S2140034407B681A60074B5A683B681A600C23FB18A7
S2140034501800054B9847C046BD4604B080BDC04620
S214003460652A00006C0B0020832A000080B582B01D
S21400347000AF3B1D1800114B9847114B9B68012B62
S21400348013D1104B1B78DBB2002B0ED00E4B984797
S21400349002000B4B5B689A4207D3094B00229A60E6
S2140034A0084B00221A70094B98473B1D1800084B22
S2140034B09847C046BD4602B080BDC046652A00009B
S2140034C0600B00205E0B0020853300003561010094
S2140034D0832A000080B500AF054B00229A60054B9A
S2140034E000221A70044B9847C046BD4680BDC046B1
S2140034F0600B00205D0B00203561010080B500AF39
S214003500C046BD4680BD80B584B000AFF8607A6026
S2140035100B23FB180A1C1A700B23FB181A78FB687F
S214003520203292007968D150C046BD4604B080BDB6
S21400353080B582B000AF78607B681B6A02221A43AF
S2140035407B681A62C046BD4602B080BD80B584B0B6
S21400355000AFF8607A600B23FB180A1C1A700B2366
S214003560FB181B78FA68DB01D31808337A681A60F0
S214003570C046BD4604B080BD80B584B000AFF860DC
S2140035807A600B23FB180A1C1A700B23FB181B7897
S214003590FA68DB01D31804337A681A60C046BD4661
S2140035A004B080BD80B584B000AFF8607A600B23AD
S2140035B0FB180A1C1A700B23FB181B78FA68DB0131
S2140035C0D31818337A681A60C046BD4604B080BD6A
S2140035D080B584B000AFF8607A600B23FB180A1C35
S2140035E01A700B23FB181B78FA68DB01D318143308
S2140035F07A681A60C046BD4604B080BD80B584B007
S21400360000AFF8607A600B23FB180A1C1A700B23B5
S214003610FB181B78FA68DB01D31828337A681A601F
S214003620C046BD4604B080BD90B585B000AF78609A
S2140036300C0010001900FB1C221C1A70BB1C021C7C
S2140036401A707B1C0A1C1A70FB1C1978BB1C1A7893
S2140036500F23FB1878683024C90141188A181219FC
S21400366012781A700F23FB180F22BA1812780F213F
S2140036708A431A707B1C1B780F221340D9B20F2383
S214003680FB180F22BA1812780A431A70FB1C1A7815
S214003690BB1C1B7879683020D2018A18D3181B18F7
S2140036A00F22BA1812781A70C046BD4605B090BDF3
S2140036B090B585B000AF78600C0010001900FB1CB8
S2140036C0221C1A70BB1C021C1A707B1C0A1C1A7067
S2140036D0FB1C1978BB1C1A780F23FB18786830245B
S2140036E0C90141188A18121912781A700F23FB188C
S2140036F00F22BA1812780F210A401A707B1C1B780A
S2140037001B01D9B20F23FB180F22BA1812780A43EE
S2140037101A70FB1C1A78BB1C1B7879683020D20103
S2140037208A18D3181B180F22BA1812781A70C046B7
S214003730BD4605B090BD90B585B000AF78600C0072
S21400374010001900FB1C221C1A70BB1C021C1A70ED
S2140037507B1C0A1C1A70FB1C1978BB1C1A780F23DA
S214003760FB1878684024C90141188A181219127883
S2140037701A700F23FB180F22BA18127801218A43F9
S2140037801A707B1C19780F23FB180F22BA181278B0
S2140037900A431A70FB1C1A78BB1C1B7879684020F9
S2140037A0D2018A18D3181B180F22BA1812781A706A
S2140037B0C046BD4605B090BDB0B582B000AF7860DB
S2140037C008001100FB1C021C1A70BB1C0A1C1A7095
S2140037D0FB1C1A78BB1C1B78F91C0878B91C0978E6
S2140037E07C684025C0012018411849190978C9B2DB
S2140037F004200143CCB279684020D2018A18D3183D
S2140038001B18221C1A70C046BD4602B0B0BDB0B52B
S21400381082B000AF786008001100FB1C021C1A7012
S214003820BB1C0A1C1A70FB1C1A78BB1C1B78F91CE4
S2140038300878B91C09787C684025C0012018411812
S21400384049190978C9B204208143CCB2796840206E
S214003850D2018A18D3181B18221C1A70C046BD46FF
S21400386002B0B0BD80B582B000AF78603960C046A7
S2140038707B68DB693A681340FAD1C046BD4602B0A1
S21400388080BD80B582B000AF78607B681B7EDBB2FF
S2140038901800BD4602B080BD80B582B000AF78602B
S2140038A00A00FB1C1A707B68FA1C12781A76C0464F
S2140038B0BD4602B080BD000080B582B000AF786023
S2140038C07B6801211800064B98477B681B6801221D
S2140038D01A437B681A60C046BD4602B080BDC0462B
S2140038E06538000080B582B000AF78607B68032141
S2140038F01800064B98477B681B6802221A437B68B1
S2140039001A60C046BD4602B080BDC046653800009D
S21400391080B582B000AF786039607B683A681A601C
S214003920C046BD4602B080BD80B582B000AF7860AC
S21400393039607B683A685A60C046BD4602B080BDB2
S21400394080B582B000AF78600A00FB1C1A707B68F6
S214003950FA1C12781A73C046BD4602B080BD80B508
S21400396082B000AF78607B689B6A1800BD4602B0E4
S21400397080BD80B582B000AF786039607B683A68F9
S2140039809A62C046BD4602B080BD80B582B000AF28
S21400399078600A00FB1C1A707B68FA1C30211278CB
S2140039A05A54C046BD4602B080BD000080B582B005
S2140039B000AF39601100FB1D021C1A70BB1D0A1CEB
S2140039C01A70BB1D1B78012B23D0022B3FD0002B77
S2140039D05DD13A68FB1D1978C023DB051800314B12
S2140039E098473B681B041B0C8022D2051A43FB1D1C
S2140039F01B782D4819002D4B98473B681B0CC0229E
S214003A0012061A43FB1D1B7827481900274B9847B8
S214003A1043E03A68FB1D1978C023DB051800214BEC
S214003A2098473B681B041B0C214A1A43FB1D1B7856
S214003A301D4819001D4B98473B681B0C1D4A1A432E
S214003A40FB1D1B7818481900184B984725E03A6864
S214003A50FB1D1978C023DB051800174B98473B68F9
S214003A601B041B0C8022D2051A43FB1D1B780E4834
S214003A7019000E4B98473B681B0CC02212061A43CF
S214003A80FB1D1B7808481900084B984705E00B4BB0
S214003A904E22190000200A4B9847C046BD4602B089
S214003AA080BDC0467935000000280040FD35000086
S214003AB000000240000002C04D350000ACEF0100DF
S214003AC09509000080B582B000AF39601100FB1D7B
S214003AD0021C1A70BB1D0A1C1A70BB1D1B78002B1B
S214003AE008D03A68FB1D1978C023DB051800074B81
S214003AF0984707E03A68FB1D1978C023DB051800D5
S214003B00034B9847C046BD4602B080BDA5350000B1
S214003B10D135000090B583B000AF04000800110056
S214003B20FB1D221C1A70BB1D021C1A707B1D0A1C72
S214003B301A707B1D1B78012B0CD0022B29D0002B72
S214003B4046D1BB1D1A78FB1D1B7827481900274B4A
S214003B50984744E0BB1D1B7801229A40FB1D19784C
S214003B60C023DB051800224B9847BB1D1A78FB1DA7
S214003B701B781D4819001F4B9847BB1D1B78012258
S214003B809A40FB1D1978C023DB0518001A4B98478E
S214003B9025E0BB1D1B7801229A40FB1D1978C02327
S214003BA0DB051800124B9847BB1D1A78FB1D1B78C7
S214003BB00D4819000F4B9847BB1D1B7801229A40F1
S214003BC0FB1D1978C023DB0518000C4B984706E050
S214003BD00B4B9122190000200A4B9847C046C0465E
S214003BE0BD4603B090BDC046002800400F38000018
S214003BF079350000B9370000A5350000D135000042
S214003C00ACEF01009509000090B585B000AF786074
S214003C1039607B685A090F23FB181A707B68DAB282
S214003C200E23FB181F210A401A703B6801330AD185
S214003C300E23FB181A780F23FB1819781B4800234D
S214003C401B4CA0472EE00E23FB181A780F23FB18F8
S214003C50197816480123164CA0470E23FB181B782C
S214003C60012213400FD00E23FB181B785B08DAB234
S214003C703B68D8B20F23FB1819780C4C03002000C1
S214003C800C4CA0470EE00E23FB181B785B08DAB23C
S214003C903B68D8B20F23FB181978044C03002000A9
S214003CA0054CA047C046BD4605B090BD0028004064
S214003CB037370000B13600002936000080B582B0E4
S214003CC000AF0200FB1D1A70BB1D0A1C1A70FB1DFC
S214003CD01B785B09D8B2FB1D1B781F221340D9B294
S214003CE0BB1D1B781A00034B9847C046BD4602B062
S214003CF080BDC046153B000080B582B000AF78603E
S214003D0039603A687B6811001800034B9847C04634
S214003D10BD4602B080BDC046093C000080B582B0FA
S214003D2000AF0200FB1D1A70BB1D0A1C1A70FB1D9B
S214003D301B785B09D8B2FB1D1B781F22134001229B
S214003D409A401100BB1D1B781A00034B9847C046CB
S214003D50BD4602B080BDC046AD39000080B582B019
S214003D6000AF0200FB1D1A70BB1D0A1C1A70FB1D5B
S214003D701B785B09D8B2FB1D1B781F22134001225B
S214003D809A401100BB1D1B781A00034B9847C0468B
S214003D90BD4602B080BDC046C53A000090B583B0AF
S214003DA000AF78600C0010001900FB1C221C1A7073
S214003DB0BB1C021C1A707B1C0A1C1A70404B40224B
S214003DC0182118003F4B98473D4B402217211800FA
S214003DD03C4B98473C4B18003C4B98473C4A3D4B65
S214003DE0110018003C4B9847394B012118003B4BFB
S214003DF09847374B18003A4B9847354B0121180027
S214003E00364B9847374A324B11001800364B9847C6
S214003E1080239B022E4A19001000344B98472C4BE7
S214003E2007211800324B9847294B00211800314BC8
S214003E3098477B1C1B78012118002F4B98477B1C4A
S214003E401B78002118002D4B98477B1C1B785BB213
S214003E502B4A110018002B4B9847BB1C1B780221DD
S214003E601800254B9847BB1C1B7800211800264BD2
S214003E709847BB1C1B785BB2244A11001800214BE4
S214003E8098471823FB181B78022118001A4B9847EE
S214003E901823FB181B78002118001B4B9847182383
S214003EA0FB181B785BB21A4A11001800154B98478E
S214003EB0074B1800174B9847C046BD4603B090BD49
S214003EC000180040073500000004004031350000AF
S214003ED000040043B81B00208D0500006538000074
S214003EE0B93800000C000100113900002939000023
S214003EF0413900008B3900001D3D0000BD3C00002C
S214003F0002003000F93C00005D3D00000300360072
S214003F1003003700E538000080B582B000AF786057
S214003F200A00BB1C1A80C0461A4B18001A4B98474A
S214003F3003001A0001231340DBB2002BF4D0154B0C
S214003F4001211800154B9847BB1C1B88114A190005
S214003F501000134B9847C0460E4B18000E4B984760
S214003F6003001A0004231340DBB2002BF4D0094BE5
S214003F7004211800094B9847064B1800094B984730
S214003F800200BB1C1A80BB1C1B881800BD4602B072
S214003F9080BDC04600040043833800009938000006
S214003FA0733900005F39000090B585B000AF7860C7
S214003FB00C0010001900FB1C221C1A70BB1C021CF3
S214003FC01A707B1C0A1C1A70FB1C1978BB1C1A780A
S214003FD00F23FB1878683024C90141188A18121973
S214003FE012781A700F23FB180F22BA1812780F21B6
S214003FF08A431A707B1C1B780F221340D9B20F23FA
S214004000FB180F22BA1812780A431A70FB1C1A788B
S214004010BB1C1B7879683020D2018A18D3181B186D
S2140040200F22BA1812781A70C046BD4605B090BD69
S21400403090B585B000AF78600C0010001900FB1C2E
S214004040221C1A70BB1C021C1A707B1C0A1C1A70DD
S214004050FB1C1978BB1C1A780F23FB1878683024D1
S214004060C90141188A18121912781A700F23FB1802
S2140040700F22BA1812780F210A401A707B1C1B7880
S2140040801B01D9B20F23FB180F22BA1812780A4365
S2140040901A70FB1C1A78BB1C1B7879683020D2017A
S2140040A08A18D3181B180F22BA1812781A70C0462E
S2140040B0BD4605B090BD90B585B000AF78600C00E9
S2140040C010001900FB1C221C1A70BB1C021C1A7064
S2140040D07B1C0A1C1A70FB1C1978BB1C1A780F2351
S2140040E0FB1878684024C90141188A1812191278FA
S2140040F01A700F23FB180F22BA18127801218A4370
S2140041001A707B1C19780F23FB180F22BA18127826
S2140041100A431A70FB1C1A78BB1C1B78796840206F
S214004120D2018A18D3181B180F22BA1812781A70E0
S214004130C046BD4605B090BD90B585B000AF78606E
S21400414039607B685A090F23FB181A707B68DAB24D
S2140041500E23FB181F210A401A703B6801330AD150
S2140041600E23FB181A780F23FB1819781B48002318
S2140041701B4CA0472EE00E23FB181A780F23FB18C3
S214004180197816480123164CA0470E23FB181B78F7
S214004190012213400FD00E23FB181B785B08DAB2FF
S2140041A03B68D8B20F23FB1819780C4C030020008C
S2140041B00C4CA0470EE00E23FB181B785B08DAB207
S2140041C03B68D8B20F23FB181978044C0300200074
S2140041D0054CA047C046BD4605B090BD002800402F
S2140041E0B740000031400000A93F000080B582B013
S2140041F000AF786039603A687B6811001800034B9E
S2140042009847C046BD4602B080BDC0463941000052
S21400421090B583B002AF3848012301930123009381
S214004220002301221121354CA047354B98473548CD
S21400423000230193002300930023002214212F4C17
S214004240A047A0235B03190014202F4B98472F4844
S2140042500023019300230093002300221521274CFE
S214004260A047A8235B0319001520274B984728482A
S2140042700023019300230093002300222C211F4CCF
S214004280A047B0239B0319002C201F4B98472148BA
S2140042900023019300230093002300222D21174CB6
S2140042A0A047B4239B0319002D20174B98471A48A4
S2140042B00023019300230093002300222E210F4C9D
S2140042C0A047B8239B0319002E200F4B984713488E
S2140042D00023019300230093002300222F21074C84
S2140042E0A047BC239B0319002F20074B9847C046C6
S2140042F0BD4601B090BDC046281D0020515C01009F
S214004300E5010000701C0020ED410000841C002028
S214004310981C0020AC1C0020C01C0020D41C0020D0
S21400432080B582B000AF0200FB1D1A70FB1D1A7824
S2140043300F4B9200D358002B15D0FB1D1A780C4B50
S2140043409200D3581B69002B0DD0FB1D1A78084B22
S2140043509200D3581A69FB1D1978054B8900CB5873
S214004360DB6818009047C046BD4602B080BDC04618
S2140043701800002080B500AF0020024B9847C046CA
S214004380BD4680BD2143000080B500AF0120024B32
S2140043909847C046BD4680BD2143000080B500AFAB
S2140043A00220024B9847C046BD4680BD2143000010
S2140043B080B500AF0320024B9847C046BD4680BD7F
S2140043C02143000080B500AF0420024B9847C0464A
S2140043D0BD4680BD2143000080B500AF0520024BDE
S2140043E09847C046BD4680BD2143000080B582B0D8
S2140043F000AF02003960FB1D1A70FB1D1A780C4BCB
S2140044009200D3583A681A61FB1D1A78084B92003E
S214004410D3581B785BB21800FB1D1A78054B920028
S214004420D3581900044B9847C046BD4602B080BD1D
S21400443018000020300000204102000080B584B043
S21400444000AF78600F23FB1800221A7017E00F23C6
S214004450FB1818780F23FB181B785BB29B007A6852
S214004460D3181B6819000B4B98470F23FB181B78B3
S2140044705BB2DBB20133DAB20F23FB181A700F23DC
S214004480FB181B785BB2042BE1DDC046BD4604B0CA
S21400449080BDC046ED43000080B582B000AF02008C
S2140044A0FB1D1A70C046BD4602B080BD80B500AF89
S2140044B000231800BD4680BD90B583B002AF012032
S2140044C00F4B98470F4800230193002300930023C7
S2140044D001220A210C4CA04701200C4B98470948A2
S2140044E00123019300230093002300220A21064C97
S2140044F0A0470620054B9847C046BD4601B090BD74
S214004500994400005C1C0020515C0100355C0100F1
S21400451090B585B000AF0200FB1D1A700F23FB1884
S21400452000221A700E23FB1800221A700F23FC18A4
S21400453009206D4B9847030023700E23FC184D206E
S214004540694B9847030023700F23FB181B785BB258
S2140045507F2213405CB2654BE4229B581800644BE4
S214004560984703005BB223435AB20F23FB181A7016
S2140045700F23FB181B785BB2002B6BDAFB1D1B7836
S2140045805BB2112B08DD0E23FB180E22BA18127828
S21400459007210A431A700CE00E23FB181B785BB247
S2140045A0072293435BB2042213435AB20E23FB182E
S2140045B01A700E23FB181B7807221340072B24D1F2
S2140045C0FB1D1B785BB2042B02DCFB1D05221A7058
S2140045D0FB1D1B785BB2142B02DDFB1D14221A7028
S2140045E00F23FB181B785BB20F2293435AB2FB1DB6
S2140045F01B78053BDBB25BB20F210B405BB213436B
S2140046005AB20F23FB181A705CE0FB1D1B785BB2D6
S214004610012B02DCFB1D02221A70FB1D1B785BB20D
S214004620112B02DDFB1D11221A700F23FB181B78BD
S2140046305BB20F2293435AB2FB1D1B78023BDBB2E0
S2140046405BB20F210B405BB213435AB20F23FB1829
S2140046501A7037E0FB1D1B785BB2002B19DDFB1DC3
S2140046601B785BB20F2B02DDFB1D0F221A700F2387
S214004670FB181B785BB27F2293435BB27022134316
S2140046805AB2FB1D1B7813435AB20F23FB181A703D
S21400469018E0FB1D1B785BB2043302DAFB1DFC221C
S2140046A01A700F23FB181B785BB27F2293435AB213
S2140046B0FB1D1B780433DBB25BB213435AB20F23E5
S2140046C0FB181A700F23FB181B7819000920094BDA
S2140046D098470E23FB181B7819004D20054B98476A
S2140046E0C046BD4605B090BD354E01005C1C00209E
S2140046F0F9460000094E010080B582B000AF786030
S21400470080231800BD4602B080BD000080B582B090
S21400471000AF0200FB1D1A700D4B1B78FA1D1278B5
S2140047209A4211D00A4BFA1D12781A70FB1D1B789C
S21400473001225340DBB2002B03D00120054B9847E3
S21400474002E00020034B9847C046BD4602B080BD3D
S214004750740B00209944000080B582B000AF0200C0
S214004760FB1D1A70C046BD4602B080BD80B582B043
S21400477000AF786001231800BD4602B080BD80B54A
S21400478084B000AFF8607A600B23FB180A1C1A701E
S2140047900B23FB181A78FB68203292007968D150F8
S2140047A0C046BD4604B080BD80B582B000AF78601C
S2140047B07B68DB6908221A437B68DA61C046BD461F
S2140047C002B080BD90B585B000AF78600C001000D8
S2140047D01900FB1C221C1A70BB1C021C1A707B1CC6
S2140047E00A1C1A70FB1C1978BB1C1A780F23FB18BE
S2140047F078683024C90141188A18121912781A707C
S2140048000F23FB180F22BA1812780F218A431A704A
S2140048107B1C1B780F221340D9B20F23FB180F22E4
S214004820BA1812780A431A70FB1C1A78BB1C1B783D
S21400483079683020D2018A18D3181B180F22BA18AC
S21400484012781A70C046BD4605B090BD90B585B0CA
S21400485000AF78600C0010001900FB1C221C1A70B8
S214004860BB1C021C1A707B1C0A1C1A70FB1C1978D5
S214004870BB1C1A780F23FB1878683024C90141182E
S2140048808A18121912781A700F23FB180F22BA18FA
S21400489012780F210A401A707B1C1B781B01D9B2B4
S2140048A00F23FB180F22BA1812780A431A70FB1C43
S2140048B01A78BB1C1B7879683020D2018A18D31866
S2140048C01B180F22BA1812781A70C046BD4605B0DB
S2140048D090BD90B585B000AF78600C001000190050
S2140048E0FB1C221C1A70BB1C021C1A707B1C0A1CA8
S2140048F01A70FB1C1978BB1C1A780F23FB187868F3
S2140049004024C90141188A18121912781A700F2308
S214004910FB180F22BA18127801218A431A707B1CE2
S21400492019780F23FB180F22BA1812780A431A7048
S214004930FB1C1A78BB1C1B7879684020D2018A18A9
S214004940D3181B180F22BA1812781A70C046BD4624
S21400495005B090BD90B585B000AF786039607B68D3
S2140049605A090F23FB181A707B68DAB20E23FB185D
S2140049701F210A401A703B6801330AD10E23FB1828
S2140049801A780F23FB1819781B4800231B4CA047E6
S2140049902EE00E23FB181A780F23FB1819781648FA
S2140049A00123164CA0470E23FB181B780122134048
S2140049B00FD00E23FB181B785B08DAB23B68D8B220
S2140049C00F23FB1819780C4C030020000C4CA04752
S2140049D00EE00E23FB181B785B08DAB23B68D8B2F1
S2140049E00F23FB181978044C03002000054CA04741
S2140049F0C046BD4605B090BD00280040D348000024
S214004A004D480000C547000080B582B000AF786012
S214004A1039603A687B6811001800034B9847C04617
S214004A20BD4602B080BDC0465549000090B583B073
S214004A3000AF78600C0010001900FB1C221C1A70D6
S214004A40BB1C021C1A707B1C0A1C1A707B68FA1CA2
S214004A5012781A70164B402215211800154B9847ED
S214004A60134B402211211800124B9847124B180086
S214004A70124B98471249134B00221800124B9847C6
S214004A80BB1C1B785BB2114A11001800104B9847EC
S214004A907B1C1B785BB20F4A110018000C4B984722
S214004AA0084B18000C4B9847C046BD4603B090BD57
S214004AB0001800407F47000000040040A94700009F
S214004AC0000C0042CC1B00204D0700000200160020
S214004AD0094A000002001700C507000080B584B030
S214004AE000AFF86008007A6019000B23FB18021C60
S214004AF01A700A23FB180A1C1A707A68044B1100F5
S214004B001800044B9847C046BD4604B080BDC0465A
S214004B10CC1B00200108000080B584B000AFF86010
S214004B20B960BB1D1A80BB1D1A88B968064B1800F1
S214004B30064B9847031E01D1012300E0002318000E
S214004B40BD4604B080BDC046CC1B0020E504000076
S214004B5080B584B000AFF860B9603B60BB1D1A80BA
S214004B60BB1D1A88B968094B1800094B9847030003
S214004B709AB23B681A803B681B88002B01D1012340
S214004B8000E000231800BD4604B080BDCC1B00200A
S214004B9039050000B0B582B000AF164B984702004A
S214004BA0154B1A60154DD4239C003B001800144B7F
S214004BB098473A002B1903CA03C3124B1A781021E0
S214004BC00A431A700D4AD8239B00D358002B0CD0EA
S214004BD00A4AD8239B00D358DB68002B05D0074A27
S214004BE0D8239B00D358DB689847C046BD4602B022
S214004BF0B0BDC046E1630100D81B0020780B002042
S214004C00B55E01009C12002090B585B000AFF8603C
S214004C100C00100019000A23FB18221C1A80082317
S214004C20FB18021C1A80FB1D0A1C1A70184B9847AA
S214004C300200184B1A60174BFA685A60154B0A2286
S214004C40BA1812881A81134B0822BA1812885A8189
S214004C50104BFA1D12781A730F4B1A7808210A4364
S214004C601A700E4AD8239B00D358002B0CD00B4A40
S214004C70D8239B00D358DB68002B05D0074AD823DF
S214004C809B00D358DB689847C046BD4605B090BD2C
S214004C90E1630100DC1B00209C120020780B002042
S214004CA080B500AF0D4B1A7804210A431A700C4ADF
S214004CB0D8239B00D358002B0CD0094AD8239B003E
S214004CC0D358DB68002B05D0054AD8239B00D35861
S214004CD0DB689847C046BD4680BDC0469C12002093
S214004CE0780B002080B500AF0D4B1A7802210A43DE
S214004CF01A700C4AD8239B00D358002B0CD0094AB4
S214004D00D8239B00D358DB68002B05D0054AD82350
S214004D109B00D358DB689847C046BD4680BDC0465A
S214004D209C120020780B002080B500AF0D4B1A783F
S214004D3001210A431A700C4AD8239B00D358002B33
S214004D400CD0094AD8239B00D358DB68002B05D02B
S214004D50054AD8239B00D358DB689847C046BD4613
S214004D6080BDC0469C120020780B002080B584B021
S214004D7000AF644A9C23DB00D358C8229B5C022BFE
S214004D8003D0614BDB6A984701E0604B98475D4A69
S214004D90F2239B00D2585E4B110018005D4B9847DB
S214004DA05B4B18005C4B9847564A9C23DB00D35855
S214004DB0C8229B5C022B0CD0524AF3239B00D2588D
S214004DC0564B11001800534B9847544B1800524B43
S214004DD098474C4A9C23DB00D358C8229B5C022B86
S214004DE007D0484A9C23DB00D3584D4A9B5C002BD7
S214004DF024D00C23FB1815221A70424A9C23DB0091
S214004E00D3581B780C22BA1811001800454B984747
S214004E1003001A000823FB181A603A4AF3239B0083
S214004E20D2580823FB181B68D2183F4B11001800F5
S214004E30384B98473C4B1800374B9847314A9C23D1
S214004E40DB00D2582F499C23DB00C9581423FF33BC
S214004E50C95C8A235B00D1542A4A9C23DB00D258C3
S214004E601423FF33D25C3B001A70264A9C23DB00D7
S214004E70D25888239B00D35C002B03D13B00002232
S214004E805A7002E03B0001225A70284B1A683B0019
S214004E905A601C4A9C23DB00D3581B783A0011004A
S214004EA01800234B9847214B1968164AD0239B00BD
S214004EB0D150144A9C23DB00D358194A9B5C01222C
S214004EC05340DBB2002B03D00E4B1A4A00219954F4
S214004ED00C4A9C23DB00D358882252009A5C01328D
S214004EE0D1B2882252009954064A9C23DB00D2583D
S214004EF088235B00D15C034B0F4A9954C046BD46DD
S214004F0004B080BD780B0020E8EF0100D5870000D4
S214004F10100F002089630100C15F0100280F0020E8
S214004F2017020000F1EF0000700F0020D81B0020D1
S214004F3045F00000310400003504000080B500AFE5
S214004F40124AD6239B00D35880221A4311000F4AD8
S214004F50D6239B00D1500D4A9C23DB00D3580C4A25
S214004F609B5C002B02D000200A4B9847074B0A4A4E
S214004F70995C022001439954044B074A995C10201F
S214004F8001439954C046BD4680BDC046780B0020FC
S214004F90170200000167000071040000F0B5A7B01A
S214004FA004AF8023FB1810221A70D84B5B68FB678F
S214004FB07A23FB18D54A12891A807823FB18D34A1D
S214004FC052891A807723FB18D04A127B1A707623F0
S214004FD0FB1800221A700023BB60CD4A9C23DB001E
S214004FE0D3585B6C8422BA1813608323FB18002204
S214004FF01A708223FB1804221A703B1D00221A80A6
S214005000C34BC44A00219954C14B7822BA18C249EE
S21400501012885A52BE4B7722BA18C04912785A5490
S214005020BB4A8E23DB00D15CB94BBD4A9954B84BC2
S214005030BC4A00219954B64BBB4A00219954B44B44
S214005040BA4A00219954B24BB94A00219950B04A45
S2140050508423DB000021D154AD4BB64A002199547D
S214005060AB4BB54A00219954A94A8523DB000021A1
S214005070D150A74BB14A00219954A54BB04A002104
S2140050809950B04BDB6A9847AF4B1800AF4B984728
S2140050907A23FB181A88FB6F11001800AC4B984750
S2140050A0031E0ED09A4B7822BA18AA4912885A5272
S2140050B0974A7723F9188D23DB000978D15400F03E
S2140050C07AFD934A9C23DB00D358C8229B5C012BB5
S2140050D01CD1A14B9847031E0AD000209F4B98472F
S2140050E000209F4B98478A4B8D4A032199540DE028
S2140050F09C4B9847031E09D000209B4B98470020E6
S2140051009A4B9847824B864A042199547623FB187B
S2140051101B787622BA18591C11701A00FB6F9B1860
S2140051201A787423FB181A707423FB181B78032252
S2140051301340DBB2002B07D0754B8D4A01219954E2
S2140051408C4B984700F037FD7423FB181B781B0622
S2140051505B0FDBB2032B00D187E103DC012B0AD007
S21400516000F0FCFC052B00D17BE1072B01D100F001
S214005170C9FC00F0F3FC0C23FB18FA6F1A607A23C4
S214005180FB181B88DAB20C23FB181A71604A9C23A2
S214005190DB00D25888239B00D35C002B13D05C4ADC
S2140051A09C23DB00D2588E239B00D35C0122534005
S2140051B0DBB2002B07D0564B6D4A012199546D4B3C
S2140051C0984700F0F8FC524B5B688022BC180C2213
S2140051D0BA181900FF20684B9847030023708023F5
S2140051E0FB181B78002B00D030E1494A9C23DB00DB
S2140051F0D3580C22BA18527A1A64454A9C23DB000C
S214005200D35843499C22D2008A58116C0C22BA18F3
S214005210927A12020A431A643D4A9C23DB00D35852
S2140052203B499C22D2008A58116C0C22BA18D27ABA
S21400523012040A431A64364A9C23DB00D3580C2215
S214005240BA18D2685A64324A9C23DB00D3580C2220
S214005250BA18127C5206520FD2B21100F522995497
S2140052602B4A9C23DB00D3580C22BA18127C120758
S214005270120FD2B21100FC229954254A9C23DB005F
S214005280D3580C22BA18527C1100E4229950204AB6
S2140052909C23DB00D358E4229B58002B06D11C4AE3
S2140052A09C23DB00D358E42201219950184A9C2302
S2140052B0DB00D35816499C22D2008A58E421525863
S2140052C0FA2189004A43E4215A50114A9C23DB0004
S2140052D0D3580F499C22D2008A58E4215258FA210A
S2140052E089008C466244E8215A500C23FB181B7C2C
S2140052F07F229343DBB2002B42D1054A9C23DB007E
S214005300D3581E4A0021995441E0C046DC1B0020B9
S214005310780B00203404000022040000240400005F
S21400532025040000170400001604000019040000FD
S2140053301C040000210400002604000014040000E1
S2140053402C040000E8EF0100280F00204D62010049
S214005350A3B8000066040000C7B800003FB800000D
S21400536083B80000D3B8000053B8000093B800001C
S214005370150400003D4F0000E1D600001E020000AC
S214005380E24A9C23DB00D358E14A012199546C235E
S214005390FB180C22BA1812321A607A23FB181B88E4
S2140053A0DBB2113BDAB26C23FB181A71D74A9C2386
S2140053B0DB00D3581B786C22BA1811001800D54BA6
S2140053C09847D24A9C23DB00D25888239B000221B0
S2140053D0D154CE4A9C23DB00D358CD4A9B5C002B8D
S2140053E014D0CA4A9C23DB00D358CB4A00219952DA
S2140053F0C64A9C23DB00D358C54A9A5C3B1D1A70EC
S2140054003B1D012219000B20C44B98470020C44BBB
S2140054109847031E03D000210020C24B9847BB4A82
S2140054209C23DB00D2588E239B00D35C002B00D13C
S2140054309BE3B64A9C23DB00D2588E239B000021B8
S214005440D154B94B1800B94B98478EE30020B44BA3
S2140054509847031E00D188E300210720B14B9847E8
S21400546083E3AA4BB24A01219954A84A9C23DB0045
S214005470D2580223FF33D25C6823FB189A70A34AE3
S2140054808323DB00D35C5AB26823FB185A70682368
S214005490FB180C221A709D4A9C23DB00D258162358
S2140054A0FF33D35C002B03D06823FB180D221A7041
S2140054B0964A9C23DB00D3581B786822BA18110042
S2140054C018009C4B984703001A006423FB181A60C8
S2140054D07A23FB181B880D3B9BB21BB21A1C13B217
S2140054E0002B01DA00231A1C12B26423FB181B6877
S2140054F01BB29A4206DD854B8F4A012199548F4B89
S214005500984758E33423FB18FA6F1A607A23FB187F
S2140055101B88DAB23423FB181A713423FB18884A26
S2140055205A623423FB182822FF2199543423FB188F
S2140055301800844B9847031E06D0744B7E4A012100
S21400554099547E4B984736E33423FB189A686F4B82
S2140055507D495A50FA1C3423FB18110018007B4B67
S2140055609847031E06D0694B734A01219954734B22
S214005570984720E38323FB1800221A700023BB60A1
S2140055808123FB1800221A7053E0604A9C23DB003C
S214005590D2588123FB181B785B01D3184C331A684A
S2140055A03423FB189B689A423CD1584A9C23DB0064
S2140055B0D2588123FB181B7854215B01D3185B1843
S2140055C01B78002B2ED08323FB1801221A704F4A1B
S2140055D09C23DB00D1588123FB181A788223FB1802
S2140055E0482052018A18121812781A70474A9C23CB
S2140055F0DB00D2588123FB181B785B01D31850338D
S2140056001B681B68BB60414A9C23DB00D258812381
S214005610FB181B785B01D3184C331B688422BA181E
S21400562013600BE08123FB181A788123FB180132E4
S2140056301A708123FB181B78032BA6D96823FB1846
S21400564014221A70314A9C23DB00D3581B78682238
S214005650BA1811001800374B984703001A00642345
S214005660FB181A60FB1C1D78284A9C23DB00D158C7
S2140056706423FB181B689BB27522BC188722920015
S2140056808E583422B9188222BA1810780822BA180E
S2140056900292FA1D0192009333000A0029002C4D55
S2140056A0A847030023707523FB181B78002B67D0D0
S2140056B07523FB181B78012B4CD1144B1E4A08216E
S2140056C09954124A9C23DB00D358114A9B5C002B4A
S2140056D04ED17423FB181B781F229343DBB2A02BFA
S2140056E046D10A4A9C23DB00D2588F239B00D2580F
S2140056F03423FB18DB6A9A423AD1044A9C23DB0027
S214005700D25886239B000121D15431E0780B00202B
S2140057101E02000011F100003A020000B5BC0000B5
S21400572039C3000011C20000341000204D62010091
S21400573014040000F1EF0000150400003D4F0000C7
S214005740B80D002085E600002C040000F58F000050
S21400575041E100007523FB181B78022B04D1D34BC4
S214005760D34A0A21995403E0D04BD14A01219954D7
S214005770B968CE4A8523DB00D150CE4B98471AE253
S214005780FB1D1A78BD688023FC188423FB18196853
S2140057908223FB1818783423FB1800932B00C64D81
S2140057A0A847030023708023FB181B78002B18D013
S2140057B08023FB181B78022B0CD1BC4BBC4A0B2158
S2140057C09954BA4BBD4A9B5C022B00D1F2E1B94B0F
S2140057D09847EFE1B54BB64A0C219954B54B98471C
S2140057E0E8E1B24BB24A00219954B04B8322BA1872
S2140057F0B34912785A543423FB181B7BDB06DB0FA5
S214005800DBB21900A94BAF4A9954A84BAE4A002107
S2140058109950A64A8423DB000021D154B968A34AD4
S2140058208523DB00D1503423FB181B7B9B06DB0F44
S214005830DBB25A1E9341D9B29C4BA44A99549B4B57
S214005840A34A002199543423FB181B7B9B06DB0FCD
S214005850DBB25A1E9341D9B2944B9E4A9954934A4E
S2140058609C23DB00D358CC22002199508323FB18BD
S2140058701B78012B04D18D4B974A0221995432E0B4
S2140058807423FB181B781F229343DBB2A02B1ED178
S214005890864A9C23DB00D25886239B000121D154E4
S2140058A0824A9C23DB00D3588C4A9B5C002B09D190
S2140058B07E4A9C23DB00D2583423FB18D96A8F23F8
S2140058C09B00D150794B844A012199540BE0774ACA
