S01400004C6F52614D61632D6E6F64652E73726563BE
S214000000303D00203D27000039270000392700003A
S21400001000000000000000000000000000000000DB
S214000020000000000000000000000000392700006B
S21400003000000000000000003927000039270000FB
S2140000403927000039270000F11D00007117000055
S214000050392700003927000039270000392700001B
S214000060392700003927000039270000392700000B
S21400007039270000392700003927000039270000FB
S21400008039270000392700003927000039270000EB
S21400009039270000392700003927000039270000DB
S2140000A039270000392700003927000039270000CB
S2140000B00000000010B5064C2378002B07D1054B36
S2140000C0002B02D0044800E000BF0123237010BDBF
S2140000D0E40A002000000000144E0100084B10B592
S2140000E0002B03D00749084800E000BF0748036814
S2140000F0002B00D110BD064B002BFBD09847F9E72C
S21400010000000000E80A0020144E0100144E010012
S214000110000000000122014B1A707047000B0020FF
S21400012010B504480430044B984700210348044B9C
S214000130984710BD000B0020A5C10000801B0020C2
S21400014091BE000010B504481830044B98470021B3
S2140001500348044B984710BD000B0020A5C10000C3
S214000160801B002091BE000010B584B000226B46B4
S2140001701A70124B19002C310191343302936B46DE
S2140001801A7368460E4B984704000E480E4B984765
S214000190A2000E4BD1580E480E4B9847002C05D0A7
S2140001A004213C23054AD15404B010BD0A48064B2E
S2140001B0984705213C23014AD154F5E7000B00205F
S2140001C0896300003837010001ED000000000020C0
S2140001D0703701006DEC00008437010000B587B071
S2140001E00E4840300E4B984701236A461370684607
S2140001F00C4B984700280BD16B461B79002B09D077
S21400020003213C23054AD15402392033064AD154EF
S21400021007B000BD054B9847FAE7C046000B002024
S214000220A5C100005559000000000020690100002B
S21400023010B5040043780E2B0AD00948094B98479E
S21400024062789200084B9B18196E0848084B98472E
S2140002502378062B00D010BD064B9847FBE7C04618
S214000260A837010001ED00000000002070370100F3
S2140002706DEC0000DD01000070B588B00400254874
S214000280254B984762789200244B9B18196E244899
S214000290244B984762782378002B03D0032B2AD070
S2140002A008B070BD002A23D11F481B4CA0471F482A
S2140002B0A047042302AA137010001D4EB047039BEC
S2140002C0019319001B48174DA8471B48A047282331
S2140002D002AA13701000B04702AB04215956174803
S2140002E0A8471748A04703213C23164AD154D7E70E
S2140002F0154B9847D4E7002AD2D1144B1B78002B15
S214000300CED0124B01329A73227ADA73627A1A745A
S214000310C6E7C046D437010001ED0000000000200B
S214000320703701006DEC0000003801002438010031
S2140003305559000030380100483801004C3801009B
S2140003402C380100000B002069010000341B00203F
S214000350F8B5002916D00139CEB2861904000B4D27
S21400036001273F1A00E0013421780948A8473A19C6
S2140003700F231340B44205D0002BF4D10548064B9A
S2140003809847F0E70348044B9847F8BD6DEC00002B
S214000390643801002C38010001ED0000F0B58DB086
S2140003A00400B348B34B984762789200B24B9B1850
S2140003B0196EB248B24B98476378002B00D083E0A2
S2140003C06379012B44D0AF4B1B78002B03D0AD498B
S2140003D08A8901328A81627B002A3FD0E278002A2D
S2140003E03CD0D1B2022936D9E02937D1002B00D033
S2140003F074E0237B042B31D1A3681A78012A2DD10F
S2140004005A78012A2AD19A78012A27D1DB78012B3B
S21400041024D1002554339C4AD5549C4BE0212422F9
S21400042099540232985CBB39585423399954954BE9
S2140004309D819D73DD731D74253A1A705A7001A84C
S21400044001700271924B98472800924B984705E03E
S214000450914B9847B7E7237B012B37D001218F4874
S2140004608F4B9847884804308E4B984707A98E4B89
S2140004700A0023CB23C203CB03C2237C5AB29F08B5
S214000480002A00DAE7E0616988487D4DA847637C6A
S2140004909B0007AA99588648A847E1788548A84748
S2140004A0237B002B00D0DBE08348724EB0472179D7
S2140004B08248734DA8470E23E15E8148A84739005D
S2140004C08048A8477C48B0470DB0F0BDA3681A78AE
S2140004D00123134054226C498B54BFE7A26813785B
S2140004E068494B70072BB9D89B007749CB589F4675
S2140004F000215523644AD154644B022224201A5406
S21400050001301D5C01301D545E4B9981197001A8A5
S2140005100270012303715E4B984701205D4B98479C
S2140005209CE702212623594AD15497E701235522F6
S21400053055498B54534A537090E700215523524A2D
S214000540D15401224F4B5A7088E7237B26224F490D
S2140005508B54042032324C498854181CF22B01D993
S2140005605A4B1878C0B20123474E582506E0F118BA
S214000570A268D25C01324A550133DBB29842F6DCFF
S2140005806CE701A803230370514B984705005148B8
S214000590384B9847AD00384BE9583848384B9847A1
S2140005A05CE700215523384AD154384B02222420D8
S2140005B01A5401301D5C01301D54324B998119705C
S2140005C001A8027001230371314B98470120314B7B
S2140005D09847414B984741E7237B032B05D0072BD1
S2140005E018D00122274B5A7038E701A80133037050
S2140005F05178090293780B438380354B9847050062
S21400060036481C4B9847AD001B4BE9581B481C4B03
S2140006109847E6E701A8023B0370517809029378F1
S2140006200B438380D3781B04117909020B4351795D
S2140006300B4364214B43836093790373244B9847A1
S214000640050027480B4B9847AD000B4BE9580B4865
S2140006500B4B9847C5E75B421B069B0E5F4212E7B3
S2140006602048044B9847217BA0681F4B98471BE700
S2140006706C38010001ED000000000020703701001A
S2140006806DEC0000341B0020000B002080000020D2
S214000690C95B000049680000DD010000801B0020E7
S2140006A091BE00004DC000001C3701004439010017
S2140006B074390100883901002C3801004C380100DB
S2140006C0AC390100C0390100E4360100E036010013
S2140006D0896300009838010069010000D4380100E1
S2140006E00C3901009C39010051030000F0B58DB0B3
S2140006F004004348434B984762789200424B9B184D
S214000700196E4248424B98476378002B3CD0002332
S2140007106A46137068463F4B9847E1683E483C4E31
S214000720B0473E4F3800374DA8476B461B793C4ACA
S214000730D15C3C48B0473800A8473B4D4C356978FB
S2140007403A48B047AB78002B27D134482D4B984712
S214000750A17837482E4B984706A81C2303702D4BCC
S2140007609847002836D0032161563248284B9847D0
S21400077006A81F230370274B9847002834D0274825
S214000780204B98470DB0F0BD00212B482B4B9847C7
S2140007902B4818302B4B9847B9E72B481C4B9847EB
S2140007A04C23214AD35C012B0AD02848154B984786
S2140007B01D4B1A004C329178186D254B9847C4E7AC
S2140007C02379002B04D123492348114B9847EFE7A0
S2140007D02249F9E7226953009B189B00079A99580B
S2140007E01F480B4B9847BEE71E48094CA047079B7F
S2140007F019881D48A0470948024B9847BFE7C046DE
S214000800E039010001ED0000000000207037010013
S2140008106DEC0000555900000C3A01002C38010020
S214000820D83A01003C3A0100000C0020503A010082
S2140008304C380100AC3A0100801B002091BE00003D
S214000840000B00204DC00000643A0100883A010009
S21400085051030000D8390100743A0100D439010070
S214000860983A0100C03A0100D03A0100F0B5DE46E1
S21400087057464E464546E0B597B0D14B9847D14BC4
S2140008809847D14B1293D14B1393D14B1493D14B22
S2140008901593D14B0E9300240F94D04B1093D04B4E
S2140008A0119305220EA912A8CE4B98473C23CE4A98
S2140008B0D454CE48CE4B9847CE4B9A46CE4ECA4BD3
S2140008C040330093CD4B98464C23434401930AE0B3
S2140008D0CB4B9847002817D1CA48C54B98470121EB
S2140008E03C23C14AD154D047336E002B00D09847E2
S2140008F0C54B9847BC4A3C23D15C052900D993E2F6
S2140009008B00C24AD3589F4608AC05232370C04DBF
S2140009102B00283309932000BE4FB84706232370C8
S214000920383565602000B8472C23AF4AD35C002BCF
S21400093026D113002C335B78002B21D113002C33E7
S2140009409B78002B1CD113002C33DB78002B17D19F
S21400095013002C331B79002B12D113002C335B7938
S214000960002B0DD113002C339B79002B08D11300DC
S2140009702C33DB79002B03D110002C30A64B984784
S2140009809E4B5B6D002B2CD008AC032323700023FA
S214000990636020009F4DA84704232370974B5B6D30
S2140009A063602000A84709232370994F3B00483313
S2140009B063602000A8470A2323703B005833636017
S2140009C02000A8470B2323703B0068336360200099
S2140009D0A8470C2323703B00783363602000A847A9
S2140009E07DE78E4B98478E4B98478E4900208E4B5E
S2140009F09847824B5865C7E77B4C200040308B49B0
S214000A008B4FB847250018358A492800B847192162
S214000A102800894DA847043488492000B847192182
S214000A202000A84708AC1A2323700127277120004E
S214000A30784B9946984702239B46237027712000DF
S214000A40C84701207E4B98471E2323707D4D09AB77
S214000A502A00143203CA03C32000C8471D2323708C
S214000A6009AB143506CD06C32000C8472B232370D8
S214000A70173B63602000C847002323705B46237142
S214000A802000C847704B9847277020006F4B984748
S214000A90002800D027E708AB1B79002B04D10221E1
S214000AA03C33514AD1541EE703213C234E4AD154CD
S214000AB002392033664AD15415E72C234A4AD15CC2
S214000AC06448654B98470125474C2C34624F295D96
S214000AD06248B8470135082DF9D16148444B98471C
S214000AE03423414AD15C5F485B4B9847073D3E4CF8
S214000AF03434594F295D5948B8470135082DF9D186
S214000B0057483B4B98473823414AD15C5648524B8E
S214000B109847073D3E4C38344F4F295D5348B847F9
S214000B200135102DF9D15248314CA0475148A04705
S214000B305148A047314B596D5048474CA047482371
S214000B40334AD15C4E48A0470F3D314C4834424FA3
S214000B50295D4648B8470135102DF9D14048244B49
S214000B60984778232A4AD15C46483B4B98470F3D26
S214000B70274F7837384CE95D3C48A0470135102DA3
S214000B80F9D13B481A4B984708AC302323703E4BAC
S214000B90099320001F4DA8470123237023712000CE
S214000BA0A84703213C23104AD1549CE65C23284ADC
S214000BB0D35C002B6AD104213C230B4AD15492E625
S214000BC0C50E0000A50E0000ED0600009D03000007
S214000BD07902000031020000630F0000890E000059
S214000BE0150100006D530000000B0020DC3A0100E8
S214000BF001ED0000A5C200007C400100000C0020B2
S214000C008F0E00001C3B0100254500000437010044
S214000C1080000020C95B0000610F00005D0F00002F
S214000C20651E0000FFFFFF01711E0000DD010000D1
S214000C303DC00000450100003DC20000210100004B
S214000C40496800001C37010079580000555900001B
S214000C5000000020483B01006DEC00005C3B0100FA
S214000C602C380100643B0100783B01008C3B0100FE
S214000C704838010000380100943B0100303801007C
S214000C80A03B0100B43B0100000001012423694A97
S214000C90D35C022B31D0DBB2E02B3AD02623654A58
S214000CA0D05C03A9644B9847002860D004AB0022B0
S214000CB01A7006929A819A7304A80378013B5942E7
S214000CC059414C22434699540379019A537043463E
S214000CD08168196583899370584B98470400584873
S214000CE0584B9847584DA30059595848584B984761
S214000CF0631E9C415C23EC545DE74E4B012226218B
S214000D005A5401395A54534B5332995C043299540D
S214000D10C4E7514B9B7B002B09D14F4B5B78012BD3
S214000D2018D0042BBAD101224B4B5A70B6E74A4A68
S214000D3000239373032026333E49C854454B0230A4
S214000D40582158545833D17B5970117C997001231F
S214000D505370A3E702212623364AD1543E4B9A8984
S214000D603C4B100A5631585458335A7096E7552360
S214000D70384AD35C002B0ED104AB002119702D48E5
S214000D802422825C1A71334A583206922622825CEA
S214000D909A81997390E704AB01221A702549233291
S214000DA08A5C1A712B4A5832069226228A5C9A81ED
S214000DB000229A7380E705213C23264AD154264B0D
S214000DC01B78002B0CD0254A254B9A65244B996D31
S214000DD0009C2000234B98472000234B984782E531
S214000DE0FA2189002148224B98471C4B9C466044B8
S214000DF01B4B9865EAE71F4B984700280CD004A8C1
S214000E001D4B9847134B1B78012B09D01B4B98475B
S214000E1004A81B4B984766E51A480A4B9847EEE726
S214000E2000220C4B1A70F3E701213C23094AD154E7
S214000E3059E5C046800000208D580000AD660000D1
S214000E40C83B010001ED00000000002070370100E3
S214000E506DEC0000000B0020341B002088130000FF
S214000E60000C00203DC200004DC0000018FCFFFF33
S214000E70711E00008B0E0000930E0000670F00002E
S214000E809D0E0000F43B01007047012070470120D2
S214000E907047EFF31083036072B67047036883F3FE
S214000EA01088704710B582B000230193009301228A
S214000EB02A210248024CA04702B010BD801B002029
S214000EC075BE000030B585B0184B98471848194BCA
S214000ED0984740218C23184AD150184A51697533D7
S214000EE0FF330B435361164B9847164C17231622B5
S214000EF000212000144DA84700230293019300937D
S214000F00E122120302212000104CA04701235B427D
S214000F10019338330093073B362200210C480D4CD2
S214000F20A0470D4B984705B030BDC04629160000B7
S214000F3010E000E0591100000018004000040040D6
S214000F40111F0000481B0020B1C20000C9C20000EB
S214000F507C1C0020E12000007D230000002070475C
S214000F6070470020704772B662B67047F0B583B01F
S214000F700E0001926B469D88054C064F2A003100F4
S214000F802000B8470028F9D1019803B0F0BDC0464C
S214000F90481B0020EDC20000F0B583B00C00160020
S214000FA0002301930A4D0B4FB2B201AB210028007B
S214000FB0B8470028F8D1064D074E6B469A882100A0
S214000FC02800B0470028F8D1019803B0F0BDC0460D
S214000FD0481B0020F9C20000EDC2000010B580B228
S214000FE0014B984710BDC0466D110000002812D076
S214000FF000228256531C0DD0D2B253091F20104037
S21400100001228240002907D1DB01C021C9058C4698
S21400101063445A617047FEE7DB01C021C9058C4670
S21400102063449A61F6E7000070B504AB1C78017063
S2140010304B1C6FD0002A52D1C9B21F231D000D4091
S2140010400132AA404909C901C025ED054D196A605B
S2140010501604360C324D3543324EB44661448D622A
S214001060120C314D2A438A6201784A090B40012C42
S21400107013D0002C07D0022C20D091222B49002020
S2140010802B4B984746E0D2019B182A4A9446634465
S2140010901A7804218A431A703CE001219940D20153
S2140010A0C020C005101841609B18224A944663442D
S2140010B01A78042422431A7081612BE0012199409A
S2140010C0D201C020C005101841609B18194A9446EA
S2140010D063441A78042422431A7041611AE0C9B2A4
S2140010E01F240C400123A3404909C901C024E4057C
S2140010F00C19A3601D042D0C8024E4052C43094D17
S214001100AC4661448C621B0CC024240623438B62CD
S214001110012A00D070BD0599074B9847FAE7C046EC
S2140011200000024000280040000002C0143F0100FA
S214001130DD15000040280040ED0F0000EFF310839F
S214001140036072B6BFF35F8F7047BFF35F8F0368AD
S21400115083F310887047000010B5024B1860024BEE
S214001160984710BD5C0C0020BD1C000010B5044B59
S2140011701C68044B984701002000034B984710BD9D
S2140011805C0C002021160000D11C0000F8B50626D5
S2140011900025FF239C460E4F0AE0DB000C4C1B5933
S2140011A0002B0FD09847F8BD0139CEB2AE42FAD325
S2140011B073195B10D9B262461340DA00BA18526847
S2140011C08242EAD08242EFD20131CDB2EEE7C0468B
S2140011D0600C002010B5074B180030300121494242
S2140011E0002259601A6008338342FAD10248034B42
S2140011F0984710BD600C00208D1100006916000095
S214001200F8B5DE4657464E464546E0B5324B5B6877
S21400121098421DD0304A01231C00D568854218D05C
S21400122001330832062BF7D100294DD02A4B1A6815
S2140012300123002A4BD0284CDEB21D00DA001259DA
S214001240002A0FD00133062BF6D10D20404235E0A0
S2140012500024E400204BE15000292CD100211F4B34
S21400126098472BE01C4BED00E9505D196860052E91
S21400127021D8194DF700BA46AA442B003035BB4694
S2140012805446994602E008339D4214D01A00596825
S21400129066688E42F7D20131F5D0196888465968DB
S2140012A08C4649465944C0C9C0C2424651460A60A7
S2140012B062464A60E7E70121084B98473CBC9046E7
S2140012C09946A246AB46F8BD0D204042F6E7024BD3
S2140012D0196058600026CCE7600C00200917000053
S2140012E070B506000C00150000280DD00800431E3F
S2140012F09841C0B23E220549054B984733682A00FC
S21400130021003000984770BD0020F3E7443F0100FD
S214001310DD15000070B506000C00150000280DD085
S2140013200800431E9841C0B247220549054B98471E
S21400133073682A0021003000984770BD0020F3E74C
S214001340443F0100DD15000070B504000D000028C4
S21400135016D00800431E9841C0B2422209490A4BE3
S2140013609847256029002000084B9847002806DB90
S214001370074B2382074BE360074BA360002070BD3A
S2140013800020EAE76C3F0100DD150000551A00005A
S2140013900080FFFF21140000E513000030B587B081
S2140013A004000D00002814D00800431E9841C0B267
S2140013B0BD220949094B98472B6803936B68049331
S2140013C0AB680193059303A92000054B984707B027
S2140013D030BD0020ECE7C0466C3F0100DD15000084
S2140013E0AD1B000070B584B004000E001500431E4F
S2140013F09841C0B2AD220749074B98470023029395
S214001400019603952000083801A9044B984704B0BC
S21400141070BDC0466C3F0100DD1500009D13000046
S21400142070B584B004000E001500431E9841C0B28B
S21400143091220749074B984702960023019303958C
S2140014402000083801A9044B984704B070BDC04678
S2140014506C3F0100DD1500009D130000F8B5CE4678
S214001460474680B504000F009046002821D000298A
S21400147021D01000431E9841FB221049104B98477C
S2140014800834104D2000A8470028FBD000260E4B3D
S21400149099460C4DB95D2000C8472000A847002893
S2140014A0FBD001364645F5D330000CBC9046994635
S2140014B0F8BD0020E0E70020DEE7C0469C3F0100C4
S2140014C0DD150000411A0000311A0000F8B5CE46BE
S2140014D0474680B504000F00904600281DD000291E
S2140014E01DD01000431E98411622FF320D490E4BA8
S2140014F09847002608340D4D0D4B99462000A84706
S2140015000028FBD02000C847B85501364645F5D31D
S21400151030000CBC90469946F8BD0020E4E7002059
S214001520E2E7C0469C3F0100DD1500004B1A0000B4
S214001530391A000070B505000C00002813D008000A
S214001540431E9841C0B23E220849094B98472800DE
S21400155008302100074B9847002803D1064B6B60E4
S214001560064B2B6070BD0020EDE7C0469C3F010097
S214001570DD150000E1190000CD1400005D14000028
S21400158010B50400431E9841C0B25D220449054BC5
S214001590984720000830044B9847002010BDC046EE
S2140015A09C3F0100DD1500000D1A000070B5040018
S2140015B00D00431E9841C0B28A220549054B984744
S2140015C0200008302900044B9847002070BDC04614
S2140015D09C3F0100DD150000211A0000002800D104
S2140015E000BE70470300064A1268002A04D0044A68
S2140015F01068C318136070470249014A1160F6E785
S214001600900C0020303D002001204042704780238F
S2140016109B014B60002070470120704700207047F8
S214001620FA239B015843704710B5084B5A685A6016
S2140016300220074B9847074B9847074B9847074B9E
S2140016409847074B9847074B984710BD0040004106
S214001650D318000095180000B1180000811800008B
S21400166055180000D1180000234901224B681A4281
S214001670FCD1214903224B681A42FCD11E4B1B7831
S2140016809B0736D41C4901224B681A42FCD11A4AE1
S214001690137801210B431370110001224B681A4284
S2140016A0FCD1154903224B681A42FCD1124B1A781A
S2140016B010218A431A7000225A709A6088225203B8
S2140016C0DA610E4A1A62190003224B681A42FCD1EC
S2140016D0094A137802210B431370094B08227E3106
S2140016E05A500131FF315A501A60064B18600020DC
S2140016F0704711204042FBE7002400400000111113
S21400170000E100E0940C0020142815D015280BD01A
S2140017102C280BD02D280BD02E280BD005232F28B5
S2140017200BD0012040427047012306E0022304E06C
S214001730032302E0042300E00023DB000A4A9A5C4D
S214001740FF2A0ED0002906D101239340074AD36012
S21400175053610020E7E701239340044A1361002009
S214001760E1E701204042DEE7CC3F010000240040D4
S214001770F0B5D6464F464646C0B582B02F4B5A699E
S2140017800192019A5A612E4B1868431E9841C0B2C6
S214001790F0222C492C4B9847019B002B48D0012364
S2140017A05B429A46294B9846294B99461D0038E0DD
S2140017B00323DB004B445B689A465346013303D051
S2140017C01F4B1B6850469847019B0122A24093433B
S2140017D0019301981D4B9847013844B2631C18D0FA
S2140017E00D2CE5D00D27032200260621FF200BE056
S2140017F0013AD1B28E42E0D88B195B10DAB20340C0
S214001800DF007F5DA742D4D0BC42F1DD0132D6B204
S214001810F0E70A4B5A690192019A5A61019B002B24
S21400182006D00198C047013844B2631CD8D1F0E70F
S21400183002B01CBC90469946A246F0BD002400406B
S214001840940C0020FC3F0100DD150000B5C9000027
S214001850CC3F0100064B074A1A625A620649996253
S2140018600649D9621A635A639A63DA637047C046B8
S21400187000180040060101000611010003010100E6
S214001880034B08229A71043A5A71033A1A71704748
S214001890000400405622054B5A611900553ACB68A1
S2140018A01A42FCD00422014B1A6170470010004017
S2140018B08E22064B1A7519007E3ACB681A42FCD067
S2140018C0024A137D80210B4313757047000C0040BD
S2140018D070478023DB05FF229A719B78FC3A134001
S2140018E0984206D08021C9058B7893431040184350
S2140018F088708022D2059379002BFCD070470000B8
S21400190070B582B004000D000322E3691A42FCD1D0
S2140019102668B607F60F0322E3691A42FCD123684D
S21400192002229343236001A80B4B98470222E369E7
S2140019301A42FCD1ADB2A58101A8084B98470322F4
S214001940E3691A42FCD123680222934376001E43C1
S214001950266002B070BDC0463D1100004B1100006D
S21400196010B50400194B984203D083031B0E032BBB
S21400197005D09122920016490020164B9847012266
S214001980E3691A42FCD10322E3691A42FCD12368B8
S2140019909B0717D40122E3691A42FCD1236801226F
S2140019A013432360E3691A42FCD10B4B2360C02328
S2140019B09B026360094BA3810023A3733022A354C8
S2140019C0002010BD11204042FBE7C0460004004343
S2140019D050400100DD150000040010408AFDFFFFA6
S2140019E070B505000C00431E9841C0B2BF220449E2
S2140019F0044B98472C602000034B984770BDC046A8
S214001A0050400100DD150000611900000268032146
S214001A10D3691942FCD1136802210B431360704747
S214001A2010B50068014B984710BDC046011900006C
S214001A30036889B2198570470368188DC0B270476D
S214001A400368187E0123184070470368187E400715
S214001A50C00F704770B506000C004A4B99420CD078
S214001A608B031B0E052B08D0002800D179E0002937
S214001A7000D07EE00025002006E0002E4DD0002C91
S214001A8048D0414D18350120404A4149414B9847BE
S214001A90002D60D00122E3691A42FCD10322E369DB
S214001AA01A42FCD123689B0758D40122E3691A42E4
S214001AB0FCD12368012213432360E3691A42FCD158
S214001AC034601C232A681340082B29D02000431EAC
S214001AD09841C0B28E2212012D492E4B98472E4BAC
S214001AE02A68134023602D4A6B681A4080239B02A5
S214001AF0134363602B7B23736A7B3023E2540723F4
S214001B006A6813405A1E934101333371EB89F380A0
S214001B10002070BD1C4D1835ADE71B4D1835AAE7E3
S214001B202000431E9841C0B21D4A1949194B9847D8
S214001B30194B2A68134023601A4A6B681A401A4BDE
S214001B4013436360AB6863626A7B3023E254E369E5
S214001B50002BFCD1D3E70D204042DAE711204042AB
S214001B60D7E70A4A0A4900200A4B98470D20404208
S214001B70CFE7064A06490120064B98470D2040420B
S214001B80C7E7C046000400432440010016090000D1
S214001B9050400100DD150000FCFEFFFFBF1DFDFFED
S214001BA0F4080000BFDDFDFF40020200F0B5DE468F
S214001BB057464E464546E0B583B081460E0004685B
S214001BC00B6898464D6803790193002815D02000CD
S214001BD0431E9841C0B2364A3649374B9847E369A8
S214001BE05B073FD10323E0691840FCD123689B07BD
S214001BF03BD5020001239C4609E00020EBE70135B7
S214001C0001325BB2002B16DBB368834227D9237EF2
S214001C10DBB2042119422BD0A76A002DF0D02F701A
S214001C2001990129EBD93F0A6F700235E8E70121D7
S214001C308B46D84437E001235B42638381332376A7
S214001C40132040420322237E1342FCD00323237634
S214001C5003B03CBC90469946A246AB46F0BD9342C4
S214001C60D5D8EFE704204042F2E714204042EFE7E1
S214001C709042C6D867461F42C3D04F46FF88BA4632
S214001C804746002F0FD03F78BA4601990129CED992
S214001C9047467F783F02BB46574659460F43BA46EB
S214001CA002218B46D84401305746A762A9E7C046B2
S214001CB0720A000050400100DD150000024B034A86
S214001CC05A6005221A60704710E000E0FFFFFF0030
S214001CD070B50B0E5E1EF6B2002B13D034000E4A03
S214001CE00E4D802040025560956013680342FCD07C
S214001CF0013CE4B2FF2CF6D13306F61A084B9C469C
S214001D0061447118044B5960996019008022520290
S214001D100B681342FCD070BD10E000E0FFFFFF0030
S214001D20010000FF154A516980235B000B43536195
S214001D300122134B1A8019000B691A42FCD1104B72
S214001D40104A1A80802252005A60012149421962C4
S214001D505A8105310C4A116000229A611900083236
S214001D600B691A42FCD10649084A0B691342FCD19A
S214001D70034A138802210B43138070470004004077
S214001D80002000400080FFFF00E100E0038000002C
S214001D90014B18607047C046980C0020014B5860F5
S214001DA07047C046980C0020094B18621900094A73
S214001DB00B691342FCD1064B9B69C31A591E064A8F
S214001DC00020914203D80930984280414042704733
S214001DD0002000402F800000FEFFFF7F03490822FE
S214001DE00B691A42FCD1014B9869704700200040ED
S214001DF010B50D4B9B899BB2DA0509D5802252009F
S214001E00094B9A81094B1B68002B00D0984710BDE0
S214001E101BB2002BFBDA064A034B9A81034B5B6826
S214001E20002BF4D09847F2E700200040980C0020E2
S214001E300080FFFF10B5064B06481A685043064A56
S214001E409446604418600549054B9847080010BD45
S214001E50080100206D4EC64139300000FFFFFF7FAD
S214001E6019C70000014B18607047C04608010020E3
S214001E7070B505000C00044B9847611B0131034BFD
S214001E809847481970BDC046351E0000EDC80000D2
S214001E9010B5541EA4B2002A06D001340023CA5C32
S214001EA0C2540133A342FAD110BD531EC0189BB2D0
S214001EB0002A07D0DA43821801380B7843700131C4
S214001EC09042F9D1704710B5541EA4B2002A06D02D
S214001ED0030001340019197001338342FBD110BD91
S214001EE07047000010B5034B00229A601A73024B2D
S214001EF0984710BDA00C002005C1000010B5024B8D
S214001F009847024B186010BDDD1D0000A00C002095
S214001F1010B50A4B5B7B002B00D010BD084B9847D2
S214001F200848094B98470948094B9847034C002333
S214001F30A360084B984701236373EEE7A00C0020CC
S214001F40251D0000E51E0000911D0000E11E00009A
S214001F509D1D0000FD1E0000014B18687047C0461E
S214001F60A00C002003207047704783059B0DFA22C3
S214001F70920053439B0A800A50431818704700008B
S214001F800022014B9A607047A00C002010B582B06A
S214001F90040001A80E4B98470E4B5C6001221A7392
S214001FA0002199739A60186820180B4B98470028F0
S214001FB008D1084B1B7B002B04D0064B01229A73DA
S214001FC000221A7301A8054B984702B010BDC04600
S214001FD0930E0000A00C0020A91D00009D0E00001E
S214001FE010B5014B984710BD8D1F000010B5014B72
S214001FF0984710BDDD1D000010B5034B9847034BF6
S2140020001B68C01A10BDC046DD1D0000A00C0020D5
S21400201070B50500044B984704008005800D034BFF
S21400202098472880A00A70BDDD1D00006B1F0000C9
S21400203030B583B005000C0001A8054B9847054B4A
S2140020401D615C6101A8044B984703B030BDC046D3
S214002050930E0000A00C00209D0E000030B583B04B
S21400206005000C0001A8064B9847064B1A692A6023
S2140020705B69236001A8044B984703B030BDC04697
S214002080930E0000A00C00209D0E000000B583B04B
S21400209001A80E4B98470E4B9B68012B04D001A855
S2140020A00C4B984703B000BD094B9B7B002BF6D02A
S2140020B0094B9847064B5B689842F0D3044B0022C6
S2140020C09A609A73054B9847E9E7C046930E00005E
S2140020D0A00C00209D0E0000F91F000005C10000A6
S2140020E0F0B5CE46474680B583B001921D000AABD8
S2140020F000269E578A4B4022E0215A5004395A50F7
S214002100884A136ADA390B43136287498748884B33
S214002110984785490122CB691A42FCD1824901229F
S214002120CB691A42FCD1804A136801210B43136025
S21400213011000122CB691A42FCD17B4B7D4A1A6002
S214002140802292025A6007221A730021293299547B
S214002150E9B2113A0A40012399461F0097404B09FD
S214002160DB01C024E405A4469C44644667603C0446
S214002170240CA046704CA4464446604604436F4870
S214002180804643449C623F0C6D4807439F629B1801
S21400219040331F78042087431F70ED042D0EEB019B
S2140021A0D3186848844663441F78484687433800F7
S2140021B0012738431870CB0700D58AE05208ED0196
S2140021C05219614B9C46624413780F218B430D399C
S2140021D00B4313706B4618791F2303400125290013
S2140021E099404209D201C024E405A44694446446BA
S2140021F0A1600F043C0C8027FF0527434F4CA046E8
S214002200424497620C0CC0273F06274397626246FB
S2140022105161019AD404240EE2019A1849498C4669
S21400222062441178A94329431170C2075ED45B0843
S214002230E4011B19444A944663441A780F218A43E2
S2140022400C390A431A70F0B21F2303400124210000
S21400225099404209D201C025ED05AC469444654636
S214002260A9600F043F0C8025ED053D43334FB8466B
S214002270424495620F0CC0252D063D43956262468A
S2140022805161F604360EF2019A182E498C466244C5
S2140022901178A14321431170C20734D45B08F601BC
S2140022A09E19294B9C46664433780F2293430C3A7A
S2140022B0134333701C490322CB691A42FCD11A4AD5
S2140022C0136802210B43136003B00CBC904699467A
S2140022D0F0BD5208ED0155191B4B9C4665442B7802
S2140022E00F221340113213432B7073E75B08E4018F
S2140022F01B19154A944663441A780F210A40213167
S2140023000A431A709FE75B08F6019E190E4B9C461F
S214002310664433780F221340213213433370C9E7E3
S2140023200018004000040040000400438C1B0020FE
S214002330491300000C000100000002400028004085
S214002340000002C040280040302800400948012212
S214002350037E1342FCD0074B01221A7699621900BD
S21400236003320B7E1342FCD0024B04221A76986A84
S21400237080B270470004004301207047F0B5DE4687
S21400238057464E464546E0B583B04D4E0127019769
S214002390009700230122112130004A4CA046A04796
S2140023A0494B98473000703800250195009500236A
S2140023B000221421A047454C5422A35CBB430121B4
S2140023C0894649460B43DBB2A3543A239A46E35C5C
S2140023D0453A934693435246A354300064380195D9
S2140023E00095002300221521C0475522A35CBB435D
S2140023F049460B43DBB2A3545346E35C463A1340CC
S2140024005246A35430005838019500950023002208
S2140024102C21C047CC22A35CBB4349460B43DBB20E
S214002420A354B6239A46E35C5A4693435246A354B3
S21400243030004C3801950095002300222D21C0471E
S214002440CD22A35CBB4349460B43DBB2A3545346A1
S214002450E35CBE3A13405246A35430004038019520
S2140024600095002300222E21C047CE22A35CBB434A
S21400247049460B43DBB2A354B7239A46E35C5A465D
S21400248093435246A35430003438019500950023F8
S21400249000222F21C047CF22A35CBB4349460B43F3
S2140024A0DBB2A3545346E35CC03A13405246A354EF
S2140024B003B03CBC90469946A246AB46F0BDC0462B
S2140024C0A41C002075BE0000D511000000280040A6
S2140024D070B5050001681420084CA04769681520EF
S2140024E0A047A9682C20A047E9682D20A0472969A5
S2140024F02E20A04769692F20A04770BD011200005A
S21400250000207047F0B583B00C4F0024019400946F
S214002510002301220A213800094EB0470120094D48
S214002520A847012301930094002300220A213800C3
S214002530B0470620A84703B0F0BDC046281C0020C0
S21400254075BE000069BE000070B505000920214C6C
S214002550A04706004D20A047112D1EDD072404438A
S214002560E4B270B2E3435B071DD02B1C012D2EDDB9
S2140025701A1C5BB2112B00DD1122023A0F210A4011
S2140025808F391143702606403143C9B20920124DD7
S214002590A84721004D20A84770BD07239843042470
S2140025A00443E4B2DDE72B1C042D00DC0523191CD4
S2140025B05BB2142B00DD142105390F230B4080215C
S2140025C049421943702606403143C9B2DEE702236A
S2140025D0CEE7C046DD9900001D990000034B1B782E
S2140025E0834201D0014B18707047C046B80C0020DB
S2140025F07047000070B515001C000170334B402278
S214002600D4215A5010395A50314AD369BC390B4339
S214002610D36100222F493048304B9847EEB21F2333
S2140026203340EA04120ED10159182D4884466144FD
S21400263008780125A84328430870F1072CD45B08C6
S214002640D2019B18274A944663441A780F218A437E
S2140026500D390A431A70E0B21F220240E404240E29
S214002660E301D3181E498C46634419780125A94313
S21400267029431970C3071CD45208E4011219194BD8
S2140026809C46624413780F218B430D390B4313701D
S2140026901148154B984770BD5B08D2019B18114A2C
S2140026A0944663441A780F210A4011310A431A707F
S2140026B0D1E75208E40112190A4B9C46624413788B
S2140026C00F210B4011310B431370E1E70018004057
S2140026D000040040000C0042A01B0020351500003E
S2140026E040280040302800408115000010B5110039
S2140026F00148024B984710BDA01B0020AD150000F6
S21400270010B50348034B984743425841C0B210BD2A
S214002710A01B0020E112000010B51C000448054B69
S214002720984780B2208043425841C0B210BDC04690
S214002730A01B002015130000FEE7000010B51A4A83
S2140027401A4B9A4211D01A00194B9A420DD2194AC6
S21400275003339B1A9B0801339B000022134812493F
S2140027608C58845004329A42FAD1134A134B9A4238
S2140027700AD2D34311495B1803218B4304339B18B9
S214002780002102C29342FCD10D4AFF210D4B8B4320
S21400279093600D4A53687F390B4353600B4B984741
S2140027A00B4B9847FEE7C046144E01000000002081
S2140027B0E40A002004000020E40A00202C1D00206B
S2140027C000ED00E0000000000040004191EB00003A
S2140027D06D08000010B5074B1A7804210A431A70DA
S2140027E0DA2292009B58002B03D0DB68002B00D027
S2140027F0984710BDBC0C002010B5074B1A78022174
S2140028000A431A70DA2292009B58002B03D0DB682A
S214002810002B00D0984710BDBC0C002010B5074B0D
S2140028201A7801210A431A70DA2292009B58002B6C
S21400283003D0DB68002B00D0984710BDBC0C0020EE
S21400284010B5002804D0054B5B6B0020984710BDE0
S214002850024B5B6B08009847F9E7C0467C400100D6
S21400286010B5DA239B00044AD358002B03D09B688C
S214002870002B00D0984710BDBC0C002010B50220DD
S214002880014B984710BDC0466128000010B50320D4
S214002890014B984710BDC0466128000010B50420C3
S2140028A0014B984710BDC0466128000010B50520B2
S2140028B0014B984710BDC0466128000010B50620A1
S2140028C0014B984710BDC0466128000010B5072090
S2140028D0014B984710BDC0466128000000B583B084
S2140028E09923DB000C4AD35801AA80214900595C81
S2140028F0917050700C2111701622FF329A5C002ADB
S21400290002D0013101AA1170187801A9034B98472B
S214002910C0B203B000BDC046BC0C00204584000019
S21400292010B5104CFD239B00E0180F4B98479923D9
S214002930DB00E3580D4A9A5C002A02D001210C4ABB
S21400294099549923DB00074AD258C823D35C022B3C
S21400295000D010BD0349074A8B5C102003438B54FC
S214002960F7E7C046BC0C0020A5C100001702000017
S214002970160200006904000010B50D4BD82189002E
S2140029808022585802435A509922D2009A58094B2E
S214002990D35C002B08D10649074A8B5C0220034310
S2140029A0102003438B5410BD044B9847F3E7C046F2
S2140029B0BC0C00201702000069040000212900005A
S2140029C010B582B00023019301A8364B9847002328
S2140029D0002802D0180002B010BD0198324B98476C
S2140029E000230028F6D19923DB00304AD358304A1A
S2140029F09A5A002A04D0892189005A5A01325A521A
S214002A009923DB00294AD2582A4BD35C002B25D1C8
S214002A10294B264AD35C9B070AD49923DB00D3585C
S214002A20CA229A5C002A03D0CC215A5801325A5046
S214002A301E4B9921C9000022882040005C58225471
S214002A401E485C58225458581D4942544B31FF3199
S214002A5002325858904358500123BBE769460B2072
S214002A60184B98470028D3D110489921C9004458DC
S214002A70154BE25A0132E2524258D15A6B3BFF3BA9
S214002A80D35A9942C4D1002188239B00D154030015
S214002A900949425C082002435A540F218A22D20078
S214002AA09954B5E7D17F0000E97F0000BC0C0020F8
S214002AB0220200001E020000690400001702000047
S214002AC016020000696C00003A02000010B5264CA1
S214002AD0EC239B00E018254B98479923DB00E3582E
S214002AE01422FF32995CF8229200A154F8229958D9
S214002AF0F9229200A1500222FF32995CFC22920039
S214002B00A1541622FF32995C194AA1540121194A90
S214002B10A154C8229A5C022A11D00020164A1249F3
S214002B20885411498222D2008A18F82080008446F0
S214002B3061441878114B9847002805D110BD012034
S214002B400D4A09498854ECE7074C9923DB00E25804
S214002B50E023D158084BE05C094B984701228D23AF
S214002B60DB00E254EAE7C046BC0C0020A5C100002A
S214002B70F1030000F3030000F203000009850000E3
S214002B804128000010B5044B984702218D23DB0036
S214002B90024AD15410BDC046CD2A0000BC0C00200D
S214002BA070B505000E009923DB004B4AD258C823A7
S214002BB0D35C022B02D0494BDB6A9847484B9847B8
S214002BC0041E39D19923DB00434AD258C823D35C6C
S214002BD0012B47D08D23DB003F4AD35C002B5BD113
S214002BE09923DB00D2583F4BD35C002B02D03E4BE0
S214002BF0394AD55428003D4B98479923DB00364A7E
S214002C00D258C823D35C022B63D0334CD1239B000D
S214002C10E058374B9847F2239B00E358984218D366
S214002C202D4CEC239B00E018324B9847324AA35CAD
S214002C3010210B43A3540CE00220304B9847304B36
S214002C4098479923DB00244AD258C823D35C012B2B
S214002C5008D09923DB00204AD258C823D35C022B25
S214002C6037D070BD274B9847002806D1264B98478B
S214002C7000280BD1002CECD1ACE70020234B984762
S214002C80234B9847204B98470028E2D00020214B42
S214002C909847214B9847DCE79923DB000E4AD25829
S214002CA0104BD35C002B02D00F4B0B4AD65430008F
S214002CB00E4B98479923DB00074AD258C823D35CAB
S214002CC0022B06D004490C4A8B5C102003438B541D
S214002CD0BFE7124B9847C4E7BC0C00207C400100BD
S214002CE0476A00001702000029040000796F000000
S214002CF081C20000A5C1000069040000336A00001C
S214002D003D6A00004B6A00004F6A0000356A00000A
S214002D103F6A0000376A0000416A0000852B000009
S214002D2070B5204CE7239B00E0181F4B9847002205
S214002D308D23DB00E2546033E3581421FF31585CE6
S214002D40F32189006054F521585C1849605402212B
S214002D50FF31585CF721890060541621FF31585C1A
S214002D60134960541349625413496254C8329B5C39
S214002D70022B13D00B4C8223DB00E218443BE118F5
S214002D809925ED00635918780C4B98476259E02353
S214002D90D158084BE05C0A4B984770BD094B1B6B3B
S214002DA09847E7E7BC0C0020A5C10000CF03000051
S214002DB0DD030000DE030000DF03000009850000DD
S214002DC0412800007C40010070B582B02D4D99244A
S214002DD0E400002688239B002A59D654553BFF3B27
S214002DE02A59D650284B984788235B002A59D65430
S214002DF0264B2A59D6541223FF332A59D654012279
S214002E00234B2959CA522B591979D33299542B5925
S214002E105979013299542B59B03A995CD032995469
S214002E202B591A00F832283303CB03C22B59302211
S214002E30995CD03299542B59CF3A995C0222FF32D2
S214002E4099542B590332596B99502B590432996B6C
S214002E509950104B2A59D65401332A59D654022376
S214002E606A46137100962B59187869460A4B98479C
S214002E701422FF322B599E542B59995C01329954D7
S214002E8002B070BDBC0C00200180000016020000DD
S214002E901A0200001702000079840000F8B5070047
S214002EA00E0015001C000B4B98470B4B18605F601C
S214002EB01E815D811C73094B1A7808210A431A701B
S214002EC0DA2292009B58002B03D0DB68002B00D040
S214002ED09847F8BD6DC20000B01B0020BC0C002057
S214002EE030B583B00E4B98470E4B18600E4D6C46AF
S214002EF068460E4B9847D6239B00EB1806CC06C3B5
S214002F002B78102213432B70DA239B00EB58002BF0
S214002F1003D0DB68002B00D0984703B030BDC04616
S214002F206DC20000AC1B0020BC0C002059BF000086
S214002F30F0B585B00700009101921E000AAB1D880F
S214002F40714A002393819921C90051586F4A002085
S214002F5088540393029333005A1E93415B421D40EC
S214002F60694C20004530FF302A003100684B9847F6
S214002F70EAB2684BE2543B78A3733B785B09D9B25C
S214002F80042906D0072900D1A8E0022908D0022388
S214002F9036E09923DB005C4AD25801215B4BD154C2
S214002FA0594B042188225200995419000E310432DC
S214002FB09950FF210432995439781A22FF329954D5
S214002FC01B326946097999549922D2009A58516C55
S214002FD08E2252009950009A1178902252009954ED
S214002FE04C4A995C083AFF3A995419004531FF312A
S214002FF0043A995003A8484B98471223002802D059
S214003000180005B0F0BD039A3F4B912149005A5273
S2140030100021424819544248195442495A5002A8BD
S214003020414B984713230028EAD10023029A002A2E
S214003030E6D0354D9923DB00EA58D523D0563B4BD6
S2140030409847344BEB5C002B28D0029B0F2B0DD9F6
S2140030509923DB002C4AD2581732FF3202A9344B90
S214003060984713230028CBD1093BC9E7264A2532C7
S214003070FF3202A90F202E4B984713230028BFD1FA
S2140030800F21029A0A40009803788B43134303707B
S214003090902252001C498B540023B1E79923DB0091
S2140030A0194AD2581732FF3202A9214B98471323E8
S2140030B00028A5D1144B00219A2252009954992237
S2140030C0D2009A581732FF323931FF315A509E22B9
S2140030D0520002A909789954002391E7002E11D0D6
S2140030E00023002A00D18BE7FF222A40064C20004E
S2140030F00F303100064B9847064BE35C0133A38143
S21400310000237DE700237BE7BC0C002017020000AD
S214003110911E000043020000D17F00002D04000035
S2140031202C040000340400000D6D0000DD280000B3
S214003130256D0000F0B5CE46474680B587B0050041
S21400314000226B46DA7102AB18703C499922D20015
S2140031508A58D520105C5870D420105C9870822055
S21400316040001058039084204000125804928A8928
S2140031709A81334B98470E23002805D0180007B0D5
S2140031800CBC90469946F0BD9923DB002B4AD258DA
S214003190C823D35C012B43D0284C8123DB00E318E3
S2140031A06A46D61D9922D2009146A258107832005F
S2140031B002A9244FB8470120234B98470122234BEE
S2140031C0E2544B46E258D523D25C214BE254327887
S2140031D0204BE2540D33E550303BE3588622D200B4
S2140031E0A3501032A3501C4B9847002808D08123C8
S2140031F0DB00124AD058194B984710230028BDD13F
S214003200174B98470D48D8229200022381580B434B
S2140032108350017B0E30134B9B6A98470023ADE723
S214003220114B98470F230028A8D1104B98470F231F
S2140032300028A3D10E4B9847AEE7C046BC0C002032
S214003240476A000025850000796F00002904000009
S2140032502A0400002B040000536A0000776A00006E
S214003260596A00007C4001004B6A00004F6A00006B
S2140032707B6A0000F0B5CE46474680B593B0039013
S21400328000230F930B939923DB00BA4AD3588A2264
S21400329052009A5C88218900595C002964D001207C
S2140032A007A9087007AE8921490088465B5CB370A1
S2140032B0F27010A8B04B984704AFAE4CD5239B00D5
S2140032C0E3181B680093D4239B00E3581099119AC7
S2140032D03800AA4DA84708AB06CF06C38127FF00D3
S2140032E0E359F360D3239B00E35C73709923DB0000
S2140032F09946E35818783100A14B98474B46E35857
S214003300A04A995A0139E2594A43D22189006250AB
S2140033100CA90C92D5229A5C0A7242469A5C8A7272
S214003320882292009A5C002A22D100210CAA5172AF
S2140033309049D12292008A5802920D921A001432B5
S214003340FF321878D2239B009C46614400910FAB55
S2140033500CA98D4CA047002828D00B280CD013B001
S2140033600CBC90469946F0BD002007A9087099E766
S21400337001210CAA5172DBE7039B002BEFD00F99BB
S21400338000200029EBD07B4CD82292002023A058A6
S2140033900343A350E2239B009C46644420007B4BDF
S2140033A0984720007A4B98470020D8E7714C99251B
S2140033B0ED0061590E78F523CB56D5228A560220A9
S2140033C0FF30095C3000734FB8476259D8239846DF
S2140033D0D358DC27D25D41B2F3208000201800903D
S2140033E030006D4EB04760594346C358C25DFC215D
S2140033F041560078F827BF00E7190097B047625992
S21400340088239B00D35C002B2AD15A4BEC215158C1
S214003410F620800018580918F12080001950F02175
S2140034205258FB21890059585218F22189005A50E7
S214003430504B9922D2009A58D52154561420FF306A
S214003440155C002207921132FF329B5C012B56D08E
S214003450002B3BD0022B62D0042B70D003207EE7DB
S2140034600BA84E4B984703001320002B00D076E79E
S214003470404B4B4A9C5C02AA24215218157899228C
S214003480D2009A58D523D056464B9847641982B234
S2140034900820A24200D262E7FF2C00D95FE7354B36
S2140034A09922D2009958E4228A58F62080001858AB
S2140034B01218F12080001A50E8228A58FB21890051
S2140034C059585218F22189005A50B1E72948153048
S2140034D0FF30354B984703001120002B00D03EE705
S2140034E0244B8C2252009A5C9A819923DB00214A55
S2140034F0D2581423FF33D05C2C4B98472FE71D4837
S2140035001530FF302A4B984703001120002B00D0BF
S21400351025E7184B8C2252009A5C9A81E5E71548FD
S2140035201530FF30234B984703001120002B00D0A6
S21400353015E7104B8C2252009A5C9A81D5E707A8B3
S2140035401D4B984703001220002B00D007E7094BBD
S2140035501533FF33E1B22A000798184CA047030042
S2140035601120002B00D0FAE6024B8C2252009A5C07
S2140035709A81BAE7BC0C0020B9BF0000D9BE000093
S214003580E18500001A020000F58500003DC200003B
S2140035904DC0000029860000ED8400000D6D00007F
S2140035A043020000DD280000A5770000353100004A
S2140035B02578000095780000D17F00001D7B000074
S2140035C010B5144CE2239B00E018134B9847D82202
S2140035D092002023A1589943A15001200F4B9847F1
S2140035E0002816D00B2814D00A4B9922D2009A58DD
S2140035F0D521505C0A49585488214900515C094A33
S21400360099540921084A99540920084B9847084BB1
S214003610984710BDBC0C0020A5C100007532000004
S2140036202A0400002D04000029040000796F000021
S214003630C1290000F0B5C64600B58EB003900491CF
S21400364005921F009923DB004E4AD158D523CE564B
S214003650013BCD56083BCB580C9388239B00CB5C94
S2140036600724002B04D120000EB004BC9046F0BD09
S2140036701223FF33CB5C002B03D10020D2239B0008
S214003680D0500DAB00221A70CA328C5CE201904614
S2140036901A7894467F2260460240404602431A70DB
S2140036A0C823CB5C012B4ED00DAB1A78102082437A
S2140036B01A7086239B00CB5C002B04D00DAB1A78C7
S2140036C0202002431A7007A887239B00CB58079335
S2140036D0012303714471CB33CB588360D023CB5A7C
S2140036E08381D223CB5AC381D523CB5C0374D423E6
S2140036F0CB5C437480235B00CB5C83740B78C37411
S2140037000A00D432D5310CAB1F4CA0470DA90123BB
S21400371003409B01087840229043184308700097A6
S214003720059B049A0398194CA047041E11D00A283A
S2140037300FD0144A9923DB00D521D0584654D258CE
S214003740D423D5548FE70DABD2B2102002431A70A3
S214003750AFE700200E4B9847041EEAD1094A99238A
S214003760DB00002086218900D5586854D258CC2327
S2140037700C99D150074B9847002800D173E71324C3
S21400378071E7C046BC0C002081680000312F0000A5
S21400379075320000956C000070B5012807D000282F
S2140037A038D0022836D0FF287ED001209AE04F4C31
S2140037B09923DB00E15801238E2292008B54293A8C
S2140037C0FF3AA35421000E310432A150FF210432E7
S2140037D0A1541A22FF324039FF39A1540132A354B2
S2140037E020001C30FF30133AFF3AA168404DA8472E
S2140037F020002430FF3008226168A84721002D31C0
S214003800FF3109203B4B984703001220002B6BD159
S214003810113867E0002841D100218D235B00334A30
S214003820D154324C9923DB0001218E229200E058BD
S21400383081540131293AFF3AA15421000E31043255
S214003840A150FF210432A1541A22FF324039FF3919
S214003850A154E3581C22FF32803159180978A1542C
S2140038601A6C120A8E21490062541B6C1B0C1E2215
S214003870FF32A35420001F30FF30163AFF3A61682B
S2140038801B4B984721002731FF310820194B9847DA
S21400389003001220002B27D1113823E002218D23AC
S2140038A05B00124AD154BCE7104C002288235B0010
S2140038B0E25422000E320433E250FF220433E25474
S2140038C01A23FF330022E25420001B30FF30083258
S2140038D0A168074DA847616820002330FF30082202
S2140038E0A8470020044B984770BDC046BC0C00207B
S2140038F0911E00004180000075320000F0B5DE46E3
S21400390057464E464546E0B593B006000F00049273
S21400391000212F2204A88446624411700FAA117059
S21400392051708B4664229046253A13400593049BBB
S2140039309F4206D313B03CBC90469946A246AB467F
S214003940F0BD7C1CE4B2F35D013BDAB21F2AF1D86D
S214003950DBB29B00E84AD3589F460237FFB2992352
S214003960DB00E64AD158325DE54BCB5C3C009A4220
S21400397006D10EA90120E34B98470E98E24B9847D4
S2140039802700D4E70320E14B98470028F8D003210E
S2140039900020DF4B9847315DD84BDE4A9954FC1C1B
S2140039A0E4B20237FFB2F15DDB4A9954E8E7002340
S2140039B00A2204A98C46624413700B2262441370D8
S2140039C007AA137008AA13705B46002B55D10AA9E4
S2140039D0631EF3184B60049B01331C1B0C72992367
S2140039E0DB00C64AD358CA229A5C8A7280225200EA
S2140039F09A5C4A72D5229A5CCA72D4229A5C0A737E
S214003A00F4229A5C4A73872292009A580A9218788F
S214003A1008AB019307AB00930B2363440A2262446E
S214003A20BE4CA0472F2304AA944663441870C04394
S214003A30430713D1B14A9923DB000A216144087871
S214003A40D521D4586054CA3961440878D421D45852
S214003A506054D25807AB1978F423D154002508AB2C
S214003A609B46AF4B9A465B461C7805212000D04704
S214003A70C0B2854204D33F19FCB201239B467FE7C0
S214003A8001222F2104AB9C4661440320A54B984796
S214003A900135EDB2E7E799489922D2000237FFB226
S214003AA0335D0F210B401221FF3184586354825836
S214003AB0515C01238B409C49535200220FA90420DD
S214003AC0984B98473C005BE72F2504AB9C46654423
S214003AD0072399462B70335D0AA91A094846024007
S214003AE04A700F2213400B707C1DE4B2FB1CDBB245
S214003AF0F35C1B023A1DD2B2B25C120413430237C7
S214003B00FFB2F25D1343424653434B609923DB00FA
S214003B107A4AD3581878854B984728704B46034006
S214003B204B4512D175499922D2000AAB03931F78F0
S214003B30FC258B585F55043D8B58039F7F685F516B
S214003B408A58039B5978F523D1540FA9087001228F
S214003B500520744B9847694B06218A22D200995457
S214003B607349585C082202435A5409E7DA239B003B
S214003B70624AD358FF20002B03D01B68002B00D0CE
S214003B8098470FA908706B461B7D4B7002220620D3
S214003B90644B9847F4E62F2504AB9C466544032304
S214003BA02B7008A9335D0B710AAA0892FB1CDBB2C6
S214003BB0F35C1B02381DC0B2305C00040343B81C23
S214003BC0C0B2305C0343404643430A9300230B9342
S214003BD0BC1DE4B20537FFB2F35D13729923DB0018
S214003BE0464AD3581878534B984728700FA9087040
S214003BF0012207204B4B9847C2E60237FFB2335DDF
S214003C000F22134000D101333C4C9920C000E42120
S214003C10FA22920053432258535022585358FA21FE
S214003C2089008C466344E821535000220FA90820DF
S214003C303C4B984706228A23DB00E2543C4AA15CB0
S214003C4008230B43A3543C009AE60237FBB299467E
S214003C50335D002107AA11709A0649D407AA51704D
S214003C60DA0602D5012107AA117007A90F22134010
S214003C708B709923DB00214AD35818782E4B98472F
S214003C80431C33D01D4D9924E40007AB80277F00EA
S214003C901A782959CA5559780222FF322859815470
S214003CA02A5992469B78254AD05C254B9847822312
S214003CB05B005246D05008A9043BFF3B0B702B59C3
S214003CC0DA5D8A7018781F4B98470A902B59D522D0
S214003CD0995C021C40B24CB2A04200DA0A1CD52104
S214003CE05A5400220FA909200E4B98474C4647E627
S214003CF0012107AA5170B3E7E8400100BC0C002080
S214003D001E020000696C0000E16B0000C16F00003D
S214003D10DD6E0000440400004504000041850000FC
S214003D200DC60000596B00001A02000069850000ED
S214003D306904000081850000998500003C4301006D
S214003D40BDCE0000458400000237FFB29923DB0099
S214003D50CB4AD158325DCB4BCB5C3C009A4200D06C
S214003D600EE60EA90B20C84B98470E98C74B9847EF
S214003D7006E62F2504AB9C46654403232B700AA950
S214003D80335D0B707C1DE4B2FB1CDBB2F35C1B02E4
S214003D903A1DD2B2B25C120413430237FFB2F25D90
S214003DA01343424653434B60B54F9923DB00FB5801
S214003DB01878B74B984728700FA9087001220A2078
S214003DC0B44B984706228A23DB00FA54B24AB95C01
S214003DD008230B43BB54D3E5325D0237FCB2A84D33
S214003DE09920C0000F21114001239C461F008F40E0
S214003DF0D2212B585F522958120963469340D0228D
S214003E008B5200220FA90C20A24B9847B8E5355DCF
S214003E109B489921C900072399461A002A409F4BC0
S214003E204458E254BB1CDBB29C46B44463461A7842
S214003E3012094C4622408A24A40043581A55415879
S214003E4063461B780F221340C6328B540337FCB2EE
S214003E5020210020924B9847ED084B461D40193311
S214003E60AB4018188F4B0021984202D9FA218900DE
S214003E704143834D9523DB00E8188B4B98479923E5
S214003E80DB00EA588A239B00D35C012B0AD800206B
S214003E90864B98477A489523DB009C466044844BC3
S214003EA098476DE50220814B9847F3E7335D02376C
S214003EB0FCB273489921C9008B22920094461D09D2
S214003EC00A35012291461700AF403D00475862462A
S214003ED0BD500F252B4004334A469A40754B455833
S214003EE0EA524358624699586E4B0022994215D9B9
S214003EF00700714DFA239B004B4343516F4B9C4682
S214003F0084446346039360466D4B984779590398FB
S214003F10654B98470398664B98474A460FA90A7020
S214003F2001220F205B4B98472AE50237FCB20EA908
S214003F302020554B98470E98544B984720E508ABE1
S214003F4099460822002118005E4B9847BB1CDBB23E
S214003F50F55C2D02FB1CDBB2F35C1B041D43335DDA
S214003F601D433B1DDBB2F35C1B061D43BC1DE4B2C8
S214003F700537FFB2F25DFA239B0053431B124A46F5
S214003F8093800AA8504B9847504B9C46654429009E
S214003F9008953B4BD72292009A1812680092D622B8
S214003FA092009B584A46526810A8494DA847119B54
S214003FB00093109B0A990B9A4846464DA8470898C6
S214003FC04B465968444B9847444B9847D8E48D2352
S214003FD0DB002B4AD35C033B012B00D8D0E4404BDC
S214003FE09847CDE4325DBB1CDBB2F15C0902FB1CDA
S214003FF0DBB2F35C1B04194311437C1DE4B2434659
S21400400059430437FFB2F05D0F231840354B9847ED
S2140040100FA90870012211201E4B9847B0E4BB1C64
S214004020DBB2F35C1B02305D18433C1DE4B2033781
S214004030FFB2F15D2C4B1A682C4B9847A0E4325D1A
S2140040403C1DE4B2BB1CDBB2F05C00020337FFB2DF
S214004050F35D1B041843104343465843244B9847CC
S214004060002808D001220FAB1A7001220FA91320D6
S214004070084B984784E400220FAB1A70F5E7C04659
S214004080BC0C00201E020000696C0000E16B000002
S214004090B1850000596B000069040000260200008C
S2140040A0711E0000378941003DC2000099370000AC
S2140040B04DC0000022020000BC0400006C0400009A
S2140040C0A5C10000D9EB000059BF0000803DD51205
S2140040D0D9BE00009DBE00000DBF0000716A000042
S2140040E0696A00006B6A0000B01B00206F6A00005F
S2140040F0736A000010B59923DB00154AD358154A99
S2140041009A5C15495B5C9A4211D011499922D200FB
S2140041108C581048235C013323548A588A239B000A
S214004120D35C012B10D902200C4B984710BD084CCD
S2140041309523DB00E0180A4B98479923DB00E258EA
S2140041400021044BD154E0E70020044B9847EDE7EC
S214004150BC0C002027020000260200009937000051
S214004160A5C1000010B5124C124BE018124B984730
S2140041709923DB00E2588D239B00D3580F4A9342C5
S21400418005D9FA22920053430D4A09498B50022062
S2140041900C4B9847064C0A4BE158064B9C46644429
S2140041A02000094B98472000084B984710BDC04692
S2140041B0BC0C002094040000A5C100003789410013
S2140041C0C4040000993700003DC200004DC0000046
S2140041D010B5134C9023DB00E018124B9847992338
S2140041E0DB00E2588C239B00D3580F4A934205D934
S2140041F0FA2292005343D83209498B5001200B4BC8
S2140042009847074C9823DB00E158403B9C466444A3
S2140042102000074B98472000064B984710BDC04625
S214004220BC0C0020A5C1000037894100993700006A
S2140042303DC200004DC0000010B5124C124BE018F5
S214004240124B98479923DB00E2588B239B00D358E8
S2140042500F4A934205D9FA22920053430D4A094960
S2140042608B5000200C4B9847064C0A4BE158064BE7
S2140042709C4664442000094B98472000084B98470A
S21400428010BDC046BC0C00206C040000A5C1000098
S21400429037894100BC040000993700003DC2000089
S2140042A04DC0000010B586B0124C9923DB00E358D1
S2140042B01422FF329A5C02A90A70D5229A5C4A70D0
S2140042C0D4229A5C8A70822252009A5803928422E0
S2140042D052009A580192049288811878064B9847A3
S2140042E0D82292000223A1580B43A350002006B008
S2140042F010BDC046BC0C00201586000010B504009A
S214004300080051B2064BDB6B220098470549D822BD
S21400431092000223885803438B50002010BDC046ED
S2140043207C400100BC0C002010B582B01A4C1B4B20
S2140043304C33236090239B00636020001430184B9E
S21400434098472061002301939923DB00154AD35830
S214004350187801A9144B9847A060019BE3602000E1
S2140043601C30124B9847A06120002430104B984711
S214004370206220002C300F4B9847A062200034307B
S2140043800D4B9847206320003C300C4B9847A063A9
S214004390200002B010BDC046C01B00203C1100200B
S2140043A07D770000BC0C00208D8400007DBC0000E2
S2140043B0496B00002B6A00002D6E0000797E00001D
S2140043C030B585B00400002303930B226A441370B3
S2140043D0D8239B00304AD3580125012B02D0280051
S2140043E005B030BD002500283AD02168002939D014
S2140043F0A2882A484C302A4B984703236A461371F2
S214004400A36800939923DB00234AD358187869469B
S214004410244B9847A069244B9847002800D01125C4
S2140044202069224B9847002800D01125A06B204B0E
S2140044309847002800D01225206A1E4B984700286F
S21400444000D01325A06A1C4B9847002800D11425DD
S214004450206B1A4B9847002806D0002DBFD004E0EA
S2140044600335C2E70325C8E7152503A90120144B29
S21400447098470028B3D00B2169449923DB00064AED
S214004480D258104BD25C0F2313400B700122012030
S2140044900D4B9847A3E7C046BC0C00203C110020FB
S2140044A0911E00007984000059BC00005977000076
S2140044B0557E0000256B0000276A0000096E00008C
S2140044C0696C00001E020000596B0000002823D013
S2140044D0002924D0037B1B0703D02023C35C002BBA
S2140044E00FD12823C35C002B0ED0027B16231207A5
S2140044F013D10A33C35C002B0AD003230B700023AE
S2140045000BE000230B7008E001330B70002304E07F
S21400451002330B70002300E00323180070470323C8
S214004520FBE70000F0B5D6464F464646C0B5A4B0F9
S21400453008A8CC4B9847CC4B1C6800221A6008A8E9
S214004540CA4B9847002C13D0E5B2EB0600D5A1E085
S2140045502B0700D53CE1E4B2630701D500F044FD2B
S214004560A30701D500F05CFDE30701D500F05EFD72
S214004570BF4B9847BF4BBC4AD35CDA063CD5D82223
S2140045809200B9498A58110605D582218A43D82156
S2140045908900B548425005221A4201D000F04CFD71
S2140045A0B44BB14AD35C5B0701D500F0A8FEB14B13
S2140045B0AD4AD35CDA0701D400F08DFE8522D20026
S2140045C0A9498A5C002A01D100F0DFFD032A01D147
S2140045D000F0DBFD012A01D100F014FEA24BA54934
S2140045E05A5C102082435A549922D2009A580021CD
S2140045F0A14BD154A14B9847D8239B009A4AD35835
S214004600002B26D19B4BD35CDB0701D500F0A3FD26
S214004610984B954AD35C5B0701D500F00EFE954B90
S214004620914AD35C1B0701D500F020FE18AC00238E
S21400463023702000924B98472378002B01D000F07F
S21400464024FE89498B4A8B5C102083438B548D4B08
S2140046509847884B844AD35C9B0715D51300854939
S214004660525C022082435A549922D2009A58C82398
S214004670D35C022B01D100F01FFE7B4B824A9818B8
S214004680A83A9B585B68984724B01CBC904699464D
S214004690A246F0BD9923DB00734AD258C823D35CE8
S2140046A0022B4FD0794BDB6A98476F4EF1239B0065
S2140046B0F158283BF7183800754B98473800754B6B
S2140046C098479923DB00F358C8229A5C022A16D032
S2140046D0654EF2239B00F158183BF71838006C4BD8
S2140046E0984738006B4B98479923DB00F358C8224D
S2140046F09A5C022A03D0684A9A5C002A14D00CA955
S21400470015220A701878654B98470E90564EF2237D
S2140047109B00F15809182C339C46664430005C4BCD
S214004720984730005B4B9847524B4F4AD35C5B0729
S2140047300BD55B4BD35C002B07D10121D3239B0009
S214004740D15407E0574B9847AFE70021D3239B008F
S214004750454AD15444499923DB00C8581422FF32F5
S214004760875C8A2676008755CB58995C18AA117004
S214004770882292009A5C002A26D1002118AA51703D
S214004780494E32681992187818A9484B9847364B04
S2140047903168D122920099508532FF329A583E4BAA
S2140047A0D35C002B03D10020414B2F49C8548823EB
S2140047B05B00D15C0131D1542B4A9921C900515874
S2140047C0C95C3C4BD154C3E6012118AA5170D7E707
S2140047D0394B5F681A8990460A215A5E91460C2624
S2140047E09E5700220B92204D9923DB00EB585B6C02
S2140047F09A4607AB1A800023304900206854304997
S21400480048466852F6B22F496E544C31685C2E49C1
S21400481068542E496B542E496B542E496B542E49BE
S2140048206A5004316B542D496B542D496B54023138
S2140048306A5015496B542B4BEA50144BDB6A984769
S214004840EC239B00E818284B984741463800274B36
S214004850984700284ED0044B254A494699520232C2
S2140048609E5478E6930E0000BC0C00209D0E0000BF
S2140048707D6A00006904000016020000C1350000D1
S214004880996D00005B6A00000C0400007C4001008B
S2140048903DC200004DC00000170200004584000025
S2140048A03C040000852B0000AC1B00206584000043
S2140048B0290400002D040000B01B00202C0400007A
S2140048C01A0400001C0400001D0400000F04000071
S2140048D00E04000011040000140400001904000077
S2140048E01E04000024040000A5C10000436A000066
S2140048F05E0400009923DB00D34AD258C823D35C59
S214004900012B46D03D78AB075FD16B09DAB2032A9C
S21400491000D130E160D9DAB2052A00D127E1072AB2
S21400492000D04EE3791CC84D91239B00EE184246FA
S2140049303000C64B98470322C54BEA540022C54BAD
S214004940EA54C54BEE504346013B8322D200AB549B
S214004950C24AAB5C02210B43AB549923DB00BA4A34
S214004960D358BF4A9A5C002A00D034E3C8329B5C16
S214004970022B00D12CE3FF239B00B34AD35C002B11
S21400498000D0E8E51100B54A8B5C102003438B5439
S214004990E1E5B44B9847002809D00020B24B984771
S2140049A0B24B98470321B24BA74AD154AAE7B14B62
S2140049B098470028A6D00020AF4B9847AF4B9847A3
S2140049C00421AB4BA04AD1549CE70121A14B9E4A3F
S2140049D0D154AB4B9847BEE5012A00D0F1E20E97C2
S2140049E043466A461375157D0EAB1D719923DB0091
S2140049F0954AD358882292009A5C002A05D08E22C7
S214004A0092009B5C002B00D184E08F4B99680EAA25
S214004A10FF209C4B9847002800D09DE08A4A9923A7
S214004A20DB00D0580EA94E7A0664D658887A000263
S214004A30376C38433064D658C87A0004376C38432D
S214004A403064D058119E4664087C4006400FF52618
S214004A50D758B855087C0007000F0736D758B85502
S214004A60E420497CD6583150D3581A58002A02D12F
S214004A700121E432995074489921C9004658E4232C
S214004A80FA229200F7587A43F2504258D358E03947
S214004A908C466344E82153500EAB1B7C7F2B40D8DA
S214004AA09923DB00C2580021774BD1540CA942232E
S214004AB002AA944663440C93113D0D71624E9925EB
S214004AC0ED0073591878714B9847022288239B0093
S214004AD07159CA5473596C4A9A5C002A29D100202D
S214004AE06B4B9847002832D19923DB00564AD3589F
S214004AF08E2292009A5C002A00D12EE700218E2298
S214004B009200995450489523DB009C466044614BC4
S214004B10984722E701214F4B4B4AD154584B9847B0
S214004B2019E59923DB00484AD2580121564BD15447
S214004B30BCE70021584A995207A9434A5259524B9A
S214004B40D35C0B7001220B20544B9847C7E700211B
S214004B500020534B9847C7E700204D4B9847002846
S214004B6000D1FAE6002107204D4B9847F5E60121D3
S214004B70374B354AD15434499923DB00CB5809AA20
S214004B800220FF30185C90708220C000095C5170D3
S214004B900C2111701622FF329A5C002A02D00131D5
S214004BA009AA1170187809A93E4B98470A90424600
S214004BB00D3A131C12040CD41BB202AA2021525E1A
S214004BC0934208DD0121234B1F4AD1542C4B9847B2
S214004BD0C1E40023F0E718A81897434603711A4B60
S214004BE091229200944663444362463AFF3A282351
S214004BF0C2542D4B9847002806D00121154B124A67
S214004C00D1541F4B9847A6E41A9B0593274B0E4A90
S214004C100599D1500EA918A8254B984700280BD106
S214004C2000230B939923DB00074AD3589C461A9817
S214004C301A004C32002341E00121064B024AD154AF
S214004C400F4B984787E4C046BC0C0020911E00001E
S214004C500C0400000D0400001404000069040000A9
S214004C60170200004B6A0000356A00003F6A000029
S214004C701D0400004F6A0000376A0000416A000009
S214004C8079290000FD7800001E020000C1840000A3
S214004C90C16F0000A5C100003A020000596B000079
S214004CA0DD6E00004584000035810000240400000D
S214004CB0CD44000001332032042B13D00593116835
S214004CC08142F7D1177A002FF4D0580160440300D0
S214004CD048331B780593036D1B680B938A460123A4
S214004CE0994602E005930023994609A914230B7000
S214004CF063461878DA4B98470A909923DB00D94A1E
S214004D00D25887239B00D3580EAA11780BAA02927A
S214004D10132202AFBC466244019280B2009018AAE9
S214004D200598D14FB84700282ED001280ED002286B
S214004D3025D00121CD4BCB4AD1548423DB00C94A70
S214004D400B99D150CA4B9847FFF705FCC54B082175
S214004D50C64A9954BB329B58C64A9A5C002AECD184
S214004D601F329543A02DE8D18F2292009A5823999E
S214004D708A42E2D10121862292009954DDE70A2177
S214004D80BA4BB84AD154D8E7132302AA94466344D0
S214004D901A7818AB00930B9B51460598B64FB84748
S214004DA0002817D002280DD1AE4B0B21AF4A9954DC
S214004DB0B24A9B5C022B01D1FFF7CDFBAC4B984768
S214004DC0FFF7C9FB0C21A94BA64AD154A84B98471C
S214004DD0FFF7C1FBA34B0021A44A9954A84A4846B2
S214004DE0985418AA127BD006C00FA64FD855A648CE
S214004DF019500430195408300B9F1F509206D20FDA
S214004E00A2481A54A2481954A2481A549922D20009
S214004E109A58CC23D1504B46012B1FD01F239D43BD
S214004E20A02D20D08F4B9922D200985800228621A0
S214004E308900425498495A54132302AA944663445C
S214004E4018780B99954B9847002822D00121874B5C
S214004E50844AD154864B9847FFF77DFB02318E4B30
S214004E60804AD154E8E77F4A9923DB000120862157
S214004E708900D5586854D3587E4A9A5C002A03D1D4
S214004E808F229200239999500121834B754AD15461
S214004E90D2E7744B794A995C0B329A5C18AB1B7B51
S214004EA0012910D90EAB1B78012B42D0002B14D051
S214004EB0022B50D0032B5FD001216C4B694AD15492
S214004EC06B4B984725E0012A02D0754B9847E9E7D7
S214004ED09B06E7D5724B9847E4E718AF3A7B120774
S214004EE0120F604D654BEB5C0093330000211CA84D
S214004EF06C4EB0472023FA5C6B4BEA54624B7A6ADE
S214004F00EA502823FA5C8323DB00EA540122674B2D
S214004F10EA549923DB00534AD3588E2292009A5CB7
S214004F20002A3BD14F49624A885C022303438B54D4
S214004F3013E518AD2A7B1207120F4A4F4F4BFB5C46
S214004F400093330000211CA8564EB0472023EA5C8D
S214004F50554BFA54DDE718AD2823EA5C414F474B22
S214004F60FB5C00933300002121984E4EB04720236F
S214004F70EA5C4D4BFA54CCE73A4B18AA2021505C19
S214004F80494958544049219858502821515C832259
S214004F90D20099540121454A9954BAE700218E223D
S214004FA0920099542F4D9523DB00E818414B984703
S214004FB03F4BEB5C5B07B5D500213F4B294AD154EC
S214004FC0B0E70121294B274AD154294B9847C4E41E
S214004FD03A4B9847CFE42F4B224AD35C002B00D1A4
S214004FE0C9E4364B9847C6E49923DB001D4AD258DD
S214004FF0C823D35C022B10D0314BDB6A9847194D7F
S2140050000222234BEA5402202E4B9847284AAB5CD8
S21400501010210B43AB54FFF7A3FA2B4B9847EEE750
S21400502006210520294B9847FFF79EFA0421032006
S214005030264B9847FFF79CFA254B9847094B1E4A84
S2140050409854134A9B5C022B46D0022844D00B206F
S214005050204B9847002801D1FFF7A2FA002056E01F
S21400506045840000BC0C0020897E00000D04000072
S214005070792900001E020000717C00001D0400005B
S2140050800E04000011040000140400001E040000BA
S214005090290400002C0400000C0400007D7F0000A2
S2140050A0CD6C0000FD3800000F040000190400005D
S2140050B069040000A5C100003D040000212900008D
S2140050C07C400100796F0000852B0000A12B0000BA
S2140050D0B56F0000C16F0000944BD82189000222F2
S2140050E05858904358509922D20099588822520016
S2140050F0895C8F4A995400228E495A5404315A507A
S2140051000B208D4B9847002801D1FFF775FA8B4B83
S214005110864AD35CDA0713D45B0700D4D8E0834909
S214005120D82292000223885898438850D8239B00A0
S2140051307E4AD358002B01D0FFF78BFAFFF768FAA8
S214005140002800D1D6E0D8239B00784AD358002BFD
S21400515001D0FFF77EFA754B78495A5C01208243EE
S2140051605A548522D2009818C43A9B581B68984710
S214005170FFF74EFA724B98479923DB006B4AD258DA
S214005180002188235B00D154C6E09922D2006749EB
S2140051908A5888214900505C1C39515C88420FD2DD
S2140051A09B0701D4FFF71AFAC823D35C002B07D05D
S2140051B08D23DB005D4AD35C002B01D0FFF70EFA8F
S2140051C0604B98479923DB00584AD3585E4A9A5A50
S2140051D089218900595A914201D0FFF70DFA5B499F
S2140051E0595C012901D0FFF707FA002A01D1FFF721
S2140051F003FA00218922920099520020544B9847C6
S214005200FFF7FAF99922D20048498A585149515C69
S214005210002998D088214900515CF420125C914204
S214005220CED29B0701D4FFF7D9F9424B3F4AD35C55
S214005230002B01D1FFF7D2F9C2E710003F4A835C8A
S21400524004218B438354444B9C466044434B98470D
S214005250434B9847002801D1FFF7E1F93349374A15
S2140052608B5C042003438B54FFF7D9F914008A2380
S214005270DB00D018EC3BD358DB6898472F4AA35C7A
S21400528008218B43A354FFF7D1F9284C06228A2322
S214005290DB00E254294D635D0822134363558A23DD
S2140052A0DB00E018EC3BE358DB689847635D0822B8
S2140052B093436355FFF7C5F9D8239B001B4AD35881
S2140052C0002B01D0FFF7D9F9264B9847FFF7D5F901
S2140052D0002800D02AE7D8239B00144AD358002B76
S2140052E001D1FFF795F9FFF7B4F9144B0F4AD35CD9
S2140052F0FFF764F9114B0D4AD35C5B07F5D5002028
S2140053000D4B9847002801D1FFF751F90020164BA6
S2140053109847002800D12DE70449D822920002239E
S214005320885898438850FFF742F9C046BC0C0020C6
S2140053302D0400002C040000C16F0000690400006A
S21400534001800000C1290000220200001E020000A9
S21400535099370000160200003C04000005700000AB
S21400536085700000852B0000256F0000F0B5DE4636
S21400537057464E464546E0B593B004000D000192F0
S214005380002800D167E2002900D16CE20368002BF8
S21400539000D16AE24368002B00D168E28368002BE4
S2140053A000D166E20320E368002B00D154E210002F
S2140053B0FB4B984703000920002B00D14CE2F9492B
S2140053C02000F94B9847F94B98464C2343449A469D
S2140053D09022920000211800F54B9B46984799268C
S2140053E0F600F44F381D32000021D8475346BB5113
S2140053F04C2342460198D05443461533FF330022CF
S21400540092461A704D331A709A239B0043441A70C2
S214005410E94B43441A70E94B4344012293461A7001
S214005420E74B43441A700E2302AA3C21521813700D
S21400543011A9E44B994698471090431E984189233A
S2140054405B00BA59D0540A3BFF3B02AA3C215218D3
S2140054501370BB59187811A9C8471090BB5918711A
S214005460052302AA3C2152181370BB59187811A9BB
S214005470C8471090BB5958710F2302AA3C215218F6
S2140054801370BB59187811A9C8471090BB591861FA
S214005490102302AA3C2152181370BB59187811A980
S2140054A0C8471090BB595861112302AA3C215218D4
S2140054B01370BB59187811A9C8471090BB5998614A
S2140054C0122302AA3C2152181370BB59187811A94E
S2140054D0C8471090BB59D861132302AA3C21521822
S2140054E01370BB59187811A9C8471090BB59186299
S2140054F0162302AA3C2152181370BB59187811A91A
S214005500C84710902523BA59D0540E3B02AA3C2116
S21400551052181370BB59187811A9C8471090BB5978
S2140055209862182302AA3C2152181370BB591878A7
S21400553011A9C84710902C23BA59D0540F3B02AA81
S2140055403C2152181370BB59187811A9C8471090FF
S2140055503023BA59D054123B02AA3C215218137079
S214005560BB59187811A9C84710903123BA59D0549E
S214005570123B02AA3C2152181370BB59187811A985
S214005580C8471090BB59109A5A63202302AA3C21A0
S21400559052181370BB59187811A9C8471090BB59F8
S2140055A0109A9A630A23984602AB3C229B184246FE
S2140055B01A70BB59187811A9C8471090D023BA5949
S2140055C0D052C53B02AA3C2152181370BB5918781A
S2140055D011A9C8471090D223BA59D0522422BB59D9
S2140055E059469954BB59414699600623B9590B73DD
S2140055F0BB59D82198685850BB59187B0431585469
S214005600BB59043118695850BB5904315869585071
S214005610BB59043198695850BB590431D869585061
S214005620BB590431186A5850BB59995CD03299540A
S214005630654B9847C923BA595946D154D9239B007C
S214005640FC500433FD50614B5246FA540A3BFF3B74
S2140056505A46FA501C3B5246FA500433FA5040332E
S214005660F8185B495B4CA047E7239B00F8185A499B
S214005670A047EC239B00F8185849A047FD239B0041
S214005680F8185749A047574BF8185749A047902392
S214005690DB00F8185549A047554BF8185549A04760
S2140056A09523DB00F8185449A04702AC2000534B62
S2140056B09847D4239B00FB1806CC06C3504ADB232E
S2140056C09B00FA504F4A0833FA504F4A0833FA50B4
S2140056D04E4A0C3BFA504E4A0833FA500C3BF81828
S2140056E04C4B1B68984704A953460B7153460493CA
S2140056F0BB591878484B98474848494B9847030089
S2140057001120002B00D0A7E04648474B98470300DF
S2140057101120002B00D09FE04448454B98470300DB
S2140057201320534500D097E04248434B9847030068
S2140057301220534500D08FE01E4CA05948303F4BF6
S2140057409847344F7B6998473D4B9847C923A259E1
S214005750D05CBB6D9847FB6A98476B680E93EB6806
S21400576001930F938A23DB00E3180693354BE31867
S2140057700793354BE3180893144BE3180993A35982
S2140057801A0044320A920B9390320C9248330D93CF
S2140057902E4A0EA906A82E4B984750465AE0C046F9
S2140057A03D840000BD280000D56D00003C1100209F
S2140057B0C71E0000BC0C0020690200006A02000040
S2140057C06B02000045840000C92D0000690400003B
S2140057D0C13500003DC00000212D0000CD2A00008C
S2140057E0212900006C04000039420000D14100006D
S2140057F09404000065410000F5400000B9BF0000B9
S214005800E12E00009D2E0000F9270000D52700009D
S2140058101D2800007C400100798400008D280000CF
S21400582071BB00007D280000E57600009D28000082
S214005830016B0000CD280000298000007180000068
S214005840651E00000C0400003C040000AD280000AB
S214005850256A000000E0032013B03CBC9046994641
S214005860A246AB46F0BD0320F6E70320F4E703208C
S214005870F2E70320F0E7C0460021D8239B00024A47
S214005880D15000207047C046BC0C0020F0B589B04F
S21400589004000D009923DB002A4AD358CC229958DD
S2140058A0029158796A46D07118796A46907100223A
S2140058B000920332002D2FD003A8872292009A5818
S2140058C0039200220271CA329A5C42718160D02231
